{
  "_format": "hh3-artifact-1",
  "contractName": "VaultPrudentGlUSDP",
  "sourceName": "contracts/vaults/VaultPrudentGlUSDP.sol",
  "abi": [
    {
      "inputs": [
        {
          "internalType": "contract IERC20",
          "name": "_asset",
          "type": "address"
        },
        {
          "internalType": "address",
          "name": "_daoAddress",
          "type": "address"
        },
        {
          "internalType": "uint16",
          "name": "_feesBIPS",
          "type": "uint16"
        },
        {
          "internalType": "uint16",
          "name": "_liquidityBufferBIPS",
          "type": "uint16"
        }
      ],
      "stateMutability": "nonpayable",
      "type": "constructor"
    },
    {
      "inputs": [
        {
          "internalType": "address",
          "name": "sender",
          "type": "address"
        },
        {
          "internalType": "address",
          "name": "badAddress",
          "type": "address"
        }
      ],
      "name": "AddressNotAllowed",
      "type": "error"
    },
    {
      "inputs": [
        {
          "internalType": "uint256",
          "name": "amount",
          "type": "uint256"
        },
        {
          "internalType": "uint256",
          "name": "bufferTotalAssets",
          "type": "uint256"
        }
      ],
      "name": "BadAmount",
      "type": "error"
    },
    {
      "inputs": [
        {
          "internalType": "address",
          "name": "sender",
          "type": "address"
        },
        {
          "internalType": "uint16",
          "name": "badPercentage",
          "type": "uint16"
        }
      ],
      "name": "BadPercentage",
      "type": "error"
    },
    {
      "inputs": [
        {
          "internalType": "address",
          "name": "spender",
          "type": "address"
        },
        {
          "internalType": "uint256",
          "name": "allowance",
          "type": "uint256"
        },
        {
          "internalType": "uint256",
          "name": "needed",
          "type": "uint256"
        }
      ],
      "name": "ERC20InsufficientAllowance",
      "type": "error"
    },
    {
      "inputs": [
        {
          "internalType": "address",
          "name": "sender",
          "type": "address"
        },
        {
          "internalType": "uint256",
          "name": "balance",
          "type": "uint256"
        },
        {
          "internalType": "uint256",
          "name": "needed",
          "type": "uint256"
        }
      ],
      "name": "ERC20InsufficientBalance",
      "type": "error"
    },
    {
      "inputs": [
        {
          "internalType": "address",
          "name": "approver",
          "type": "address"
        }
      ],
      "name": "ERC20InvalidApprover",
      "type": "error"
    },
    {
      "inputs": [
        {
          "internalType": "address",
          "name": "receiver",
          "type": "address"
        }
      ],
      "name": "ERC20InvalidReceiver",
      "type": "error"
    },
    {
      "inputs": [
        {
          "internalType": "address",
          "name": "sender",
          "type": "address"
        }
      ],
      "name": "ERC20InvalidSender",
      "type": "error"
    },
    {
      "inputs": [
        {
          "internalType": "address",
          "name": "spender",
          "type": "address"
        }
      ],
      "name": "ERC20InvalidSpender",
      "type": "error"
    },
    {
      "inputs": [
        {
          "internalType": "address",
          "name": "receiver",
          "type": "address"
        },
        {
          "internalType": "uint256",
          "name": "assets",
          "type": "uint256"
        },
        {
          "internalType": "uint256",
          "name": "max",
          "type": "uint256"
        }
      ],
      "name": "ERC4626ExceededMaxDeposit",
      "type": "error"
    },
    {
      "inputs": [
        {
          "internalType": "address",
          "name": "receiver",
          "type": "address"
        },
        {
          "internalType": "uint256",
          "name": "shares",
          "type": "uint256"
        },
        {
          "internalType": "uint256",
          "name": "max",
          "type": "uint256"
        }
      ],
      "name": "ERC4626ExceededMaxMint",
      "type": "error"
    },
    {
      "inputs": [
        {
          "internalType": "address",
          "name": "owner",
          "type": "address"
        },
        {
          "internalType": "uint256",
          "name": "shares",
          "type": "uint256"
        },
        {
          "internalType": "uint256",
          "name": "max",
          "type": "uint256"
        }
      ],
      "name": "ERC4626ExceededMaxRedeem",
      "type": "error"
    },
    {
      "inputs": [
        {
          "internalType": "address",
          "name": "owner",
          "type": "address"
        },
        {
          "internalType": "uint256",
          "name": "assets",
          "type": "uint256"
        },
        {
          "internalType": "uint256",
          "name": "max",
          "type": "uint256"
        }
      ],
      "name": "ERC4626ExceededMaxWithdraw",
      "type": "error"
    },
    {
      "inputs": [
        {
          "internalType": "uint256",
          "name": "index",
          "type": "uint256"
        },
        {
          "internalType": "uint256",
          "name": "length",
          "type": "uint256"
        }
      ],
      "name": "IndexOutOfBounds",
      "type": "error"
    },
    {
      "inputs": [],
      "name": "NoDataFound",
      "type": "error"
    },
    {
      "inputs": [
        {
          "internalType": "address",
          "name": "sender",
          "type": "address"
        }
      ],
      "name": "NotADao",
      "type": "error"
    },
    {
      "inputs": [],
      "name": "NotAmountZero",
      "type": "error"
    },
    {
      "inputs": [],
      "name": "ReentrancyGuardReentrantCall",
      "type": "error"
    },
    {
      "inputs": [
        {
          "internalType": "address",
          "name": "token",
          "type": "address"
        }
      ],
      "name": "SafeERC20FailedOperation",
      "type": "error"
    },
    {
      "anonymous": false,
      "inputs": [
        {
          "indexed": true,
          "internalType": "address",
          "name": "owner",
          "type": "address"
        },
        {
          "indexed": true,
          "internalType": "address",
          "name": "spender",
          "type": "address"
        },
        {
          "indexed": false,
          "internalType": "uint256",
          "name": "value",
          "type": "uint256"
        }
      ],
      "name": "Approval",
      "type": "event"
    },
    {
      "anonymous": false,
      "inputs": [
        {
          "indexed": false,
          "internalType": "address",
          "name": "oldDAOAddress",
          "type": "address"
        },
        {
          "indexed": false,
          "internalType": "address",
          "name": "newDAOAddress",
          "type": "address"
        }
      ],
      "name": "DAOAddressChangedConfirmed",
      "type": "event"
    },
    {
      "anonymous": false,
      "inputs": [
        {
          "indexed": true,
          "internalType": "address",
          "name": "sender",
          "type": "address"
        },
        {
          "indexed": true,
          "internalType": "address",
          "name": "owner",
          "type": "address"
        },
        {
          "indexed": false,
          "internalType": "uint256",
          "name": "assets",
          "type": "uint256"
        },
        {
          "indexed": false,
          "internalType": "uint256",
          "name": "shares",
          "type": "uint256"
        }
      ],
      "name": "Deposit",
      "type": "event"
    },
    {
      "anonymous": false,
      "inputs": [
        {
          "indexed": false,
          "internalType": "uint16",
          "name": "oldFeesBIPS",
          "type": "uint16"
        },
        {
          "indexed": false,
          "internalType": "uint16",
          "name": "newFeesBIPS",
          "type": "uint16"
        }
      ],
      "name": "FeesBIPSChanged",
      "type": "event"
    },
    {
      "anonymous": false,
      "inputs": [
        {
          "indexed": false,
          "internalType": "uint256",
          "name": "amount",
          "type": "uint256"
        },
        {
          "indexed": false,
          "internalType": "uint256",
          "name": "totalAmountToDivest",
          "type": "uint256"
        },
        {
          "indexed": false,
          "internalType": "uint256",
          "name": "remainingToDivest",
          "type": "uint256"
        }
      ],
      "name": "ForceDivest",
      "type": "event"
    },
    {
      "anonymous": false,
      "inputs": [
        {
          "indexed": false,
          "internalType": "uint256",
          "name": "yield",
          "type": "uint256"
        },
        {
          "indexed": false,
          "internalType": "uint256",
          "name": "fees",
          "type": "uint256"
        },
        {
          "indexed": false,
          "internalType": "uint256",
          "name": "sharesToMint",
          "type": "uint256"
        },
        {
          "indexed": false,
          "internalType": "uint256",
          "name": "totalAssets",
          "type": "uint256"
        }
      ],
      "name": "Harvest",
      "type": "event"
    },
    {
      "anonymous": false,
      "inputs": [
        {
          "indexed": false,
          "internalType": "uint16",
          "name": "oldLiquidityBufferBIPS",
          "type": "uint16"
        },
        {
          "indexed": false,
          "internalType": "uint16",
          "name": "newLiquidityBufferBIPS",
          "type": "uint16"
        }
      ],
      "name": "LiquidityBufferBIPSChanged",
      "type": "event"
    },
    {
      "anonymous": false,
      "inputs": [
        {
          "indexed": false,
          "internalType": "address",
          "name": "oldDAOAddress",
          "type": "address"
        },
        {
          "indexed": false,
          "internalType": "address",
          "name": "newDAOAddress",
          "type": "address"
        }
      ],
      "name": "NewDAOAddressSetted",
      "type": "event"
    },
    {
      "anonymous": false,
      "inputs": [
        {
          "indexed": false,
          "internalType": "bool",
          "name": "force",
          "type": "bool"
        },
        {
          "indexed": false,
          "internalType": "uint256",
          "name": "currentTotalAssets",
          "type": "uint256"
        },
        {
          "indexed": false,
          "internalType": "uint256",
          "name": "newBuffer",
          "type": "uint256"
        },
        {
          "indexed": false,
          "internalType": "uint256",
          "name": "divestedAmout",
          "type": "uint256"
        },
        {
          "indexed": false,
          "internalType": "uint256",
          "name": "reinvestedAmout",
          "type": "uint256"
        }
      ],
      "name": "Rebalance",
      "type": "event"
    },
    {
      "anonymous": false,
      "inputs": [
        {
          "components": [
            {
              "internalType": "contract IAdapter",
              "name": "adapter",
              "type": "address"
            },
            {
              "internalType": "uint16",
              "name": "repartitionBIPS",
              "type": "uint16"
            },
            {
              "internalType": "uint16",
              "name": "deltaBIPS",
              "type": "uint16"
            }
          ],
          "indexed": false,
          "internalType": "struct VaultPrudentGlUSDP.Strategy[]",
          "name": "newStrategies",
          "type": "tuple[]"
        }
      ],
      "name": "StrategiesChanged",
      "type": "event"
    },
    {
      "anonymous": false,
      "inputs": [
        {
          "indexed": false,
          "internalType": "uint256",
          "name": "totalAssets",
          "type": "uint256"
        }
      ],
      "name": "TotalAssetsChanged",
      "type": "event"
    },
    {
      "anonymous": false,
      "inputs": [
        {
          "indexed": true,
          "internalType": "address",
          "name": "from",
          "type": "address"
        },
        {
          "indexed": true,
          "internalType": "address",
          "name": "to",
          "type": "address"
        },
        {
          "indexed": false,
          "internalType": "uint256",
          "name": "value",
          "type": "uint256"
        }
      ],
      "name": "Transfer",
      "type": "event"
    },
    {
      "anonymous": false,
      "inputs": [
        {
          "indexed": true,
          "internalType": "address",
          "name": "sender",
          "type": "address"
        },
        {
          "indexed": true,
          "internalType": "address",
          "name": "receiver",
          "type": "address"
        },
        {
          "indexed": true,
          "internalType": "address",
          "name": "owner",
          "type": "address"
        },
        {
          "indexed": false,
          "internalType": "uint256",
          "name": "assets",
          "type": "uint256"
        },
        {
          "indexed": false,
          "internalType": "uint256",
          "name": "shares",
          "type": "uint256"
        }
      ],
      "name": "Withdraw",
      "type": "event"
    },
    {
      "inputs": [
        {
          "internalType": "address",
          "name": "owner",
          "type": "address"
        },
        {
          "internalType": "address",
          "name": "spender",
          "type": "address"
        }
      ],
      "name": "allowance",
      "outputs": [
        {
          "internalType": "uint256",
          "name": "",
          "type": "uint256"
        }
      ],
      "stateMutability": "view",
      "type": "function"
    },
    {
      "inputs": [
        {
          "internalType": "address",
          "name": "spender",
          "type": "address"
        },
        {
          "internalType": "uint256",
          "name": "value",
          "type": "uint256"
        }
      ],
      "name": "approve",
      "outputs": [
        {
          "internalType": "bool",
          "name": "",
          "type": "bool"
        }
      ],
      "stateMutability": "nonpayable",
      "type": "function"
    },
    {
      "inputs": [],
      "name": "asset",
      "outputs": [
        {
          "internalType": "address",
          "name": "",
          "type": "address"
        }
      ],
      "stateMutability": "view",
      "type": "function"
    },
    {
      "inputs": [
        {
          "internalType": "address",
          "name": "account",
          "type": "address"
        }
      ],
      "name": "balanceOf",
      "outputs": [
        {
          "internalType": "uint256",
          "name": "",
          "type": "uint256"
        }
      ],
      "stateMutability": "view",
      "type": "function"
    },
    {
      "inputs": [],
      "name": "confirmNewDAOAddress",
      "outputs": [],
      "stateMutability": "nonpayable",
      "type": "function"
    },
    {
      "inputs": [
        {
          "internalType": "uint256",
          "name": "shares",
          "type": "uint256"
        }
      ],
      "name": "convertToAssets",
      "outputs": [
        {
          "internalType": "uint256",
          "name": "",
          "type": "uint256"
        }
      ],
      "stateMutability": "view",
      "type": "function"
    },
    {
      "inputs": [
        {
          "internalType": "uint256",
          "name": "assets",
          "type": "uint256"
        }
      ],
      "name": "convertToShares",
      "outputs": [
        {
          "internalType": "uint256",
          "name": "",
          "type": "uint256"
        }
      ],
      "stateMutability": "view",
      "type": "function"
    },
    {
      "inputs": [],
      "name": "daoAddress",
      "outputs": [
        {
          "internalType": "address",
          "name": "",
          "type": "address"
        }
      ],
      "stateMutability": "view",
      "type": "function"
    },
    {
      "inputs": [],
      "name": "decimals",
      "outputs": [
        {
          "internalType": "uint8",
          "name": "",
          "type": "uint8"
        }
      ],
      "stateMutability": "view",
      "type": "function"
    },
    {
      "inputs": [
        {
          "components": [
            {
              "internalType": "contract IAdapter",
              "name": "adapter",
              "type": "address"
            },
            {
              "internalType": "uint16",
              "name": "repartitionBIPS",
              "type": "uint16"
            },
            {
              "internalType": "uint16",
              "name": "deltaBIPS",
              "type": "uint16"
            }
          ],
          "internalType": "struct VaultPrudentGlUSDP.Strategy[]",
          "name": "_newStrategies",
          "type": "tuple[]"
        }
      ],
      "name": "defineStrategies",
      "outputs": [],
      "stateMutability": "nonpayable",
      "type": "function"
    },
    {
      "inputs": [
        {
          "internalType": "uint256",
          "name": "assetAmount",
          "type": "uint256"
        },
        {
          "internalType": "address",
          "name": "receiver",
          "type": "address"
        }
      ],
      "name": "deposit",
      "outputs": [
        {
          "internalType": "uint256",
          "name": "glUSDP",
          "type": "uint256"
        }
      ],
      "stateMutability": "nonpayable",
      "type": "function"
    },
    {
      "inputs": [],
      "name": "feesBIPS",
      "outputs": [
        {
          "internalType": "uint16",
          "name": "",
          "type": "uint16"
        }
      ],
      "stateMutability": "view",
      "type": "function"
    },
    {
      "inputs": [],
      "name": "forceRebalance",
      "outputs": [],
      "stateMutability": "nonpayable",
      "type": "function"
    },
    {
      "inputs": [],
      "name": "getBufferTotalAssets",
      "outputs": [
        {
          "internalType": "uint256",
          "name": "bufferTotalAssets",
          "type": "uint256"
        }
      ],
      "stateMutability": "view",
      "type": "function"
    },
    {
      "inputs": [],
      "name": "harvest",
      "outputs": [],
      "stateMutability": "nonpayable",
      "type": "function"
    },
    {
      "inputs": [],
      "name": "lastTotalAssets",
      "outputs": [
        {
          "internalType": "uint256",
          "name": "",
          "type": "uint256"
        }
      ],
      "stateMutability": "view",
      "type": "function"
    },
    {
      "inputs": [],
      "name": "liquidityBufferBIPS",
      "outputs": [
        {
          "internalType": "uint16",
          "name": "",
          "type": "uint16"
        }
      ],
      "stateMutability": "view",
      "type": "function"
    },
    {
      "inputs": [
        {
          "internalType": "address",
          "name": "",
          "type": "address"
        }
      ],
      "name": "maxDeposit",
      "outputs": [
        {
          "internalType": "uint256",
          "name": "",
          "type": "uint256"
        }
      ],
      "stateMutability": "view",
      "type": "function"
    },
    {
      "inputs": [
        {
          "internalType": "address",
          "name": "",
          "type": "address"
        }
      ],
      "name": "maxMint",
      "outputs": [
        {
          "internalType": "uint256",
          "name": "",
          "type": "uint256"
        }
      ],
      "stateMutability": "view",
      "type": "function"
    },
    {
      "inputs": [
        {
          "internalType": "address",
          "name": "owner",
          "type": "address"
        }
      ],
      "name": "maxRedeem",
      "outputs": [
        {
          "internalType": "uint256",
          "name": "",
          "type": "uint256"
        }
      ],
      "stateMutability": "view",
      "type": "function"
    },
    {
      "inputs": [
        {
          "internalType": "address",
          "name": "owner",
          "type": "address"
        }
      ],
      "name": "maxWithdraw",
      "outputs": [
        {
          "internalType": "uint256",
          "name": "",
          "type": "uint256"
        }
      ],
      "stateMutability": "view",
      "type": "function"
    },
    {
      "inputs": [
        {
          "internalType": "uint256",
          "name": "shares",
          "type": "uint256"
        },
        {
          "internalType": "address",
          "name": "receiver",
          "type": "address"
        }
      ],
      "name": "mint",
      "outputs": [
        {
          "internalType": "uint256",
          "name": "",
          "type": "uint256"
        }
      ],
      "stateMutability": "nonpayable",
      "type": "function"
    },
    {
      "inputs": [],
      "name": "name",
      "outputs": [
        {
          "internalType": "string",
          "name": "",
          "type": "string"
        }
      ],
      "stateMutability": "view",
      "type": "function"
    },
    {
      "inputs": [],
      "name": "newDaoAddress",
      "outputs": [
        {
          "internalType": "address",
          "name": "",
          "type": "address"
        }
      ],
      "stateMutability": "view",
      "type": "function"
    },
    {
      "inputs": [
        {
          "internalType": "uint256",
          "name": "assets",
          "type": "uint256"
        }
      ],
      "name": "previewDeposit",
      "outputs": [
        {
          "internalType": "uint256",
          "name": "",
          "type": "uint256"
        }
      ],
      "stateMutability": "view",
      "type": "function"
    },
    {
      "inputs": [
        {
          "internalType": "uint256",
          "name": "shares",
          "type": "uint256"
        }
      ],
      "name": "previewMint",
      "outputs": [
        {
          "internalType": "uint256",
          "name": "",
          "type": "uint256"
        }
      ],
      "stateMutability": "view",
      "type": "function"
    },
    {
      "inputs": [
        {
          "internalType": "uint256",
          "name": "shares",
          "type": "uint256"
        }
      ],
      "name": "previewRedeem",
      "outputs": [
        {
          "internalType": "uint256",
          "name": "",
          "type": "uint256"
        }
      ],
      "stateMutability": "view",
      "type": "function"
    },
    {
      "inputs": [
        {
          "internalType": "uint256",
          "name": "assets",
          "type": "uint256"
        }
      ],
      "name": "previewWithdraw",
      "outputs": [
        {
          "internalType": "uint256",
          "name": "",
          "type": "uint256"
        }
      ],
      "stateMutability": "view",
      "type": "function"
    },
    {
      "inputs": [
        {
          "internalType": "uint256",
          "name": "shares",
          "type": "uint256"
        },
        {
          "internalType": "address",
          "name": "receiver",
          "type": "address"
        },
        {
          "internalType": "address",
          "name": "owner",
          "type": "address"
        }
      ],
      "name": "redeem",
      "outputs": [
        {
          "internalType": "uint256",
          "name": "",
          "type": "uint256"
        }
      ],
      "stateMutability": "nonpayable",
      "type": "function"
    },
    {
      "inputs": [
        {
          "internalType": "address",
          "name": "_daoAddress",
          "type": "address"
        }
      ],
      "name": "setDAOAddress",
      "outputs": [],
      "stateMutability": "nonpayable",
      "type": "function"
    },
    {
      "inputs": [
        {
          "internalType": "uint16",
          "name": "_feesBIPS",
          "type": "uint16"
        }
      ],
      "name": "setFeesBIPS",
      "outputs": [],
      "stateMutability": "nonpayable",
      "type": "function"
    },
    {
      "inputs": [
        {
          "internalType": "uint16",
          "name": "_liquidityBufferBIPS",
          "type": "uint16"
        }
      ],
      "name": "setLiquidityBufferBIPS",
      "outputs": [],
      "stateMutability": "nonpayable",
      "type": "function"
    },
    {
      "inputs": [
        {
          "internalType": "uint256",
          "name": "",
          "type": "uint256"
        }
      ],
      "name": "strategies",
      "outputs": [
        {
          "internalType": "contract IAdapter",
          "name": "adapter",
          "type": "address"
        },
        {
          "internalType": "uint16",
          "name": "repartitionBIPS",
          "type": "uint16"
        },
        {
          "internalType": "uint16",
          "name": "deltaBIPS",
          "type": "uint16"
        }
      ],
      "stateMutability": "view",
      "type": "function"
    },
    {
      "inputs": [],
      "name": "symbol",
      "outputs": [
        {
          "internalType": "string",
          "name": "",
          "type": "string"
        }
      ],
      "stateMutability": "view",
      "type": "function"
    },
    {
      "inputs": [],
      "name": "totalAssets",
      "outputs": [
        {
          "internalType": "uint256",
          "name": "totalAsset",
          "type": "uint256"
        }
      ],
      "stateMutability": "view",
      "type": "function"
    },
    {
      "inputs": [],
      "name": "totalSupply",
      "outputs": [
        {
          "internalType": "uint256",
          "name": "",
          "type": "uint256"
        }
      ],
      "stateMutability": "view",
      "type": "function"
    },
    {
      "inputs": [
        {
          "internalType": "address",
          "name": "to",
          "type": "address"
        },
        {
          "internalType": "uint256",
          "name": "value",
          "type": "uint256"
        }
      ],
      "name": "transfer",
      "outputs": [
        {
          "internalType": "bool",
          "name": "",
          "type": "bool"
        }
      ],
      "stateMutability": "nonpayable",
      "type": "function"
    },
    {
      "inputs": [
        {
          "internalType": "address",
          "name": "from",
          "type": "address"
        },
        {
          "internalType": "address",
          "name": "to",
          "type": "address"
        },
        {
          "internalType": "uint256",
          "name": "value",
          "type": "uint256"
        }
      ],
      "name": "transferFrom",
      "outputs": [
        {
          "internalType": "bool",
          "name": "",
          "type": "bool"
        }
      ],
      "stateMutability": "nonpayable",
      "type": "function"
    },
    {
      "inputs": [
        {
          "internalType": "uint256",
          "name": "assetAmount",
          "type": "uint256"
        },
        {
          "internalType": "address",
          "name": "receiver",
          "type": "address"
        },
        {
          "internalType": "address",
          "name": "owner",
          "type": "address"
        }
      ],
      "name": "withdraw",
      "outputs": [
        {
          "internalType": "uint256",
          "name": "assets",
          "type": "uint256"
        }
      ],
      "stateMutability": "nonpayable",
      "type": "function"
    }
  ],
  "bytecode": "0x60c080604052346104ff57608081612b64803803809161001f8285610503565b8339810103126104ff578051906001600160a01b0382168083036104ff576020820151926001600160a01b038416908185036104ff5761006d606061006660408701610526565b9501610526565b9260405161007c604082610503565b600c81526b11db1bddc8141c9d59195b9d60a21b6020820152604051906100a4604083610503565b60078252660676c5553442d560cc1b60208301528051906001600160401b0382116104025760035490600182811c921680156104f5575b60208310146103e45781601f849311610487575b50602090601f8311600114610421575f92610416575b50508160011b915f199060031b1c1916176003555b8051906001600160401b0382116104025760045490600182811c921680156103f8575b60208310146103e45781601f849311610376575b50602090601f8311600114610310575f92610305575b50508160011b915f199060031b1c1916176004555b60405f8151926020840163313ce56760e01b81526004855261019f602486610503565b8451915afa5f5191604052806102fa575b806102ef575b156102e75760ff1660015b156102df575b60a05260805260017f9b779b17422d0df92223018b32b4d1fa46e071723d6817e2486d003becc55f005580156102c9575061021461ffff831692612710841115806102c1575b3390610535565b61271061ffff8216111581816102b8575b610230913390610535565b63ffff00006006549160101b1692640100000000600160c01b039060201b169060018060c01b0319161717176006556040516126029081610562823960805181818161036e015281816106ab01528181610aec01528181610be8015281816111ec0152818161193001528181611d450152818161225001526123b5015260a051816119730152f35b60019150610225565b50600161020d565b6347f28b9f60e11b5f523360045260245260445ffd5b5060126101c7565b505f806101c1565b5060ff8111156101b6565b5060203d10156101b0565b015190505f80610167565b60045f9081528281209350601f198516905b81811061035e5750908460019594939210610346575b505050811b0160045561017c565b01515f1960f88460031b161c191690555f8080610338565b92936020600181928786015181550195019301610322565b60045f529091507f8a35acfbc15ff81a39ae7d344fd709f28e8600b4aa8c65c6b64bfe7fe36bd19b601f840160051c810191602085106103da575b90601f859493920160051c01905b8181106103cc5750610151565b5f81558493506001016103bf565b90915081906103b1565b634e487b7160e01b5f52602260045260245ffd5b91607f169161013d565b634e487b7160e01b5f52604160045260245ffd5b015190505f80610105565b60035f9081528281209350601f198516905b81811061046f5750908460019594939210610457575b505050811b0160035561011a565b01515f1960f88460031b161c191690555f8080610449565b92936020600181928786015181550195019301610433565b60035f529091507fc2575a0e9e593c00f959f8c92f12db2869c3395a3b0502d05e2516446f71f85b601f840160051c810191602085106104eb575b90601f859493920160051c01905b8181106104dd57506100ef565b5f81558493506001016104d0565b90915081906104c2565b91607f16916100db565b5f80fd5b601f909101601f19168101906001600160401b0382119082101761040257604052565b519061ffff821682036104ff57565b1561053e575050565b61ffff9250637f92c48560e01b5f5260018060a01b03166004521660245260445ffdfe60806040526004361015610011575f80fd5b5f3560e01c806301e1d11414611ba457806306fdde0314611ae957806307a2d13a146110bf578063095ea7b314611a415780630a28a47714611a2357806318160ddd14611a065780632131c68c146119de57806323b872dd146119a6578063313ce5671461195f57806338d52e0f1461191b578063392a3917146114b1578063402d267d146104f75780634641257d146110ec5780634947faba146110c45780634cdad506146110bf578063568efc07146110a25780636e553f651461103a57806370a082311461043e57806394bf804d1461100757806395d89b4114610f03578063965afa8914610e40578063a9059cbb14610e0f578063a927baa714610dee578063ab7a578814610a3d578063b3d7f6b914610a1f578063b460af9414610633578063ba087652146105c7578063c055f3bc146105a3578063c3d437ad146104fc578063c63d75b6146104f7578063c6e6f592146101c6578063ce96cb77146104d1578063d574ea3d1461047e578063d905777e1461043e578063dd62ed3e146103ee578063e6d7f26e14610343578063ea22a06f1461028e578063ed2b9dfc146101cb5763ef8b30f7146101c6575f80fd5b611cb1565b3461028a57602036600319011261028a577fa03594e9ac29d2f2d4931874177584688bfd84552d933c559bc887962f1061e161ffff610208611c91565b6006549061027c9061022933602085901c6001600160a01b03168114611e44565b61271084821611158181610281575b610243913390611ecc565b63ffff00008160101b1663ffff00001984161760065560405193849360101c168390929161ffff60209181604085019616845216910152565b0390a1005b60019150610238565b5f80fd5b3461028a575f36600319011261028a577fb4ab34de98ada6242f5cfb71d4a6515474eedc6e5e87f6fa39ed9981a72e70cc61027c6008546102e560018060a01b0382168033146102de3382611e44565b3390611e90565b60068054640100000000600160c01b03198116602084811b640100000000600160c01b0316919091179092556001600160a01b03199092166008556040805192821c6001600160a01b03168352339183019190915290918291820190565b3461028a575f36600319011261028a576040516370a0823160e01b81523060048201526020816024817f00000000000000000000000000000000000000000000000000000000000000006001600160a01b03165afa80156103e3575f906103b0575b602090604051908152f35b506020813d6020116103db575b816103ca60209383611cfb565b8101031261028a57602090516103a5565b3d91506103bd565b6040513d5f823e3d90fd5b3461028a57604036600319011261028a57610407611c06565b61040f611c1c565b6001600160a01b039182165f908152600160209081526040808320949093168252928352819020549051908152f35b3461028a57602036600319011261028a57602061047661045c611c06565b6001600160a01b03165f9081526020819052604090205490565b604051908152f35b3461028a57602036600319011261028a5760043560055481101561028a576104a7606091611ccf565b505461ffff6040519160018060a01b0381168352818160a01c16602084015260b01c166040820152f35b3461028a57602036600319011261028a5760206104766104f261045c611c06565b611f36565b611c32565b3461028a57602036600319011261028a577fdf0240b3a7b5875029d5ecbd6051a27ea37e65c573ff4695a4f33dd81f82d70b61ffff610539611c91565b6006549061027c9061055a33602085901c6001600160a01b03168114611e44565b808416612710811115828161059a575b610575913390611ecc565b84198416176006556040805161ffff9490951684168552921660208401528291820190565b6001915061056a565b3461028a575f36600319011261028a57602061ffff60065460101c16604051908152f35b3461028a576105d536611c57565b90916105f18260018060a01b03165f525f60205260405f205490565b80821161061257508060209361060961047693611f36565b93849133612310565b91632e52afbb60e21b5f5260018060a01b031660045260245260445260645ffd5b3461028a5761064136611c57565b909161064b6121c5565b80156109945761066783336001600160a01b0382161515611e90565b6001600160a01b03821661067e8333831515611e90565b610686611d2a565b8211610690611d2a565b90610a0957506040516370a0823160e01b81523060048201527f00000000000000000000000000000000000000000000000000000000000000006001600160a01b031690602081602481855afa9081156103e3575f916109d7575b50831161078c575b506001600160a01b0383165f9081526020819052604090205461071590611f36565b9081831161077257602084610737878661072e81611f63565b93849233612310565b61074381600754611ef8565b60075560017f9b779b17422d0df92223018b32b4d1fa46e071723d6817e2486d003becc55f0055604051908152f35b8290633fa733bb60e21b5f5260045260245260445260645ffd5b602060249160409694959651928380926370a0823160e01b82523060048301525afa80156103e3575f906109a3575b6107c6915084611ef8565b9182156109945782945f5b600554808210156109655787156109225760049060206107f084611ccf565b5054604051633880f6ff60e21b815293849182906001600160a01b03165afa9182156103e3575f926108ef575b505f1981019081116108db5782036108b35780881081891802185b80610847575b506001016107d1565b909661085288611ccf565b50546001600160a01b031691823b1561028a575f8093602460405180968193638ca1799560e01b83528660048401525af19182156103e35760019361089c936108a3575b50611ef8565b969061083e565b5f6108ad91611cfb565b8a610896565b6108ce61ffff6108c284611ccf565b505460a01c168761211e565b8180821091180218610838565b634e487b7160e01b5f52601160045260245ffd5b9091506020813d821161091a575b8161090a60209383611cfb565b8101031261028a5751908961081d565b3d91506108fd565b505093926060907fd7e294d36ad239ebbaf1a8c83ee64dc6fcfc1ce48ecf822cbea7133c4a96b9d192965b6040519186835260208301526040820152a1846106f3565b505093926060907fd7e294d36ad239ebbaf1a8c83ee64dc6fcfc1ce48ecf822cbea7133c4a96b9d1929661094d565b637654b1c960e11b5f5260045ffd5b506020813d6020116109cf575b816109bd60209383611cfb565b8101031261028a576107c690516107bb565b3d91506109b0565b90506020813d602011610a01575b816109f260209383611cfb565b8101031261028a5751866106eb565b3d91506109e5565b82630a1b4b6f60e31b5f5260045260245260445ffd5b3461028a57602036600319011261028a576020610476600435611f05565b3461028a575f36600319011261028a57600654610a6990339060201c6001600160a01b03168114611e44565b610a71611d2a565b610a8d610a8761ffff60065460101c168361211e565b82611ef8565b90600554610a9a81612199565b610aa76040519182611cfb565b818152601f19610ab683612199565b013660208301375f9182805b828110610c815750610b9c575b50506040516370a0823160e01b81523060048201526020816024817f00000000000000000000000000000000000000000000000000000000000000006001600160a01b03165afa9081156103e3575f91610b57575b5f5160206125ad5f395f51905f5260a08585888660405193600185526020850152604084015260608301526080820152a1005b929190506020833d602011610b94575b81610b7460209383611cfb565b8101031261028a5791519091905f5160206125ad5f395f51905f52610b24565b3d9150610b67565b5f5b818110610bab5750610acf565b610bb581846121b1565b51610bc3575b600101610b9e565b610c15610bcf82611ccf565b50546001600160a01b0316610be483866121b1565b51907f00000000000000000000000000000000000000000000000000000000000000006001600160a01b0316612495565b610c1e81611ccf565b50546001600160a01b031690610c3481856121b1565b51823b1561028a575f926024849260405195869384926255f9e960e71b845260048401525af19182156103e357600192610c71575b509050610bbb565b5f610c7b91611cfb565b87610c69565b806020610c8f600493611ccf565b5054604051633880f6ff60e21b815293849182906001600160a01b03165afa9182156103e3575f92610dbb575b50610cd861ffff610ccc83611ccf565b505460a01c168961211e565b610cf361ffff610ce784611ccf565b505460b01c168a61211e565b610cfd8183611d1d565b841115610d705750610d2390610d1283611ccf565b50546001600160a01b031693611ef8565b823b1561028a575f92602484926040519586938492638ca1799560e01b845260048401525af19182156103e357600192610d60575b505b01610ac2565b5f610d6a91611cfb565b88610d58565b90610d7e8492829695611d1d565b10610d8f575b506001919250610d5a565b60019250610da1610da8918495611ef8565b8097611d1d565b95610db382876121b1565b528291610d84565b9091506020813d8211610de6575b81610dd660209383611cfb565b8101031261028a57519088610cbc565b3d9150610dc9565b3461028a575f36600319011261028a57602061ffff60065416604051908152f35b3461028a57604036600319011261028a57610e35610e2b611c06565b6024359033612061565b602060405160018152f35b3461028a57602036600319011261028a577f12b2db855162efe53e954d4ce5ed59775cc6f4ed8207675be314aa8c490514a0610e7a611c06565b60065460201c6001600160a01b0316610e9533808314611e44565b6001600160a01b03821691610eb99083151580610ef9575b80610eef573390611e90565b600880546001600160a01b03191683179055604080516001600160a01b039283168152919092166020820152908190810161027c565b50308414156102de565b5082841415610ead565b3461028a575f36600319011261028a576040515f6004548060011c90600181168015610ffd575b602083108114610fe957828552908115610fc55750600114610f67575b610f6383610f5781850382611cfb565b60405191829182611bbe565b0390f35b91905060045f527f8a35acfbc15ff81a39ae7d344fd709f28e8600b4aa8c65c6b64bfe7fe36bd19b915f905b808210610fab57509091508101602001610f57610f47565b919260018160209254838588010152019101909291610f93565b60ff191660208086019190915291151560051b84019091019150610f579050610f47565b634e487b7160e01b5f52602260045260245ffd5b91607f1691610f2a565b3461028a57604036600319011261028a576020600435610476611028611c1c565b9161103281611f05565b809333612223565b3461028a57604036600319011261028a57600435611056611c1c565b9061105f6121c5565b80156109945760209161074390829061109a9061108881336001600160a01b0382161515611e90565b61109183611f91565b94859133612223565b600754611d1d565b3461028a575f36600319011261028a576020600754604051908152f35b611be8565b3461028a575f36600319011261028a576008546040516001600160a01b039091168152602090f35b3461028a575f36600319011261028a57600654602081901c6001600160a01b0316907f243f485011fbdc7e8b98333fcacc9182c3142988b75c6a46fafdf874caa88f6a9060809061113f33808614611e44565b611147611d2a565b935f915f905f92600754808911611477575b5050508560075560405192835260208301526040820152836060820152a161118d610a8761ffff60065460101c168361211e565b9060055461119a81612199565b6111a76040519182611cfb565b818152601f196111b683612199565b013660208301375f9182805b82811061133a575061129b575b50506040516370a0823160e01b81523060048201526020816024817f00000000000000000000000000000000000000000000000000000000000000006001600160a01b03165afa9081156103e3575f91611256575b5f5160206125ad5f395f51905f5260a085858886604051935f85526020850152604084015260608301526080820152a1005b929190506020833d602011611293575b8161127360209383611cfb565b8101031261028a5791519091905f5160206125ad5f395f51905f52611224565b3d9150611266565b5f5b8181106112aa57506111cf565b6112b481846121b1565b516112c2575b60010161129d565b6112ce610bcf82611ccf565b6112d781611ccf565b50546001600160a01b0316906112ed81856121b1565b51823b1561028a575f926024849260405195869384926255f9e960e71b845260048401525af19182156103e35760019261132a575b5090506112ba565b5f61133491611cfb565b87611322565b806020611348600493611ccf565b5054604051633880f6ff60e21b815293849182906001600160a01b03165afa9182156103e3575f92611444575b5061138561ffff610ccc83611ccf565b61139461ffff610ce784611ccf565b61139e8183611d1d565b84111561140057506113b390610d1283611ccf565b823b1561028a575f92602484926040519586938492638ca1799560e01b845260048401525af19182156103e3576001926113f0575b505b016111c2565b5f6113fa91611cfb565b886113e8565b9061140e8492829695611d1d565b1061141f575b5060019192506113ea565b60019250610da1611431918495611ef8565b9561143c82876121b1565b528291611414565b9091506020813d821161146f575b8161145f60209383611cfb565b8101031261028a57519088611375565b3d9150611452565b61ffff92955061148e919450611496935088611ef8565b93168361211e565b6114a96114a282611f91565b809361213c565b868080611159565b3461028a57602036600319011261028a5760043567ffffffffffffffff811161028a573660238201121561028a57806004013567ffffffffffffffff811161028a576024820191602436916060840201011161028a5760065461152390339060201c6001600160a01b03168114611e44565b801561190c575f805b82821061171c5761154791503361271061ffff831614611ecc565b68010000000000000000811161170857600554816005558082106116aa575b508160055f527f036b6384b5eca791c62761152d0c79bb0604c104a5fb6f4eb0703f3154bb3db0905f905b8382106116355750505060405190806020830160208452526040820192905f905b8082106115e1577ff03f27b120f22a322a2739013fae7420a3e13bcd29094abd0fd913746b5de90984860385a1005b90919384359060018060a01b03821680920361028a5760608160019382935261ffff61160f60208a01611ca2565b16602082015261ffff61162460408a01611ca2565b1660408201520195019201906115b2565b60019081906060906001600160a01b0361164e82611e7c565b87546001600160a01b031916911617865561166b60208201611ebd565b865461ffff60b01b61167f60408501611ebd565b60b01b169161ffff60a01b9060a01b169063ffffffff60a01b19161717865501930191019091611591565b7f036b6384b5eca791c62761152d0c79bb0604c104a5fb6f4eb0703f3154bb3db001817f036b6384b5eca791c62761152d0c79bb0604c104a5fb6f4eb0703f3154bb3db0015b8181106116fd5750611566565b5f81556001016116f0565b634e487b7160e01b5f52604160045260245ffd5b602460206001600160a01b0361173b61173686888a611e6c565b611e7c565b6040516301ffc9a760e01b81526322d0cfa760e11b600482015293849290918391165afa80156103e3575f906118d0575b61179091506001600160a01b0361178761173686888a611e6c565b16903390611e90565b6001600160a01b036117a6611736848688611e6c565b161515806118ab575b6117c9906001600160a01b0361178761173686888a611e6c565b61271061ffff6117e560206117df86888a611e6c565b01611ebd565b1611158061188a575b61180a9061180260206117df86888a611e6c565b903390611ecc565b61271061ffff61182060406117df86888a611e6c565b16111580611869575b61183d9061180260406117df86888a611e6c565b61ffff8061185160206117df86888a611e6c565b1691160161ffff81116108db5760019091019061152c565b5061183d61ffff61188060406117df86888a611e6c565b1615159050611829565b5061180a61ffff6118a160206117df86888a611e6c565b16151590506117ee565b506117c96001600160a01b036118c5611736858789611e6c565b1630141590506117af565b506020813d8211611904575b816118e960209383611cfb565b8101031261028a5751801515810361028a576117909061176c565b3d91506118dc565b63ab395a5960e01b5f5260045ffd5b3461028a575f36600319011261028a576040517f00000000000000000000000000000000000000000000000000000000000000006001600160a01b03168152602090f35b3461028a575f36600319011261028a5760ff7f00000000000000000000000000000000000000000000000000000000000000001660ff81116108db57602090604051908152f35b3461028a57606036600319011261028a57610e356119c2611c06565b6119ca611c1c565b604435916119d9833383611fbe565b612061565b3461028a575f36600319011261028a57600654604051602091821c6001600160a01b03168152f35b3461028a575f36600319011261028a576020600254604051908152f35b3461028a57602036600319011261028a576020610476600435611f63565b3461028a57604036600319011261028a57611a5a611c06565b602435903315611ad6576001600160a01b0316908115611ac357335f52600160205260405f20825f526020528060405f20556040519081527f8c5be1e5ebec7d5bd14f71427d1e84f3dd0314c0f7b2291e5b200ac8c7c3b92560203392a3602060405160018152f35b634a1406b160e11b5f525f60045260245ffd5b63e602df0560e01b5f525f60045260245ffd5b3461028a575f36600319011261028a576040515f6003548060011c90600181168015611b9a575b602083108114610fe957828552908115610fc55750600114611b3c57610f6383610f5781850382611cfb565b91905060035f527fc2575a0e9e593c00f959f8c92f12db2869c3395a3b0502d05e2516446f71f85b915f905b808210611b8057509091508101602001610f57610f47565b919260018160209254838588010152019101909291611b68565b91607f1691611b10565b3461028a575f36600319011261028a576020610476611d2a565b602060409281835280519182918282860152018484015e5f828201840152601f01601f1916010190565b3461028a57602036600319011261028a576020610476600435611f36565b600435906001600160a01b038216820361028a57565b602435906001600160a01b038216820361028a57565b3461028a57602036600319011261028a57611c4b611c06565b5060206040515f198152f35b606090600319011261028a57600435906024356001600160a01b038116810361028a57906044356001600160a01b038116810361028a5790565b6004359061ffff8216820361028a57565b359061ffff8216820361028a57565b3461028a57602036600319011261028a576020610476600435611f91565b600554811015611ce75760055f5260205f2001905f90565b634e487b7160e01b5f52603260045260245ffd5b90601f8019910116810190811067ffffffffffffffff82111761170857604052565b919082018092116108db57565b6040516370a0823160e01b81523060048201526020816024817f00000000000000000000000000000000000000000000000000000000000000006001600160a01b03165afa9081156103e3575f91611e12575b505f6005545b808210611d8f57505090565b909160046020611d9e85611ccf565b5054604051633880f6ff60e21b815292839182906001600160a01b03165afa9081156103e3575f91611de0575b50611dd890600192611d1d565b920190611d83565b90506020813d8211611e0a575b81611dfa60209383611cfb565b8101031261028a57516001611dcb565b3d9150611ded565b90506020813d602011611e3c575b81611e2d60209383611cfb565b8101031261028a57515f611d7d565b3d9150611e20565b15611e4c5750565b637a612c2b60e01b5f9081526001600160a01b0391909116600452602490fd5b9190811015611ce7576060020190565b356001600160a01b038116810361028a5790565b15611e99575050565b6347f28b9f60e11b5f9081526001600160a01b039182166004529116602452604490fd5b3561ffff8116810361028a5790565b15611ed5575050565b61ffff9250637f92c48560e01b5f5260018060a01b03166004521660245260445ffd5b919082039182116108db57565b611f0d611d2a565b90600182018092116108db57600254600181018091116108db57611f3392600192612423565b90565b611f3e611d2a565b90600182018092116108db57600254600181018091116108db57611f33925f92612423565b60025490600182018092116108db57611f7a611d2a565b600181018091116108db57611f3392600192612423565b60025490600182018092116108db57611fa8611d2a565b600181018091116108db57611f33925f92612423565b6001600160a01b039081165f818152600160209081526040808320948616835293905291909120549291905f198410611ff8575b50505050565b82841061203e578015611ad6576001600160a01b03821615611ac3575f52600160205260405f209060018060a01b03165f5260205260405f20910390555f808080611ff2565b508290637dc7a0d960e11b5f5260018060a01b031660045260245260445260645ffd5b6001600160a01b031690811561210b576001600160a01b03169182156120f857815f525f60205260405f20548181106120df57817fddf252ad1be2c89b69c2b068fc378daa952ba7f163c4a11628f55a4df523b3ef92602092855f525f84520360405f2055845f525f825260405f20818154019055604051908152a3565b8263391434e360e21b5f5260045260245260445260645ffd5b63ec442f0560e01b5f525f60045260245ffd5b634b637e8f60e11b5f525f60045260245ffd5b9061ffff16908181029181830414901517156108db57612710900490565b6001600160a01b03169081156120f8577fddf252ad1be2c89b69c2b068fc378daa952ba7f163c4a11628f55a4df523b3ef60208261217d5f94600254611d1d565b60025584845283825260408420818154019055604051908152a3565b67ffffffffffffffff81116117085760051b60200190565b8051821015611ce75760209160051b010190565b60027f9b779b17422d0df92223018b32b4d1fa46e071723d6817e2486d003becc55f0054146122145760027f9b779b17422d0df92223018b32b4d1fa46e071723d6817e2486d003becc55f0055565b633ee5aeb560e01b5f5260045ffd5b6040516323b872dd60e01b5f9081526001600160a01b0392831660048190523060245260448690529495927f000000000000000000000000000000000000000000000000000000000000000016919060209060648180865af19060015f51148216156122ef575b6040525f606052156122dd575081816122c66040937fdcbc1c05240f31ff3ad067ef1ee35ce4997762752e3a095284754544f4c709d79561213c565b825195865260208601526001600160a01b031693a3565b635274afe760e01b5f5260045260245ffd5b90600181151661230757823b15153d1516169061228a565b503d5f823e3d90fd5b6001600160a01b03808416959082169390918290878603612412575b505050841561210b57845f525f60205260405f20548181106123f95791816040927ffbde797d201c681b91056529119e0b02407c7bb96a4a2c75c01fc9667232c8db94885f525f60205203835f205580600254036002555f877fddf252ad1be2c89b69c2b068fc378daa952ba7f163c4a11628f55a4df523b3ef60208651858152a36123e286837f00000000000000000000000000000000000000000000000000000000000000006001600160a01b0316612495565b825195865260208601526001600160a01b031693a4565b8563391434e360e21b5f5260045260245260445260645ffd5b61241b92611fbe565b5f818161232c565b929161243081838661250d565b926004811015612481576001809116149182612456575b5050611f339250151590611d1d565b908092501561246d57611f33930915155f80612447565b634e487b7160e01b5f52601260045260245ffd5b634e487b7160e01b5f52602160045260245ffd5b916040519163a9059cbb60e01b5f5260018060a01b031660045260245260205f60448180865af19060015f51148216156124f5575b604052156124d55750565b635274afe760e01b5f9081526001600160a01b0391909116600452602490fd5b90600181151661230757823b15153d151616906124ca565b90915f19838309928083029283808610950394808603951461259e57848311156125865790829109815f0382168092046002816003021880820260020302808202600203028082026002030280820260020302808202600203028091026002030293600183805f03040190848311900302920304170290565b82634e487b715f52156003026011186020526024601cfd5b50509150811561246d57049056fe414ecc12bda3f7926ad966fc1a837cbb292b81fc6bb4a378183b6341ed22c3a0a264697066735822122090a9cc458eef3ed3c9cfbca40b9d9b6e3a989d18eabbdab4bf842041cf94f11a64736f6c634300081c0033",
  "linkReferences": {},
  "deployedLinkReferences": {},
  "immutableReferences": {
    "1016": [
      {
        "length": 32,
        "start": 878
      },
      {
        "length": 32,
        "start": 1707
      },
      {
        "length": 32,
        "start": 2796
      },
      {
        "length": 32,
        "start": 3048
      },
      {
        "length": 32,
        "start": 4588
      },
      {
        "length": 32,
        "start": 6448
      },
      {
        "length": 32,
        "start": 7493
      },
      {
        "length": 32,
        "start": 8784
      },
      {
        "length": 32,
        "start": 9141
      }
    ],
    "1018": [
      {
        "length": 32,
        "start": 6515
      }
    ]
  },
  "inputSourceName": "project/contracts/vaults/VaultPrudentGlUSDP.sol",
  "buildInfoId": "solc-0_8_28-b0d609d188919379d1ea40f232d633e78d4d4770"
}