{
  "_format": "hh3-artifact-1",
  "contractName": "AaveAdapterUSDC",
  "sourceName": "contracts/adapters/AaveAdapterUSDC.sol",
  "abi": [
    {
      "inputs": [
        {
          "internalType": "address",
          "name": "_usdc",
          "type": "address"
        },
        {
          "internalType": "address",
          "name": "_aUSDC",
          "type": "address"
        },
        {
          "internalType": "address",
          "name": "_aavePool",
          "type": "address"
        },
        {
          "internalType": "address",
          "name": "_vault",
          "type": "address"
        }
      ],
      "stateMutability": "nonpayable",
      "type": "constructor"
    },
    {
      "inputs": [
        {
          "internalType": "address",
          "name": "sender",
          "type": "address"
        }
      ],
      "name": "NotVault",
      "type": "error"
    },
    {
      "inputs": [
        {
          "internalType": "address",
          "name": "token",
          "type": "address"
        }
      ],
      "name": "SafeERC20FailedOperation",
      "type": "error"
    },
    {
      "anonymous": false,
      "inputs": [
        {
          "indexed": true,
          "internalType": "address",
          "name": "user",
          "type": "address"
        },
        {
          "indexed": false,
          "internalType": "uint256",
          "name": "assets",
          "type": "uint256"
        }
      ],
      "name": "Divest",
      "type": "event"
    },
    {
      "anonymous": false,
      "inputs": [
        {
          "indexed": true,
          "internalType": "address",
          "name": "user",
          "type": "address"
        },
        {
          "indexed": false,
          "internalType": "uint256",
          "name": "assets",
          "type": "uint256"
        }
      ],
      "name": "Invest",
      "type": "event"
    },
    {
      "inputs": [],
      "name": "aUSDC",
      "outputs": [
        {
          "internalType": "contract IERC20",
          "name": "",
          "type": "address"
        }
      ],
      "stateMutability": "view",
      "type": "function"
    },
    {
      "inputs": [],
      "name": "aavePool",
      "outputs": [
        {
          "internalType": "contract IPool",
          "name": "",
          "type": "address"
        }
      ],
      "stateMutability": "view",
      "type": "function"
    },
    {
      "inputs": [
        {
          "internalType": "uint256",
          "name": "usdcAmount",
          "type": "uint256"
        }
      ],
      "name": "divest",
      "outputs": [],
      "stateMutability": "nonpayable",
      "type": "function"
    },
    {
      "inputs": [],
      "name": "getInvestedAssets",
      "outputs": [
        {
          "internalType": "uint256",
          "name": "investedAssets",
          "type": "uint256"
        }
      ],
      "stateMutability": "view",
      "type": "function"
    },
    {
      "inputs": [
        {
          "internalType": "uint256",
          "name": "usdcAmount",
          "type": "uint256"
        }
      ],
      "name": "invest",
      "outputs": [],
      "stateMutability": "nonpayable",
      "type": "function"
    },
    {
      "inputs": [
        {
          "internalType": "bytes4",
          "name": "interfaceId",
          "type": "bytes4"
        }
      ],
      "name": "supportsInterface",
      "outputs": [
        {
          "internalType": "bool",
          "name": "",
          "type": "bool"
        }
      ],
      "stateMutability": "view",
      "type": "function"
    },
    {
      "inputs": [],
      "name": "usdc",
      "outputs": [
        {
          "internalType": "contract IERC20",
          "name": "",
          "type": "address"
        }
      ],
      "stateMutability": "view",
      "type": "function"
    },
    {
      "inputs": [],
      "name": "vault",
      "outputs": [
        {
          "internalType": "address",
          "name": "",
          "type": "address"
        }
      ],
      "stateMutability": "view",
      "type": "function"
    }
  ],
  "bytecode": "0x60803460bc57601f61074238819003918201601f19168301916001600160401b0383118484101760c05780849260809460405283398101031260bc5760428160d4565b90604d6020820160d4565b60616060605b6040850160d4565b930160d4565b5f80546001600160a01b03199081166001600160a01b03968716179091556001805482169386169390931790925560028054831693851693909317909255600380549091169190921617905560405161065a90816100e88239f35b5f80fd5b634e487b7160e01b5f52604160045260245ffd5b51906001600160a01b038216820360bc5756fe6080806040526004361015610012575f80fd5b5f905f3560e01c90816301ffc9a714610527575080632afcf4801461031b5780633e413bee146102f4578063559fda33146102cb5780638ca1799514610163578063a03e4bc31461013a578063e203dbfc146100a15763fbfa77cf14610076575f80fd5b3461009e578060031936011261009e576003546040516001600160a01b039091168152602090f35b80fd5b503461009e578060031936011261009e576001546040516370a0823160e01b81523060048201529190602090839060249082906001600160a01b03165afa90811561012e57906100f7575b602090604051908152f35b506020813d602011610126575b81610111602093836105ee565b8101031261012257602090516100ec565b5f80fd5b3d9150610104565b604051903d90823e3d90fd5b503461009e578060031936011261009e576002546040516001600160a01b039091168152602090f35b503461009e57602036600319011261009e578060043561018f3360018060a01b0360035416331461057a565b61019a8115156105a2565b6002548254604051631a4ca37b60e21b81526001600160a01b0391821660048201526024810184905230604482015293602092859260649284929091165af19182156102c057839261028c575b50825460035460405163a9059cbb60e01b86526001600160a01b039182166004526024949094521660208460448180855af1600185511481161561026d575b836040521561025b575081527fd0684f854a3fe79e21e3104f9922cbd15ebbccb829ddb7ca03df6c625ffd00c260203392a280f35b635274afe760e01b8452600452602483fd5b600181151661028357813b15153d151616610226565b833d86823e3d90fd5b9091506020813d6020116102b8575b816102a8602093836105ee565b810103126101225751905f6101e7565b3d915061029b565b6040513d85823e3d90fd5b503461009e578060031936011261009e576001546040516001600160a01b039091168152602090f35b503461009e578060031936011261009e57546040516001600160a01b039091168152602090f35b5034610122576020366003190112610122576003546004359061034a9033906001600160a01b0316811461057a565b6103558115156105a2565b5f805460025460405163095ea7b360e01b84526001600160a01b0391821660048190526024869052929091169260209060448180875af19060015f5114821615610518575b6040521561044a575b50506002545f546001600160a01b039182169116813b15610122575f9160848392604051948593849263617ba03760e01b845260048401528760248401523060448401528160648401525af1801561043f5761042a575b506040519081527fd90d253a9de34d2fdd5a75ae49ea17fcb43af32fc8ea08cc6d2341991dd3872e60203392a280f35b6104379192505f906105ee565b5f905f6103fa565b6040513d5f823e3d90fd5b60405163095ea7b360e01b5f52816004525f60245260205f60448180875af19060015f5114821615610500575b604052156104ed576040519063095ea7b360e01b5f526004528260245260205f60448180865af19060015f51148216156104cc575b604052156104ba57806103a3565b635274afe760e01b5f5260045260245ffd5b9060018115166104e457823b15153d151616906104ac565b503d5f823e3d90fd5b50635274afe760e01b5f5260045260245ffd5b9060018115166104e457833b15153d15161690610477565b90833b15153d1516169061039a565b34610122576020366003190112610122576004359063ffffffff60e01b8216809203610122576020916322d0cfa760e11b8114908115610569575b5015158152f35b6301ffc9a760e01b14905083610562565b156105825750565b63e9d6016160e01b5f9081526001600160a01b0391909116600452602490fd5b156105a957565b60405162461bcd60e51b815260206004820152601d60248201527f416d6f756e74206d7573742062652067726561746572207468616e20300000006044820152606490fd5b90601f8019910116810190811067ffffffffffffffff82111761061057604052565b634e487b7160e01b5f52604160045260245ffdfea2646970667358221220506445b98411508f5920d671b1732d2422e04c5affb245558f49371ea07c24b064736f6c634300081c0033",
  "linkReferences": {},
  "deployedLinkReferences": {},
  "immutableReferences": {},
  "inputSourceName": "project/contracts/adapters/AaveAdapterUSDC.sol",
  "buildInfoId": "solc-0_8_28-5b09fda0e8ffc56be7bcc65c944ecd8185f2bb0d"
}