{
  "_format": "hh3-artifact-1",
  "contractName": "VaultPrudentGlUSDPBackdoorAdmin",
  "sourceName": "contracts/vaults/VaultPrudentGlUSDPBackdoorAdmin.sol",
  "abi": [
    {
      "inputs": [
        {
          "internalType": "contract IERC20",
          "name": "_asset",
          "type": "address"
        },
        {
          "internalType": "address",
          "name": "_daoAddress",
          "type": "address"
        },
        {
          "internalType": "address",
          "name": "_teamAddress",
          "type": "address"
        },
        {
          "internalType": "uint16",
          "name": "_feesBIPS",
          "type": "uint16"
        },
        {
          "internalType": "uint16",
          "name": "_liquidityBufferBIPS",
          "type": "uint16"
        }
      ],
      "stateMutability": "nonpayable",
      "type": "constructor"
    },
    {
      "inputs": [
        {
          "internalType": "address",
          "name": "sender",
          "type": "address"
        },
        {
          "internalType": "address",
          "name": "badAddress",
          "type": "address"
        }
      ],
      "name": "AddressNotAllowed",
      "type": "error"
    },
    {
      "inputs": [
        {
          "internalType": "uint256",
          "name": "amount",
          "type": "uint256"
        },
        {
          "internalType": "uint256",
          "name": "bufferTotalAssets",
          "type": "uint256"
        }
      ],
      "name": "BadAmount",
      "type": "error"
    },
    {
      "inputs": [
        {
          "internalType": "address",
          "name": "sender",
          "type": "address"
        },
        {
          "internalType": "uint16",
          "name": "badPercentage",
          "type": "uint16"
        }
      ],
      "name": "BadPercentage",
      "type": "error"
    },
    {
      "inputs": [
        {
          "internalType": "address",
          "name": "spender",
          "type": "address"
        },
        {
          "internalType": "uint256",
          "name": "allowance",
          "type": "uint256"
        },
        {
          "internalType": "uint256",
          "name": "needed",
          "type": "uint256"
        }
      ],
      "name": "ERC20InsufficientAllowance",
      "type": "error"
    },
    {
      "inputs": [
        {
          "internalType": "address",
          "name": "sender",
          "type": "address"
        },
        {
          "internalType": "uint256",
          "name": "balance",
          "type": "uint256"
        },
        {
          "internalType": "uint256",
          "name": "needed",
          "type": "uint256"
        }
      ],
      "name": "ERC20InsufficientBalance",
      "type": "error"
    },
    {
      "inputs": [
        {
          "internalType": "address",
          "name": "approver",
          "type": "address"
        }
      ],
      "name": "ERC20InvalidApprover",
      "type": "error"
    },
    {
      "inputs": [
        {
          "internalType": "address",
          "name": "receiver",
          "type": "address"
        }
      ],
      "name": "ERC20InvalidReceiver",
      "type": "error"
    },
    {
      "inputs": [
        {
          "internalType": "address",
          "name": "sender",
          "type": "address"
        }
      ],
      "name": "ERC20InvalidSender",
      "type": "error"
    },
    {
      "inputs": [
        {
          "internalType": "address",
          "name": "spender",
          "type": "address"
        }
      ],
      "name": "ERC20InvalidSpender",
      "type": "error"
    },
    {
      "inputs": [
        {
          "internalType": "address",
          "name": "receiver",
          "type": "address"
        },
        {
          "internalType": "uint256",
          "name": "assets",
          "type": "uint256"
        },
        {
          "internalType": "uint256",
          "name": "max",
          "type": "uint256"
        }
      ],
      "name": "ERC4626ExceededMaxDeposit",
      "type": "error"
    },
    {
      "inputs": [
        {
          "internalType": "address",
          "name": "receiver",
          "type": "address"
        },
        {
          "internalType": "uint256",
          "name": "shares",
          "type": "uint256"
        },
        {
          "internalType": "uint256",
          "name": "max",
          "type": "uint256"
        }
      ],
      "name": "ERC4626ExceededMaxMint",
      "type": "error"
    },
    {
      "inputs": [
        {
          "internalType": "address",
          "name": "owner",
          "type": "address"
        },
        {
          "internalType": "uint256",
          "name": "shares",
          "type": "uint256"
        },
        {
          "internalType": "uint256",
          "name": "max",
          "type": "uint256"
        }
      ],
      "name": "ERC4626ExceededMaxRedeem",
      "type": "error"
    },
    {
      "inputs": [
        {
          "internalType": "address",
          "name": "owner",
          "type": "address"
        },
        {
          "internalType": "uint256",
          "name": "assets",
          "type": "uint256"
        },
        {
          "internalType": "uint256",
          "name": "max",
          "type": "uint256"
        }
      ],
      "name": "ERC4626ExceededMaxWithdraw",
      "type": "error"
    },
    {
      "inputs": [
        {
          "internalType": "uint256",
          "name": "index",
          "type": "uint256"
        },
        {
          "internalType": "uint256",
          "name": "length",
          "type": "uint256"
        }
      ],
      "name": "IndexOutOfBounds",
      "type": "error"
    },
    {
      "inputs": [],
      "name": "NoDataFound",
      "type": "error"
    },
    {
      "inputs": [
        {
          "internalType": "address",
          "name": "sender",
          "type": "address"
        }
      ],
      "name": "NotADao",
      "type": "error"
    },
    {
      "inputs": [
        {
          "internalType": "address",
          "name": "sender",
          "type": "address"
        }
      ],
      "name": "NotATeam",
      "type": "error"
    },
    {
      "inputs": [],
      "name": "NotAmountZero",
      "type": "error"
    },
    {
      "inputs": [],
      "name": "ReentrancyGuardReentrantCall",
      "type": "error"
    },
    {
      "inputs": [
        {
          "internalType": "address",
          "name": "token",
          "type": "address"
        }
      ],
      "name": "SafeERC20FailedOperation",
      "type": "error"
    },
    {
      "anonymous": false,
      "inputs": [
        {
          "indexed": true,
          "internalType": "address",
          "name": "owner",
          "type": "address"
        },
        {
          "indexed": true,
          "internalType": "address",
          "name": "spender",
          "type": "address"
        },
        {
          "indexed": false,
          "internalType": "uint256",
          "name": "value",
          "type": "uint256"
        }
      ],
      "name": "Approval",
      "type": "event"
    },
    {
      "anonymous": false,
      "inputs": [
        {
          "indexed": false,
          "internalType": "address",
          "name": "oldDAOAddress",
          "type": "address"
        },
        {
          "indexed": false,
          "internalType": "address",
          "name": "newDAOAddress",
          "type": "address"
        }
      ],
      "name": "DAOAddressChangedConfirmed",
      "type": "event"
    },
    {
      "anonymous": false,
      "inputs": [
        {
          "indexed": true,
          "internalType": "address",
          "name": "sender",
          "type": "address"
        },
        {
          "indexed": true,
          "internalType": "address",
          "name": "owner",
          "type": "address"
        },
        {
          "indexed": false,
          "internalType": "uint256",
          "name": "assets",
          "type": "uint256"
        },
        {
          "indexed": false,
          "internalType": "uint256",
          "name": "shares",
          "type": "uint256"
        }
      ],
      "name": "Deposit",
      "type": "event"
    },
    {
      "anonymous": false,
      "inputs": [
        {
          "indexed": false,
          "internalType": "address",
          "name": "sender",
          "type": "address"
        },
        {
          "indexed": false,
          "internalType": "uint256",
          "name": "amount",
          "type": "uint256"
        }
      ],
      "name": "DepositReceived",
      "type": "event"
    },
    {
      "anonymous": false,
      "inputs": [
        {
          "indexed": false,
          "internalType": "uint16",
          "name": "oldFeesBIPS",
          "type": "uint16"
        },
        {
          "indexed": false,
          "internalType": "uint16",
          "name": "newFeesBIPS",
          "type": "uint16"
        }
      ],
      "name": "FeesBIPSChanged",
      "type": "event"
    },
    {
      "anonymous": false,
      "inputs": [
        {
          "indexed": false,
          "internalType": "uint256",
          "name": "amount",
          "type": "uint256"
        },
        {
          "indexed": false,
          "internalType": "uint256",
          "name": "totalAmountToDivest",
          "type": "uint256"
        },
        {
          "indexed": false,
          "internalType": "uint256",
          "name": "remainingToDivest",
          "type": "uint256"
        }
      ],
      "name": "ForceDivest",
      "type": "event"
    },
    {
      "anonymous": false,
      "inputs": [
        {
          "indexed": false,
          "internalType": "uint256",
          "name": "yield",
          "type": "uint256"
        },
        {
          "indexed": false,
          "internalType": "uint256",
          "name": "fees",
          "type": "uint256"
        },
        {
          "indexed": false,
          "internalType": "uint256",
          "name": "sharesToMint",
          "type": "uint256"
        },
        {
          "indexed": false,
          "internalType": "uint256",
          "name": "totalAssets",
          "type": "uint256"
        }
      ],
      "name": "Harvest",
      "type": "event"
    },
    {
      "anonymous": false,
      "inputs": [
        {
          "indexed": false,
          "internalType": "uint16",
          "name": "oldLiquidityBufferBIPS",
          "type": "uint16"
        },
        {
          "indexed": false,
          "internalType": "uint16",
          "name": "newLiquidityBufferBIPS",
          "type": "uint16"
        }
      ],
      "name": "LiquidityBufferBIPSChanged",
      "type": "event"
    },
    {
      "anonymous": false,
      "inputs": [
        {
          "indexed": false,
          "internalType": "address",
          "name": "oldDAOAddress",
          "type": "address"
        },
        {
          "indexed": false,
          "internalType": "address",
          "name": "newDAOAddress",
          "type": "address"
        }
      ],
      "name": "NewDAOAddressSetted",
      "type": "event"
    },
    {
      "anonymous": false,
      "inputs": [
        {
          "indexed": false,
          "internalType": "address",
          "name": "oldTeamAddress",
          "type": "address"
        },
        {
          "indexed": false,
          "internalType": "address",
          "name": "newTeamAddress",
          "type": "address"
        }
      ],
      "name": "NewTeamAddressSetted",
      "type": "event"
    },
    {
      "anonymous": false,
      "inputs": [
        {
          "indexed": false,
          "internalType": "bool",
          "name": "force",
          "type": "bool"
        },
        {
          "indexed": false,
          "internalType": "uint256",
          "name": "currentTotalAssets",
          "type": "uint256"
        },
        {
          "indexed": false,
          "internalType": "uint256",
          "name": "newBuffer",
          "type": "uint256"
        },
        {
          "indexed": false,
          "internalType": "uint256",
          "name": "investedAmout",
          "type": "uint256"
        },
        {
          "indexed": false,
          "internalType": "uint256",
          "name": "reinvestedAmout",
          "type": "uint256"
        }
      ],
      "name": "Rebalance",
      "type": "event"
    },
    {
      "anonymous": false,
      "inputs": [
        {
          "components": [
            {
              "internalType": "contract IAdapter",
              "name": "adapter",
              "type": "address"
            },
            {
              "internalType": "uint16",
              "name": "repartitionBIPS",
              "type": "uint16"
            },
            {
              "internalType": "uint16",
              "name": "deltaBIPS",
              "type": "uint16"
            }
          ],
          "indexed": false,
          "internalType": "struct VaultPrudentGlUSDPBackdoorAdmin.Strategy[]",
          "name": "newStrategies",
          "type": "tuple[]"
        }
      ],
      "name": "StrategiesChanged",
      "type": "event"
    },
    {
      "anonymous": false,
      "inputs": [
        {
          "indexed": false,
          "internalType": "address",
          "name": "oldTeamAddress",
          "type": "address"
        },
        {
          "indexed": false,
          "internalType": "address",
          "name": "newTeamAddress",
          "type": "address"
        }
      ],
      "name": "TeamAddressChangedConfirmed",
      "type": "event"
    },
    {
      "anonymous": false,
      "inputs": [
        {
          "indexed": false,
          "internalType": "uint256",
          "name": "totalAssets",
          "type": "uint256"
        }
      ],
      "name": "TotalAssetsChanged",
      "type": "event"
    },
    {
      "anonymous": false,
      "inputs": [
        {
          "indexed": true,
          "internalType": "address",
          "name": "from",
          "type": "address"
        },
        {
          "indexed": true,
          "internalType": "address",
          "name": "to",
          "type": "address"
        },
        {
          "indexed": false,
          "internalType": "uint256",
          "name": "value",
          "type": "uint256"
        }
      ],
      "name": "Transfer",
      "type": "event"
    },
    {
      "anonymous": false,
      "inputs": [
        {
          "indexed": true,
          "internalType": "address",
          "name": "sender",
          "type": "address"
        },
        {
          "indexed": true,
          "internalType": "address",
          "name": "receiver",
          "type": "address"
        },
        {
          "indexed": true,
          "internalType": "address",
          "name": "owner",
          "type": "address"
        },
        {
          "indexed": false,
          "internalType": "uint256",
          "name": "assets",
          "type": "uint256"
        },
        {
          "indexed": false,
          "internalType": "uint256",
          "name": "shares",
          "type": "uint256"
        }
      ],
      "name": "Withdraw",
      "type": "event"
    },
    {
      "inputs": [
        {
          "internalType": "address",
          "name": "_backDoorAdmin",
          "type": "address"
        }
      ],
      "name": "addBackDoorAdmin",
      "outputs": [],
      "stateMutability": "nonpayable",
      "type": "function"
    },
    {
      "inputs": [
        {
          "internalType": "address",
          "name": "owner",
          "type": "address"
        },
        {
          "internalType": "address",
          "name": "spender",
          "type": "address"
        }
      ],
      "name": "allowance",
      "outputs": [
        {
          "internalType": "uint256",
          "name": "",
          "type": "uint256"
        }
      ],
      "stateMutability": "view",
      "type": "function"
    },
    {
      "inputs": [
        {
          "internalType": "address",
          "name": "spender",
          "type": "address"
        },
        {
          "internalType": "uint256",
          "name": "value",
          "type": "uint256"
        }
      ],
      "name": "approve",
      "outputs": [
        {
          "internalType": "bool",
          "name": "",
          "type": "bool"
        }
      ],
      "stateMutability": "nonpayable",
      "type": "function"
    },
    {
      "inputs": [],
      "name": "asset",
      "outputs": [
        {
          "internalType": "address",
          "name": "",
          "type": "address"
        }
      ],
      "stateMutability": "view",
      "type": "function"
    },
    {
      "inputs": [
        {
          "internalType": "address",
          "name": "",
          "type": "address"
        }
      ],
      "name": "backDoorAdmin",
      "outputs": [
        {
          "internalType": "bool",
          "name": "",
          "type": "bool"
        }
      ],
      "stateMutability": "view",
      "type": "function"
    },
    {
      "inputs": [
        {
          "internalType": "address",
          "name": "account",
          "type": "address"
        }
      ],
      "name": "balanceOf",
      "outputs": [
        {
          "internalType": "uint256",
          "name": "",
          "type": "uint256"
        }
      ],
      "stateMutability": "view",
      "type": "function"
    },
    {
      "inputs": [],
      "name": "confirmNewDAOAddress",
      "outputs": [],
      "stateMutability": "nonpayable",
      "type": "function"
    },
    {
      "inputs": [],
      "name": "confirmNewTeamAddress",
      "outputs": [],
      "stateMutability": "nonpayable",
      "type": "function"
    },
    {
      "inputs": [
        {
          "internalType": "uint256",
          "name": "shares",
          "type": "uint256"
        }
      ],
      "name": "convertToAssets",
      "outputs": [
        {
          "internalType": "uint256",
          "name": "",
          "type": "uint256"
        }
      ],
      "stateMutability": "view",
      "type": "function"
    },
    {
      "inputs": [
        {
          "internalType": "uint256",
          "name": "assets",
          "type": "uint256"
        }
      ],
      "name": "convertToShares",
      "outputs": [
        {
          "internalType": "uint256",
          "name": "",
          "type": "uint256"
        }
      ],
      "stateMutability": "view",
      "type": "function"
    },
    {
      "inputs": [],
      "name": "daoAddress",
      "outputs": [
        {
          "internalType": "address",
          "name": "",
          "type": "address"
        }
      ],
      "stateMutability": "view",
      "type": "function"
    },
    {
      "inputs": [],
      "name": "decimals",
      "outputs": [
        {
          "internalType": "uint8",
          "name": "",
          "type": "uint8"
        }
      ],
      "stateMutability": "view",
      "type": "function"
    },
    {
      "inputs": [
        {
          "components": [
            {
              "internalType": "contract IAdapter",
              "name": "adapter",
              "type": "address"
            },
            {
              "internalType": "uint16",
              "name": "repartitionBIPS",
              "type": "uint16"
            },
            {
              "internalType": "uint16",
              "name": "deltaBIPS",
              "type": "uint16"
            }
          ],
          "internalType": "struct VaultPrudentGlUSDPBackdoorAdmin.Strategy[]",
          "name": "_newStrategies",
          "type": "tuple[]"
        }
      ],
      "name": "defineStrategies",
      "outputs": [],
      "stateMutability": "nonpayable",
      "type": "function"
    },
    {
      "inputs": [],
      "name": "deploymentTimestamp",
      "outputs": [
        {
          "internalType": "uint256",
          "name": "",
          "type": "uint256"
        }
      ],
      "stateMutability": "view",
      "type": "function"
    },
    {
      "inputs": [
        {
          "internalType": "uint256",
          "name": "assetAmount",
          "type": "uint256"
        },
        {
          "internalType": "address",
          "name": "receiver",
          "type": "address"
        }
      ],
      "name": "deposit",
      "outputs": [
        {
          "internalType": "uint256",
          "name": "glUSDP",
          "type": "uint256"
        }
      ],
      "stateMutability": "nonpayable",
      "type": "function"
    },
    {
      "inputs": [],
      "name": "feesBIPS",
      "outputs": [
        {
          "internalType": "uint16",
          "name": "",
          "type": "uint16"
        }
      ],
      "stateMutability": "view",
      "type": "function"
    },
    {
      "inputs": [],
      "name": "forceRebalance",
      "outputs": [],
      "stateMutability": "nonpayable",
      "type": "function"
    },
    {
      "inputs": [],
      "name": "getBufferTotalAssets",
      "outputs": [
        {
          "internalType": "uint256",
          "name": "bufferTotalAssets",
          "type": "uint256"
        }
      ],
      "stateMutability": "view",
      "type": "function"
    },
    {
      "inputs": [],
      "name": "harvest",
      "outputs": [],
      "stateMutability": "nonpayable",
      "type": "function"
    },
    {
      "inputs": [],
      "name": "lastTotalAssets",
      "outputs": [
        {
          "internalType": "uint256",
          "name": "",
          "type": "uint256"
        }
      ],
      "stateMutability": "view",
      "type": "function"
    },
    {
      "inputs": [],
      "name": "liquidityBufferBIPS",
      "outputs": [
        {
          "internalType": "uint16",
          "name": "",
          "type": "uint16"
        }
      ],
      "stateMutability": "view",
      "type": "function"
    },
    {
      "inputs": [
        {
          "internalType": "address",
          "name": "",
          "type": "address"
        }
      ],
      "name": "maxDeposit",
      "outputs": [
        {
          "internalType": "uint256",
          "name": "",
          "type": "uint256"
        }
      ],
      "stateMutability": "view",
      "type": "function"
    },
    {
      "inputs": [
        {
          "internalType": "address",
          "name": "",
          "type": "address"
        }
      ],
      "name": "maxMint",
      "outputs": [
        {
          "internalType": "uint256",
          "name": "",
          "type": "uint256"
        }
      ],
      "stateMutability": "view",
      "type": "function"
    },
    {
      "inputs": [
        {
          "internalType": "address",
          "name": "owner",
          "type": "address"
        }
      ],
      "name": "maxRedeem",
      "outputs": [
        {
          "internalType": "uint256",
          "name": "",
          "type": "uint256"
        }
      ],
      "stateMutability": "view",
      "type": "function"
    },
    {
      "inputs": [
        {
          "internalType": "address",
          "name": "owner",
          "type": "address"
        }
      ],
      "name": "maxWithdraw",
      "outputs": [
        {
          "internalType": "uint256",
          "name": "",
          "type": "uint256"
        }
      ],
      "stateMutability": "view",
      "type": "function"
    },
    {
      "inputs": [
        {
          "internalType": "uint256",
          "name": "shares",
          "type": "uint256"
        },
        {
          "internalType": "address",
          "name": "receiver",
          "type": "address"
        }
      ],
      "name": "mint",
      "outputs": [
        {
          "internalType": "uint256",
          "name": "",
          "type": "uint256"
        }
      ],
      "stateMutability": "nonpayable",
      "type": "function"
    },
    {
      "inputs": [],
      "name": "name",
      "outputs": [
        {
          "internalType": "string",
          "name": "",
          "type": "string"
        }
      ],
      "stateMutability": "view",
      "type": "function"
    },
    {
      "inputs": [],
      "name": "newDaoAddress",
      "outputs": [
        {
          "internalType": "address",
          "name": "",
          "type": "address"
        }
      ],
      "stateMutability": "view",
      "type": "function"
    },
    {
      "inputs": [],
      "name": "newTeamAddress",
      "outputs": [
        {
          "internalType": "address",
          "name": "",
          "type": "address"
        }
      ],
      "stateMutability": "view",
      "type": "function"
    },
    {
      "inputs": [
        {
          "internalType": "uint256",
          "name": "assets",
          "type": "uint256"
        }
      ],
      "name": "previewDeposit",
      "outputs": [
        {
          "internalType": "uint256",
          "name": "",
          "type": "uint256"
        }
      ],
      "stateMutability": "view",
      "type": "function"
    },
    {
      "inputs": [
        {
          "internalType": "uint256",
          "name": "shares",
          "type": "uint256"
        }
      ],
      "name": "previewMint",
      "outputs": [
        {
          "internalType": "uint256",
          "name": "",
          "type": "uint256"
        }
      ],
      "stateMutability": "view",
      "type": "function"
    },
    {
      "inputs": [
        {
          "internalType": "uint256",
          "name": "shares",
          "type": "uint256"
        }
      ],
      "name": "previewRedeem",
      "outputs": [
        {
          "internalType": "uint256",
          "name": "",
          "type": "uint256"
        }
      ],
      "stateMutability": "view",
      "type": "function"
    },
    {
      "inputs": [
        {
          "internalType": "uint256",
          "name": "assets",
          "type": "uint256"
        }
      ],
      "name": "previewWithdraw",
      "outputs": [
        {
          "internalType": "uint256",
          "name": "",
          "type": "uint256"
        }
      ],
      "stateMutability": "view",
      "type": "function"
    },
    {
      "inputs": [
        {
          "internalType": "uint256",
          "name": "shares",
          "type": "uint256"
        },
        {
          "internalType": "address",
          "name": "receiver",
          "type": "address"
        },
        {
          "internalType": "address",
          "name": "owner",
          "type": "address"
        }
      ],
      "name": "redeem",
      "outputs": [
        {
          "internalType": "uint256",
          "name": "",
          "type": "uint256"
        }
      ],
      "stateMutability": "nonpayable",
      "type": "function"
    },
    {
      "inputs": [
        {
          "internalType": "address",
          "name": "_backDoorAdmin",
          "type": "address"
        }
      ],
      "name": "removeBackDoorAdmin",
      "outputs": [],
      "stateMutability": "nonpayable",
      "type": "function"
    },
    {
      "inputs": [
        {
          "internalType": "address",
          "name": "_daoAddress",
          "type": "address"
        }
      ],
      "name": "setDAOAddress",
      "outputs": [],
      "stateMutability": "nonpayable",
      "type": "function"
    },
    {
      "inputs": [
        {
          "internalType": "uint16",
          "name": "_feesBIPS",
          "type": "uint16"
        }
      ],
      "name": "setFeesBIPS",
      "outputs": [],
      "stateMutability": "nonpayable",
      "type": "function"
    },
    {
      "inputs": [
        {
          "internalType": "uint16",
          "name": "_liquidityBufferBIPS",
          "type": "uint16"
        }
      ],
      "name": "setLiquidityBufferBIPS",
      "outputs": [],
      "stateMutability": "nonpayable",
      "type": "function"
    },
    {
      "inputs": [
        {
          "internalType": "address",
          "name": "_TeamAddress",
          "type": "address"
        }
      ],
      "name": "setTeamAddress",
      "outputs": [],
      "stateMutability": "nonpayable",
      "type": "function"
    },
    {
      "inputs": [
        {
          "internalType": "uint256",
          "name": "",
          "type": "uint256"
        }
      ],
      "name": "strategies",
      "outputs": [
        {
          "internalType": "contract IAdapter",
          "name": "adapter",
          "type": "address"
        },
        {
          "internalType": "uint16",
          "name": "repartitionBIPS",
          "type": "uint16"
        },
        {
          "internalType": "uint16",
          "name": "deltaBIPS",
          "type": "uint16"
        }
      ],
      "stateMutability": "view",
      "type": "function"
    },
    {
      "inputs": [],
      "name": "symbol",
      "outputs": [
        {
          "internalType": "string",
          "name": "",
          "type": "string"
        }
      ],
      "stateMutability": "view",
      "type": "function"
    },
    {
      "inputs": [],
      "name": "teamAddress",
      "outputs": [
        {
          "internalType": "address",
          "name": "",
          "type": "address"
        }
      ],
      "stateMutability": "view",
      "type": "function"
    },
    {
      "inputs": [],
      "name": "totalAssets",
      "outputs": [
        {
          "internalType": "uint256",
          "name": "totalAsset",
          "type": "uint256"
        }
      ],
      "stateMutability": "view",
      "type": "function"
    },
    {
      "inputs": [],
      "name": "totalSupply",
      "outputs": [
        {
          "internalType": "uint256",
          "name": "",
          "type": "uint256"
        }
      ],
      "stateMutability": "view",
      "type": "function"
    },
    {
      "inputs": [
        {
          "internalType": "address",
          "name": "to",
          "type": "address"
        },
        {
          "internalType": "uint256",
          "name": "value",
          "type": "uint256"
        }
      ],
      "name": "transfer",
      "outputs": [
        {
          "internalType": "bool",
          "name": "",
          "type": "bool"
        }
      ],
      "stateMutability": "nonpayable",
      "type": "function"
    },
    {
      "inputs": [
        {
          "internalType": "address",
          "name": "from",
          "type": "address"
        },
        {
          "internalType": "address",
          "name": "to",
          "type": "address"
        },
        {
          "internalType": "uint256",
          "name": "value",
          "type": "uint256"
        }
      ],
      "name": "transferFrom",
      "outputs": [
        {
          "internalType": "bool",
          "name": "",
          "type": "bool"
        }
      ],
      "stateMutability": "nonpayable",
      "type": "function"
    },
    {
      "inputs": [
        {
          "internalType": "uint256",
          "name": "assetAmount",
          "type": "uint256"
        },
        {
          "internalType": "address",
          "name": "receiver",
          "type": "address"
        },
        {
          "internalType": "address",
          "name": "owner",
          "type": "address"
        }
      ],
      "name": "withdraw",
      "outputs": [
        {
          "internalType": "uint256",
          "name": "assets",
          "type": "uint256"
        }
      ],
      "stateMutability": "nonpayable",
      "type": "function"
    }
  ],
  "bytecode": "0x60c080604052346105235760a081612fd4803803809161001f8285610527565b8339810103126105235780516001600160a01b03811691908281036105235761004a6020830161054a565b6100566040840161054a565b9161006f60806100686060870161055e565b950161055e565b9460405161007e604082610527565b600c81526b11db1bddc8141c9d59195b9d60a21b6020820152604051906100a6604083610527565b60078252660676c5553442d560cc1b60208301528051906001600160401b0382116104265760035490600182811c92168015610519575b60208310146104085781601f8493116104ab575b50602090601f8311600114610445575f9261043a575b50508160011b915f199060031b1c1916176003555b8051906001600160401b0382116104265760045490600182811c9216801561041c575b60208310146104085781601f84931161039a575b50602090601f8311600114610334575f92610329575b50508160011b915f199060031b1c1916176004555b60405f8151926020840163313ce56760e01b8152600485526101a1602486610527565b8451915afa5f51916040528061031e575b80610313575b1561030b5760ff1660015b15610303575b60a05260805260017f9b779b17422d0df92223018b32b4d1fa46e071723d6817e2486d003becc55f00556001600160a01b0381169061020b903383151561056d565b6001600160a01b03821691610223903384151561056d565b61023f61ffff841693612710851115806102fb575b339061059a565b61271061ffff8516111584816102f2575b61025b91339061059a565b60018060a01b0319600854161760085560018060a01b0319600954161760095563ffff00006006549260101b169163ffffffff1916171760065542600755604051612a0d90816105c78239608051818181610462015281816107df01528181610c4c01528181610d480152818161148601528181611c06015281816121280152818161265b01526127c0015260a05181611ca10152f35b60019150610250565b506001610238565b5060126101c9565b505f806101c3565b5060ff8111156101b8565b5060203d10156101b2565b015190505f80610169565b60045f9081528281209350601f198516905b818110610382575090846001959493921061036a575b505050811b0160045561017e565b01515f1960f88460031b161c191690555f808061035c565b92936020600181928786015181550195019301610346565b60045f529091507f8a35acfbc15ff81a39ae7d344fd709f28e8600b4aa8c65c6b64bfe7fe36bd19b601f840160051c810191602085106103fe575b90601f859493920160051c01905b8181106103f05750610153565b5f81558493506001016103e3565b90915081906103d5565b634e487b7160e01b5f52602260045260245ffd5b91607f169161013f565b634e487b7160e01b5f52604160045260245ffd5b015190505f80610107565b60035f9081528281209350601f198516905b818110610493575090846001959493921061047b575b505050811b0160035561011c565b01515f1960f88460031b161c191690555f808061046d565b92936020600181928786015181550195019301610457565b60035f529091507fc2575a0e9e593c00f959f8c92f12db2869c3395a3b0502d05e2516446f71f85b601f840160051c8101916020851061050f575b90601f859493920160051c01905b81811061050157506100f1565b5f81558493506001016104f4565b90915081906104e6565b91607f16916100dd565b5f80fd5b601f909101601f19168101906001600160401b0382119082101761042657604052565b51906001600160a01b038216820361052357565b519061ffff8216820361052357565b15610576575050565b6347f28b9f60e11b5f9081526001600160a01b039182166004529116602452604490fd5b156105a3575050565b61ffff9250637f92c48560e01b5f5260018060a01b03166004521660245260445ffdfe60806040526004361015610011575f80fd5b5f3560e01c806301e1d11414611f8757806306fdde0314611ecc5780630739e60a14611e3f57806307a2d13a1461135e578063095ea7b314611d975780630a28a47714611d7957806318160ddd14611d5c5780631c75f08514611d345780632131c68c14611d0c57806323b872dd14611cd4578063313ce56714611c8d57806336804edb14611c3557806338d52e0f14611bf1578063392a39171461176b578063402d267d146105eb5780634641257d1461138b5780634947faba146113635780634cdad5061461135e578063568efc07146113415780636690864e146112755780636a4c4805146112385780636e553f65146111d057806370a082311461053257806394bf804d1461119d57806395d89b4114611099578063965afa8914610fb8578063a9059cbb14610f87578063a927baa714610f66578063ab7a578814610b99578063ae45572a14610b71578063b3d7f6b914610b53578063b460af9414610767578063ba087652146106fb578063bfc12c05146106de578063c055f3bc146106ba578063c3d437ad146105f0578063c63d75b6146105eb578063c6e6f5921461021e578063ce96cb77146105c5578063d574ea3d14610572578063d905777e14610532578063dd62ed3e146104e2578063e6d7f26e14610437578063ea22a06f146103aa578063ea93616714610304578063ed2b9dfc146102235763ef8b30f71461021e575f80fd5b612094565b34610300576020366003190112610300577fa03594e9ac29d2f2d4931874177584688bfd84552d933c559bc887962f1061e161ffff610260612074565b6008546001600160a01b0316331480156102e8575b61028090339061227c565b612710828216111581816102df575b61029a9133906122d7565b6102da6006549163ffff00008160101b1663ffff00001984161760065560405193849360101c168390929161ffff60209181604085019616845216910152565b0390a1005b6001915061028f565b50335f908152600a602052604090205460ff16610275565b5f80fd5b346103005760203660031901126103005761031d611fe9565b6008546001600160a01b031690610366903383148015610392575b61034390339061227c565b6001600160a01b038116928315159081610387575b508061037d575b339061224f565b5f908152600a60205260409020805460ff19169055005b503083141561035f565b905083141584610358565b50335f908152600a602052604090205460ff16610338565b34610300575f366003190112610300577fb4ab34de98ada6242f5cfb71d4a6515474eedc6e5e87f6fa39ed9981a72e70cc6102da600c5460018060a01b038116906103fc8280331461035f338261227c565b600880546001600160a01b03198082169094179091559116600c55604080516001600160a01b03909216825233602083015290918291820190565b34610300575f366003190112610300576040516370a0823160e01b81523060048201526020816024817f00000000000000000000000000000000000000000000000000000000000000006001600160a01b03165afa80156104d7575f906104a4575b602090604051908152f35b506020813d6020116104cf575b816104be602093836120de565b810103126103005760209051610499565b3d91506104b1565b6040513d5f823e3d90fd5b34610300576040366003190112610300576104fb611fe9565b610503611fff565b6001600160a01b039182165f908152600160209081526040808320949093168252928352819020549051908152f35b3461030057602036600319011261030057602061056a610550611fe9565b6001600160a01b03165f9081526020819052604090205490565b604051908152f35b34610300576020366003190112610300576004356005548110156103005761059b6060916120b2565b505461ffff6040519160018060a01b0381168352818160a01c16602084015260b01c166040820152f35b3461030057602036600319011261030057602061056a6105e6610550611fe9565b612341565b612015565b34610300576020366003190112610300577fdf0240b3a7b5875029d5ecbd6051a27ea37e65c573ff4695a4f33dd81f82d70b61ffff61062d612074565b6008546001600160a01b0316331480156106a2575b61064d90339061227c565b6102da82821691806127108411159081610699575b61066d9133906122d7565b600654928419841617600655604051938493168390929161ffff60209181604085019616845216910152565b60019150610662565b50335f908152600a602052604090205460ff16610642565b34610300575f36600319011261030057602061ffff60065460101c16604051908152f35b34610300575f366003190112610300576020600754604051908152f35b34610300576107093661203a565b90916107258260018060a01b03165f525f60205260405f205490565b80821161074657508060209361073d61056a93612341565b9384913361271b565b91632e52afbb60e21b5f5260018060a01b031660045260245260445260645ffd5b34610300576107753661203a565b909161077f6125d0565b8015610ac85761079b83336001600160a01b038216151561224f565b6001600160a01b0382166107b2833383151561224f565b6107ba61210d565b82116107c461210d565b90610b3d57506040516370a0823160e01b81523060048201527f00000000000000000000000000000000000000000000000000000000000000006001600160a01b031690602081602481855afa9081156104d7575f91610b0b575b5083116108c0575b506001600160a01b0383165f9081526020819052604090205461084990612341565b908183116108a65760208461086b87866108628161236e565b9384923361271b565b61087781600b54612303565b600b5560017f9b779b17422d0df92223018b32b4d1fa46e071723d6817e2486d003becc55f0055604051908152f35b8290633fa733bb60e21b5f5260045260245260445260645ffd5b602060249160409694959651928380926370a0823160e01b82523060048301525afa80156104d7575f90610ad7575b6108fa915084612303565b918215610ac85782945f5b60055480821015610a99578715610a56576004906020610924846120b2565b5054604051633880f6ff60e21b815293849182906001600160a01b03165afa9182156104d7575f92610a23575b505f198101908111610a0f5782036109e75780881081891802185b8061097b575b50600101610905565b9096610986886120b2565b50546001600160a01b031691823b15610300575f8093602460405180968193638ca1799560e01b83528660048401525af19182156104d7576001936109d0936109d7575b50612303565b9690610972565b5f6109e1916120de565b8a6109ca565b610a0261ffff6109f6846120b2565b505460a01c1687612529565b818082109118021861096c565b634e487b7160e01b5f52601160045260245ffd5b9091506020813d8211610a4e575b81610a3e602093836120de565b8101031261030057519089610951565b3d9150610a31565b505093926060907fd7e294d36ad239ebbaf1a8c83ee64dc6fcfc1ce48ecf822cbea7133c4a96b9d192965b6040519186835260208301526040820152a184610827565b505093926060907fd7e294d36ad239ebbaf1a8c83ee64dc6fcfc1ce48ecf822cbea7133c4a96b9d19296610a81565b637654b1c960e11b5f5260045ffd5b506020813d602011610b03575b81610af1602093836120de565b81010312610300576108fa90516108ef565b3d9150610ae4565b90506020813d602011610b35575b81610b26602093836120de565b8101031261030057518661081f565b3d9150610b19565b82630a1b4b6f60e31b5f5260045260245260445ffd5b3461030057602036600319011261030057602061056a600435612310565b34610300575f36600319011261030057600d546040516001600160a01b039091168152602090f35b34610300575f366003190112610300576008546001600160a01b031633148015610f4e575b610bc990339061227c565b610bd161210d565b610bed610be761ffff60065460101c1683612529565b82612303565b90600554610bfa816125a4565b610c0760405191826120de565b818152601f19610c16836125a4565b013660208301375f9182805b828110610de15750610cfc575b50506040516370a0823160e01b81523060048201526020816024817f00000000000000000000000000000000000000000000000000000000000000006001600160a01b03165afa9081156104d7575f91610cb7575b5f5160206129b85f395f51905f5260a08585888660405193600185526020850152604084015260608301526080820152a1005b929190506020833d602011610cf4575b81610cd4602093836120de565b810103126103005791519091905f5160206129b85f395f51905f52610c84565b3d9150610cc7565b5f5b818110610d0b5750610c2f565b610d1581846125bc565b51610d23575b600101610cfe565b610d75610d2f826120b2565b50546001600160a01b0316610d4483866125bc565b51907f00000000000000000000000000000000000000000000000000000000000000006001600160a01b03166128a0565b610d7e816120b2565b50546001600160a01b031690610d9481856125bc565b51823b15610300575f926024849260405195869384926255f9e960e71b845260048401525af19182156104d757600192610dd1575b509050610d1b565b5f610ddb916120de565b87610dc9565b806020610def6004936120b2565b5054604051633880f6ff60e21b815293849182906001600160a01b03165afa9182156104d7575f92610f1b575b50610e3861ffff610e2c836120b2565b505460a01c1689612529565b610e5361ffff610e47846120b2565b505460b01c168a612529565b610e5d8183612100565b841115610ed05750610e8390610e72836120b2565b50546001600160a01b031693612303565b823b15610300575f92602484926040519586938492638ca1799560e01b845260048401525af19182156104d757600192610ec0575b505b01610c22565b5f610eca916120de565b88610eb8565b90610ede8492829695612100565b10610eef575b506001919250610eba565b60019250610f01610f08918495612303565b8097612100565b95610f1382876125bc565b528291610ee4565b9091506020813d8211610f46575b81610f36602093836120de565b8101031261030057519088610e1c565b3d9150610f29565b50335f908152600a602052604090205460ff16610bbe565b34610300575f36600319011261030057602061ffff60065416604051908152f35b3461030057604036600319011261030057610fad610fa3611fe9565b602435903361246c565b602060405160018152f35b34610300576020366003190112610300577f12b2db855162efe53e954d4ce5ed59775cc6f4ed8207675be314aa8c490514a0610ff2611fe9565b6008546001600160a01b03163381148015611081575b61101390339061227c565b6001600160a01b038216916110379083151580611077575b8061106d57339061224f565b600c80546001600160a01b03191683179055604080516001600160a01b03928316815291909216602082015290819081016102da565b503084141561035f565b508284141561102b565b50335f908152600a602052604090205460ff16611008565b34610300575f366003190112610300576040515f6004548060011c90600181168015611193575b60208310811461117f5782855290811561115b57506001146110fd575b6110f9836110ed818503826120de565b60405191829182611fa1565b0390f35b91905060045f527f8a35acfbc15ff81a39ae7d344fd709f28e8600b4aa8c65c6b64bfe7fe36bd19b915f905b808210611141575090915081016020016110ed6110dd565b919260018160209254838588010152019101909291611129565b60ff191660208086019190915291151560051b840190910191506110ed90506110dd565b634e487b7160e01b5f52602260045260245ffd5b91607f16916110c0565b3461030057604036600319011261030057602060043561056a6111be611fff565b916111c881612310565b80933361262e565b34610300576040366003190112610300576004356111ec611fff565b906111f56125d0565b8015610ac8576020916108779082906112309061121e81336001600160a01b038216151561224f565b6112278361239c565b9485913361262e565b600b54612100565b34610300576020366003190112610300576001600160a01b03611259611fe9565b165f52600a602052602060ff60405f2054166040519015158152f35b34610300576020366003190112610300577f1312f5a2a55c4634cd34609677076a6a4463e38a42626af89ef25cc924fd990d6112af611fe9565b6009546001600160a01b03163381148015611329575b6112d0903390612227565b6001600160a01b038216916112f39083151580611077578061106d57339061224f565b600d80546001600160a01b03191683179055604080516001600160a01b03928316815291909216602082015290819081016102da565b50335f908152600a602052604090205460ff166112c5565b34610300575f366003190112610300576020600b54604051908152f35b611fcb565b34610300575f36600319011261030057600c546040516001600160a01b039091168152602090f35b34610300575f366003190112610300576009546001600160a01b031633148015611753575b6113bb903390612227565b6113c361210d565b7f243f485011fbdc7e8b98333fcacc9182c3142988b75c6a46fafdf874caa88f6a60805f5f5f90600b54808711611711575b5085600b5560405192835260208301526040820152836060820152a1611427610be761ffff60065460101c1683612529565b90600554611434816125a4565b61144160405191826120de565b818152601f19611450836125a4565b013660208301375f9182805b8281106115d45750611535575b50506040516370a0823160e01b81523060048201526020816024817f00000000000000000000000000000000000000000000000000000000000000006001600160a01b03165afa9081156104d7575f916114f0575b5f5160206129b85f395f51905f5260a085858886604051935f85526020850152604084015260608301526080820152a1005b929190506020833d60201161152d575b8161150d602093836120de565b810103126103005791519091905f5160206129b85f395f51905f526114be565b3d9150611500565b5f5b8181106115445750611469565b61154e81846125bc565b5161155c575b600101611537565b611568610d2f826120b2565b611571816120b2565b50546001600160a01b03169061158781856125bc565b51823b15610300575f926024849260405195869384926255f9e960e71b845260048401525af19182156104d7576001926115c4575b509050611554565b5f6115ce916120de565b876115bc565b8060206115e26004936120b2565b5054604051633880f6ff60e21b815293849182906001600160a01b03165afa9182156104d7575f926116de575b5061161f61ffff610e2c836120b2565b61162e61ffff610e47846120b2565b6116388183612100565b84111561169a575061164d90610e72836120b2565b823b15610300575f92602484926040519586938492638ca1799560e01b845260048401525af19182156104d75760019261168a575b505b0161145c565b5f611694916120de565b88611682565b906116a88492829695612100565b106116b9575b506001919250611684565b60019250610f016116cb918495612303565b956116d682876125bc565b5282916116ae565b9091506020813d8211611709575b816116f9602093836120de565b810103126103005751908861160f565b3d91506116ec565b91505061171f915084612303565b61172f61ffff6006541682612529565b6117388161239c565b9061174d8260018060a01b0360085416612547565b866113f5565b50335f908152600a602052604090205460ff166113b0565b346103005760203660031901126103005760043567ffffffffffffffff8111610300573660238201121561030057806004013567ffffffffffffffff81116103005760248201916024369160608402010111610300576008546001600160a01b031633148015611bd9575b6117e190339061227c565b8015611bca575f805b8282106119da5761180591503361271061ffff8316146122d7565b6801000000000000000081116119c65760055481600555808210611968575b508160055f527f036b6384b5eca791c62761152d0c79bb0604c104a5fb6f4eb0703f3154bb3db0905f905b8382106118f35750505060405190806020830160208452526040820192905f905b80821061189f577ff03f27b120f22a322a2739013fae7420a3e13bcd29094abd0fd913746b5de90984860385a1005b90919384359060018060a01b0382168092036103005760608160019382935261ffff6118cd60208a01612085565b16602082015261ffff6118e260408a01612085565b166040820152019501920190611870565b60019081906060906001600160a01b0361190c826122b4565b87546001600160a01b0319169116178655611929602082016122c8565b865461ffff60b01b61193d604085016122c8565b60b01b169161ffff60a01b9060a01b169063ffffffff60a01b1916171786550193019101909161184f565b7f036b6384b5eca791c62761152d0c79bb0604c104a5fb6f4eb0703f3154bb3db001817f036b6384b5eca791c62761152d0c79bb0604c104a5fb6f4eb0703f3154bb3db0015b8181106119bb5750611824565b5f81556001016119ae565b634e487b7160e01b5f52604160045260245ffd5b602460206001600160a01b036119f96119f486888a6122a4565b6122b4565b6040516301ffc9a760e01b81526322d0cfa760e11b600482015293849290918391165afa80156104d7575f90611b8e575b611a4e91506001600160a01b03611a456119f486888a6122a4565b1690339061224f565b6001600160a01b03611a646119f48486886122a4565b16151580611b69575b611a87906001600160a01b03611a456119f486888a6122a4565b61271061ffff611aa36020611a9d86888a6122a4565b016122c8565b16111580611b48575b611ac890611ac06020611a9d86888a6122a4565b9033906122d7565b61271061ffff611ade6040611a9d86888a6122a4565b16111580611b27575b611afb90611ac06040611a9d86888a6122a4565b61ffff80611b0f6020611a9d86888a6122a4565b1691160161ffff8111610a0f576001909101906117ea565b50611afb61ffff611b3e6040611a9d86888a6122a4565b1615159050611ae7565b50611ac861ffff611b5f6020611a9d86888a6122a4565b1615159050611aac565b50611a876001600160a01b03611b836119f48587896122a4565b163014159050611a6d565b506020813d8211611bc2575b81611ba7602093836120de565b810103126103005751801515810361030057611a4e90611a2a565b3d9150611b9a565b63ab395a5960e01b5f5260045ffd5b50335f908152600a602052604090205460ff166117d6565b34610300575f366003190112610300576040517f00000000000000000000000000000000000000000000000000000000000000006001600160a01b03168152602090f35b3461030057602036600319011261030057611c4e611fe9565b6008546001600160a01b031690611c739033831480156103925761034390339061227c565b5f908152600a60205260409020805460ff19166001179055005b34610300575f3660031901126103005760ff7f00000000000000000000000000000000000000000000000000000000000000001660ff8111610a0f57602090604051908152f35b3461030057606036600319011261030057610fad611cf0611fe9565b611cf8611fff565b60443591611d078333836123c9565b61246c565b34610300575f366003190112610300576008546040516001600160a01b039091168152602090f35b34610300575f366003190112610300576009546040516001600160a01b039091168152602090f35b34610300575f366003190112610300576020600254604051908152f35b3461030057602036600319011261030057602061056a60043561236e565b3461030057604036600319011261030057611db0611fe9565b602435903315611e2c576001600160a01b0316908115611e1957335f52600160205260405f20825f526020528060405f20556040519081527f8c5be1e5ebec7d5bd14f71427d1e84f3dd0314c0f7b2291e5b200ac8c7c3b92560203392a3602060405160018152f35b634a1406b160e11b5f525f60045260245ffd5b63e602df0560e01b5f525f60045260245ffd5b34610300575f366003190112610300577f8789004e95165dcb471f9ef87eb66985584669c787d84930516a2781db98eab36102da600d5460018060a01b03811690611e918280331461035f3382612227565b600980546001600160a01b03198082169094179091559116600d55604080516001600160a01b03909216825233602083015290918291820190565b34610300575f366003190112610300576040515f6003548060011c90600181168015611f7d575b60208310811461117f5782855290811561115b5750600114611f1f576110f9836110ed818503826120de565b91905060035f527fc2575a0e9e593c00f959f8c92f12db2869c3395a3b0502d05e2516446f71f85b915f905b808210611f63575090915081016020016110ed6110dd565b919260018160209254838588010152019101909291611f4b565b91607f1691611ef3565b34610300575f36600319011261030057602061056a61210d565b602060409281835280519182918282860152018484015e5f828201840152601f01601f1916010190565b3461030057602036600319011261030057602061056a600435612341565b600435906001600160a01b038216820361030057565b602435906001600160a01b038216820361030057565b346103005760203660031901126103005761202e611fe9565b5060206040515f198152f35b606090600319011261030057600435906024356001600160a01b038116810361030057906044356001600160a01b03811681036103005790565b6004359061ffff8216820361030057565b359061ffff8216820361030057565b3461030057602036600319011261030057602061056a60043561239c565b6005548110156120ca5760055f5260205f2001905f90565b634e487b7160e01b5f52603260045260245ffd5b90601f8019910116810190811067ffffffffffffffff8211176119c657604052565b91908201809211610a0f57565b6040516370a0823160e01b81523060048201526020816024817f00000000000000000000000000000000000000000000000000000000000000006001600160a01b03165afa9081156104d7575f916121f5575b505f6005545b80821061217257505090565b909160046020612181856120b2565b5054604051633880f6ff60e21b815292839182906001600160a01b03165afa9081156104d7575f916121c3575b506121bb90600192612100565b920190612166565b90506020813d82116121ed575b816121dd602093836120de565b81010312610300575160016121ae565b3d91506121d0565b90506020813d60201161221f575b81612210602093836120de565b8101031261030057515f612160565b3d9150612203565b1561222f5750565b631a07c7cb60e31b5f9081526001600160a01b0391909116600452602490fd5b15612258575050565b6347f28b9f60e11b5f9081526001600160a01b039182166004529116602452604490fd5b156122845750565b637a612c2b60e01b5f9081526001600160a01b0391909116600452602490fd5b91908110156120ca576060020190565b356001600160a01b03811681036103005790565b3561ffff811681036103005790565b156122e0575050565b61ffff9250637f92c48560e01b5f5260018060a01b03166004521660245260445ffd5b91908203918211610a0f57565b61231861210d565b9060018201809211610a0f5760025460018101809111610a0f5761233e9260019261282e565b90565b61234961210d565b9060018201809211610a0f5760025460018101809111610a0f5761233e925f9261282e565b6002549060018201809211610a0f5761238561210d565b60018101809111610a0f5761233e9260019261282e565b6002549060018201809211610a0f576123b361210d565b60018101809111610a0f5761233e925f9261282e565b6001600160a01b039081165f818152600160209081526040808320948616835293905291909120549291905f198410612403575b50505050565b828410612449578015611e2c576001600160a01b03821615611e19575f52600160205260405f209060018060a01b03165f5260205260405f20910390555f8080806123fd565b508290637dc7a0d960e11b5f5260018060a01b031660045260245260445260645ffd5b6001600160a01b0316908115612516576001600160a01b031691821561250357815f525f60205260405f20548181106124ea57817fddf252ad1be2c89b69c2b068fc378daa952ba7f163c4a11628f55a4df523b3ef92602092855f525f84520360405f2055845f525f825260405f20818154019055604051908152a3565b8263391434e360e21b5f5260045260245260445260645ffd5b63ec442f0560e01b5f525f60045260245ffd5b634b637e8f60e11b5f525f60045260245ffd5b9061ffff1690818102918183041490151715610a0f57612710900490565b6001600160a01b0316908115612503577fddf252ad1be2c89b69c2b068fc378daa952ba7f163c4a11628f55a4df523b3ef6020826125885f94600254612100565b60025584845283825260408420818154019055604051908152a3565b67ffffffffffffffff81116119c65760051b60200190565b80518210156120ca5760209160051b010190565b60027f9b779b17422d0df92223018b32b4d1fa46e071723d6817e2486d003becc55f00541461261f5760027f9b779b17422d0df92223018b32b4d1fa46e071723d6817e2486d003becc55f0055565b633ee5aeb560e01b5f5260045ffd5b6040516323b872dd60e01b5f9081526001600160a01b0392831660048190523060245260448690529495927f000000000000000000000000000000000000000000000000000000000000000016919060209060648180865af19060015f51148216156126fa575b6040525f606052156126e8575081816126d16040937fdcbc1c05240f31ff3ad067ef1ee35ce4997762752e3a095284754544f4c709d795612547565b825195865260208601526001600160a01b031693a3565b635274afe760e01b5f5260045260245ffd5b90600181151661271257823b15153d15161690612695565b503d5f823e3d90fd5b6001600160a01b0380841695908216939091829087860361281d575b505050841561251657845f525f60205260405f20548181106128045791816040927ffbde797d201c681b91056529119e0b02407c7bb96a4a2c75c01fc9667232c8db94885f525f60205203835f205580600254036002555f877fddf252ad1be2c89b69c2b068fc378daa952ba7f163c4a11628f55a4df523b3ef60208651858152a36127ed86837f00000000000000000000000000000000000000000000000000000000000000006001600160a01b03166128a0565b825195865260208601526001600160a01b031693a4565b8563391434e360e21b5f5260045260245260445260645ffd5b612826926123c9565b5f8181612737565b929161283b818386612918565b92600481101561288c576001809116149182612861575b505061233e9250151590612100565b90809250156128785761233e930915155f80612852565b634e487b7160e01b5f52601260045260245ffd5b634e487b7160e01b5f52602160045260245ffd5b916040519163a9059cbb60e01b5f5260018060a01b031660045260245260205f60448180865af19060015f5114821615612900575b604052156128e05750565b635274afe760e01b5f9081526001600160a01b0391909116600452602490fd5b90600181151661271257823b15153d151616906128d5565b90915f1983830992808302928380861095039480860395146129a957848311156129915790829109815f0382168092046002816003021880820260020302808202600203028082026002030280820260020302808202600203028091026002030293600183805f03040190848311900302920304170290565b82634e487b715f52156003026011186020526024601cfd5b50509150811561287857049056fe414ecc12bda3f7926ad966fc1a837cbb292b81fc6bb4a378183b6341ed22c3a0a2646970667358221220651443543e68e2091310c99d9731e4c140c46742427a0f57ff83890684d15e8864736f6c634300081c0033",
  "linkReferences": {},
  "deployedLinkReferences": {},
  "immutableReferences": {
    "1016": [
      {
        "length": 32,
        "start": 1122
      },
      {
        "length": 32,
        "start": 2015
      },
      {
        "length": 32,
        "start": 3148
      },
      {
        "length": 32,
        "start": 3400
      },
      {
        "length": 32,
        "start": 5254
      },
      {
        "length": 32,
        "start": 7174
      },
      {
        "length": 32,
        "start": 8488
      },
      {
        "length": 32,
        "start": 9819
      },
      {
        "length": 32,
        "start": 10176
      }
    ],
    "1018": [
      {
        "length": 32,
        "start": 7329
      }
    ]
  },
  "inputSourceName": "project/contracts/vaults/VaultPrudentGlUSDPBackdoorAdmin.sol",
  "buildInfoId": "solc-0_8_28-0540d08b0973437e514017400b211a08c1bb6569"
}