{
	"data": {
		"bytecode": {
			"linkReferences": {},
			"object": "60c060405234801561000f575f5ffd5b50604051612ffd380380612ffd833981810160405281019061003191906103d8565b816040518060400160405280600c81526020017f476c6f772050727564656e7400000000000000000000000000000000000000008152506040518060400160405280600781526020017f676c5553442d500000000000000000000000000000000000000000000000000081525081600390816100ad9190610653565b5080600490816100bd9190610653565b5050505f5f6100d18361020960201b60201c565b91509150816100e15760126100e3565b805b60ff1660a08160ff16815250508273ffffffffffffffffffffffffffffffffffffffff1660808173ffffffffffffffffffffffffffffffffffffffff1681525050505050600161014561013a6102d560201b60201c565b6102fe60201b60201c565b5f01819055508160055f6101000a81548173ffffffffffffffffffffffffffffffffffffffff021916908373ffffffffffffffffffffffffffffffffffffffff16021790555060058060146101000a81548160ff021916908360ff160217905550600a600560156101000a81548160ff021916908360ff1602179055508060065f6101000a81548173ffffffffffffffffffffffffffffffffffffffff021916908373ffffffffffffffffffffffffffffffffffffffff1602179055505050610722565b5f5f5f61021a61030760201b60201c565b90505f5f6102788660405160240160405160208183030381529060405263313ce56760e01b6020820180517bffffffffffffffffffffffffffffffffffffffffffffffffffffffff838183161783525050505061031060201b60201c565b509150915061028c8361033160201b60201c565b8180156102a7575060206102a461033860201b60201c565b10155b80156102b8575060ff8016815f1c11155b6102c3575f5f6102c9565b6001815f1c5b94509450505050915091565b5f7f9b779b17422d0df92223018b32b4d1fa46e071723d6817e2486d003becc55f005f1b905090565b5f819050919050565b5f604051905090565b5f5f5f60405f855160208701885afa92505f51915060205190509250925092565b8060405250565b5f3d905090565b5f5ffd5b5f73ffffffffffffffffffffffffffffffffffffffff82169050919050565b5f61036c82610343565b9050919050565b5f61037d82610362565b9050919050565b61038d81610373565b8114610397575f5ffd5b50565b5f815190506103a881610384565b92915050565b6103b781610362565b81146103c1575f5ffd5b50565b5f815190506103d2816103ae565b92915050565b5f5f604083850312156103ee576103ed61033f565b5b5f6103fb8582860161039a565b925050602061040c858286016103c4565b9150509250929050565b5f81519050919050565b7f4e487b71000000000000000000000000000000000000000000000000000000005f52604160045260245ffd5b7f4e487b71000000000000000000000000000000000000000000000000000000005f52602260045260245ffd5b5f600282049050600182168061049157607f821691505b6020821081036104a4576104a361044d565b5b50919050565b5f819050815f5260205f209050919050565b5f6020601f8301049050919050565b5f82821b905092915050565b5f600883026105067fffffffffffffffffffffffffffffffffffffffffffffffffffffffffffffffff826104cb565b61051086836104cb565b95508019841693508086168417925050509392505050565b5f819050919050565b5f819050919050565b5f61055461054f61054a84610528565b610531565b610528565b9050919050565b5f819050919050565b61056d8361053a565b6105816105798261055b565b8484546104d7565b825550505050565b5f5f905090565b610598610589565b6105a3818484610564565b505050565b5b818110156105c6576105bb5f82610590565b6001810190506105a9565b5050565b601f82111561060b576105dc816104aa565b6105e5846104bc565b810160208510156105f4578190505b610608610600856104bc565b8301826105a8565b50505b505050565b5f82821c905092915050565b5f61062b5f1984600802610610565b1980831691505092915050565b5f610643838361061c565b9150826002028217905092915050565b61065c82610416565b67ffffffffffffffff81111561067557610674610420565b5b61067f825461047a565b61068a8282856105ca565b5f60209050601f8311600181146106bb575f84156106a9578287015190505b6106b38582610638565b86555061071a565b601f1984166106c9866104aa565b5f5b828110156106f0578489015182556001820191506020850194506020810190506106cb565b8683101561070d5784890151610709601f89168261061c565b8355505b6001600288020188555050505b505050505050565b60805160a0516128ba6107435f395f6109e101525f610a1201526128ba5ff3fe608060405234801561000f575f5ffd5b50600436106101ee575f3560e01c80636637b8821161010d578063b720eb2c116100a0578063ce96cb771161006f578063ce96cb771461062e578063d905777e1461065e578063dd62ed3e1461068e578063ef8b30f7146106be576101ee565b8063b720eb2c14610582578063ba0876521461059e578063c63d75b6146105ce578063c6e6f592146105fe576101ee565b806395d89b41116100dc57806395d89b41146104d4578063a9059cbb146104f2578063b3d7f6b914610522578063b460af9414610552576101ee565b80636637b882146104285780636e553f651461044457806370a082311461047457806394bf804d146104a4576101ee565b806323b872dd11610185578063402d267d11610154578063402d267d146103a05780634162169f146103d05780634641257d146103ee5780634cdad506146103f8576101ee565b806323b872dd1461031857806323be4cb414610348578063313ce5671461036457806338d52e0f14610382576101ee565b8063095ea7b3116101c1578063095ea7b31461027c5780630a28a477146102ac57806318160ddd146102dc578063213ecbba146102fa576101ee565b806301e1d114146101f257806303b10d921461021057806306fdde031461022e57806307a2d13a1461024c575b5f5ffd5b6101fa6106ee565b6040516102079190611fec565b60405180910390f35b610218610711565b6040516102259190612020565b60405180910390f35b610236610724565b60405161024391906120a9565b60405180910390f35b610266600480360381019061026191906120f7565b6107b4565b6040516102739190611fec565b60405180910390f35b6102966004803603810190610291919061217c565b6107c6565b6040516102a391906121d4565b60405180910390f35b6102c660048036038101906102c191906120f7565b6107e8565b6040516102d39190611fec565b60405180910390f35b6102e46107fb565b6040516102f19190611fec565b60405180910390f35b610302610804565b60405161030f9190612020565b60405180910390f35b610332600480360381019061032d91906121ed565b610817565b60405161033f91906121d4565b60405180910390f35b610362600480360381019061035d9190612267565b610845565b005b61036c6109d6565b6040516103799190612020565b60405180910390f35b61038a610a0f565b60405161039791906122a1565b60405180910390f35b6103ba60048036038101906103b591906122ba565b610a36565b6040516103c79190611fec565b60405180910390f35b6103d8610a5f565b6040516103e591906122a1565b60405180910390f35b6103f6610a84565b005b610412600480360381019061040d91906120f7565b610b15565b60405161041f9190611fec565b60405180910390f35b610442600480360381019061043d91906122ba565b610b27565b005b61045e600480360381019061045991906122e5565b610ccf565b60405161046b9190611fec565b60405180910390f35b61048e600480360381019061048991906122ba565b610ce2565b60405161049b9190611fec565b60405180910390f35b6104be60048036038101906104b991906122e5565b610d27565b6040516104cb9190611fec565b60405180910390f35b6104dc610da7565b6040516104e991906120a9565b60405180910390f35b61050c6004803603810190610507919061217c565b610e37565b60405161051991906121d4565b60405180910390f35b61053c600480360381019061053791906120f7565b610e59565b6040516105499190611fec565b60405180910390f35b61056c60048036038101906105679190612323565b610e6c565b6040516105799190611fec565b60405180910390f35b61059c60048036038101906105979190612267565b610eee565b005b6105b860048036038101906105b39190612323565b61107f565b6040516105c59190611fec565b60405180910390f35b6105e860048036038101906105e391906122ba565b6110a4565b6040516105f59190611fec565b60405180910390f35b610618600480360381019061061391906120f7565b6110cd565b6040516106259190611fec565b60405180910390f35b610648600480360381019061064391906122ba565b6110df565b6040516106559190611fec565b60405180910390f35b610678600480360381019061067391906122ba565b6110f8565b6040516106859190611fec565b60405180910390f35b6106a860048036038101906106a39190612373565b611109565b6040516106b59190611fec565b60405180910390f35b6106d860048036038101906106d391906120f7565b61118b565b6040516106e59190611fec565b60405180910390f35b5f5f6106f861119d565b90505f5f9050808261070a91906123de565b9250505090565b600560159054906101000a900460ff1681565b6060600380546107339061243e565b80601f016020809104026020016040519081016040528092919081815260200182805461075f9061243e565b80156107aa5780601f10610781576101008083540402835291602001916107aa565b820191905f5260205f20905b81548152906001019060200180831161078d57829003601f168201915b5050505050905090565b5f6107bf825f611222565b9050919050565b5f5f6107d061127a565b90506107dd818585611281565b600191505092915050565b5f6107f4826001611293565b9050919050565b5f600254905090565b600560149054906101000a900460ff1681565b5f5f61082161127a565b905061082e8582856112eb565b61083985858561137e565b60019150509392505050565b60065f9054906101000a900473ffffffffffffffffffffffffffffffffffffffff1673ffffffffffffffffffffffffffffffffffffffff163373ffffffffffffffffffffffffffffffffffffffff16146108d4576040517f08c379a00000000000000000000000000000000000000000000000000000000081526004016108cb906124b8565b60405180910390fd5b60648160ff16111580156108eb57505f8160ff1610155b6040518060400160405280600481526020017f46656573000000000000000000000000000000000000000000000000000000008152503383909192610968576040517fffdfa1d700000000000000000000000000000000000000000000000000000000815260040161095f93929190612528565b60405180910390fd5b5050505f600560149054906101000a900460ff16905081600560146101000a81548160ff021916908360ff1602179055507f08d051ebdadbacb724112408212229c216b3f65ef4e8276c1dbfbdd7f9d9f0df81836040516109ca929190612564565b60405180910390a15050565b5f6109df61146e565b7f0000000000000000000000000000000000000000000000000000000000000000610a0a919061258b565b905090565b5f7f0000000000000000000000000000000000000000000000000000000000000000905090565b5f7fffffffffffffffffffffffffffffffffffffffffffffffffffffffffffffffff9050919050565b60065f9054906101000a900473ffffffffffffffffffffffffffffffffffffffff1681565b60065f9054906101000a900473ffffffffffffffffffffffffffffffffffffffff1673ffffffffffffffffffffffffffffffffffffffff163373ffffffffffffffffffffffffffffffffffffffff1614610b13576040517f08c379a0000000000000000000000000000000000000000000000000000000008152600401610b0a906124b8565b60405180910390fd5b565b5f610b20825f611222565b9050919050565b60065f9054906101000a900473ffffffffffffffffffffffffffffffffffffffff1673ffffffffffffffffffffffffffffffffffffffff163373ffffffffffffffffffffffffffffffffffffffff1614610bb6576040517f08c379a0000000000000000000000000000000000000000000000000000000008152600401610bad906124b8565b60405180910390fd5b5f73ffffffffffffffffffffffffffffffffffffffff168173ffffffffffffffffffffffffffffffffffffffff16141533829091610c2b576040517f91e3e468000000000000000000000000000000000000000000000000000000008152600401610c229291906125bf565b60405180910390fd5b50505f60065f9054906101000a900473ffffffffffffffffffffffffffffffffffffffff1690508160065f6101000a81548173ffffffffffffffffffffffffffffffffffffffff021916908373ffffffffffffffffffffffffffffffffffffffff1602179055507ffcde6c827a52b0870bc44ed9b10212272e18c9ea1725b772e9b493750afd8da48183604051610cc39291906125bf565b60405180910390a15050565b5f610cda8383611475565b905092915050565b5f5f5f8373ffffffffffffffffffffffffffffffffffffffff1673ffffffffffffffffffffffffffffffffffffffff1681526020019081526020015f20549050919050565b5f5f610d32836110a4565b905080841115610d7d578284826040517f284ff667000000000000000000000000000000000000000000000000000000008152600401610d74939291906125e6565b60405180910390fd5b5f610d8785610e59565b9050610d9c610d9461127a565b8583886114f5565b809250505092915050565b606060048054610db69061243e565b80601f0160208091040260200160405190810160405280929190818152602001828054610de29061243e565b8015610e2d5780601f10610e0457610100808354040283529160200191610e2d565b820191905f5260205f20905b815481529060010190602001808311610e1057829003601f168201915b5050505050905090565b5f5f610e4161127a565b9050610e4e81858561137e565b600191505092915050565b5f610e65826001611222565b9050919050565b5f5f610e77836110df565b905080851115610ec2578285826040517ffe9cceec000000000000000000000000000000000000000000000000000000008152600401610eb9939291906125e6565b60405180910390fd5b5f610ecc866107e8565b9050610ee2610ed961127a565b86868985611576565b80925050509392505050565b60065f9054906101000a900473ffffffffffffffffffffffffffffffffffffffff1673ffffffffffffffffffffffffffffffffffffffff163373ffffffffffffffffffffffffffffffffffffffff1614610f7d576040517f08c379a0000000000000000000000000000000000000000000000000000000008152600401610f74906124b8565b60405180910390fd5b60648160ff1611158015610f9457505f8160ff1610155b6040518060400160405280601081526020017f4c697175696469747920627566666572000000000000000000000000000000008152503383909192611011576040517fffdfa1d700000000000000000000000000000000000000000000000000000000815260040161100893929190612528565b60405180910390fd5b5050505f600560159054906101000a900460ff16905081600560156101000a81548160ff021916908360ff1602179055507f55d57c9e4669fc49502950cd59931e19c3a442bb1d264978dd364ede0b0d077f8183604051611073929190612564565b60405180910390a15050565b5f61108861164e565b611093848484611670565b905061109d6116f2565b9392505050565b5f7fffffffffffffffffffffffffffffffffffffffffffffffffffffffffffffffff9050919050565b5f6110d8825f611293565b9050919050565b5f6110f16110ec836110f8565b610b15565b9050919050565b5f61110282610ce2565b9050919050565b5f60015f8473ffffffffffffffffffffffffffffffffffffffff1673ffffffffffffffffffffffffffffffffffffffff1681526020019081526020015f205f8373ffffffffffffffffffffffffffffffffffffffff1673ffffffffffffffffffffffffffffffffffffffff1681526020019081526020015f2054905092915050565b5f611196825f611293565b9050919050565b5f6111a6610a0f565b73ffffffffffffffffffffffffffffffffffffffff166370a08231306040518263ffffffff1660e01b81526004016111de91906122a1565b602060405180830381865afa1580156111f9573d5f5f3e3d5ffd5b505050506040513d601f19601f8201168201806040525081019061121d919061262f565b905090565b5f61127260016112306106ee565b61123a91906123de565b61124261146e565b600a61124e9190612789565b6112566107fb565b61126091906123de565b848661170c909392919063ffffffff16565b905092915050565b5f33905090565b61128e8383836001611759565b505050565b5f6112e361129f61146e565b600a6112ab9190612789565b6112b36107fb565b6112bd91906123de565b60016112c76106ee565b6112d191906123de565b848661170c909392919063ffffffff16565b905092915050565b5f6112f68484611109565b90507fffffffffffffffffffffffffffffffffffffffffffffffffffffffffffffffff8110156113785781811015611369578281836040517ffb8f41b2000000000000000000000000000000000000000000000000000000008152600401611360939291906125e6565b60405180910390fd5b61137784848484035f611759565b5b50505050565b5f73ffffffffffffffffffffffffffffffffffffffff168373ffffffffffffffffffffffffffffffffffffffff16036113ee575f6040517f96c6fd1e0000000000000000000000000000000000000000000000000000000081526004016113e591906122a1565b60405180910390fd5b5f73ffffffffffffffffffffffffffffffffffffffff168273ffffffffffffffffffffffffffffffffffffffff160361145e575f6040517fec442f0500000000000000000000000000000000000000000000000000000000815260040161145591906122a1565b60405180910390fd5b611469838383611928565b505050565b5f5f905090565b5f5f61148083610a36565b9050808411156114cb578284826040517f79012fb20000000000000000000000000000000000000000000000000000000081526004016114c2939291906125e6565b60405180910390fd5b5f6114d58561118b565b90506114ea6114e261127a565b8587846114f5565b809250505092915050565b6114ff8483611b41565b6115098382611b58565b8273ffffffffffffffffffffffffffffffffffffffff168473ffffffffffffffffffffffffffffffffffffffff167fdcbc1c05240f31ff3ad067ef1ee35ce4997762752e3a095284754544f4c709d784846040516115689291906127d3565b60405180910390a350505050565b8273ffffffffffffffffffffffffffffffffffffffff168573ffffffffffffffffffffffffffffffffffffffff16146115b5576115b48386836112eb565b5b6115bf8382611bd7565b6115c98483611c56565b8273ffffffffffffffffffffffffffffffffffffffff168473ffffffffffffffffffffffffffffffffffffffff168673ffffffffffffffffffffffffffffffffffffffff167ffbde797d201c681b91056529119e0b02407c7bb96a4a2c75c01fc9667232c8db858560405161163f9291906127d3565b60405180910390a45050505050565b611656611c6c565b6002611668611663611cad565b611cd6565b5f0181905550565b5f5f61167b836110f8565b9050808511156116c6578285826040517fb94abeec0000000000000000000000000000000000000000000000000000000081526004016116bd939291906125e6565b60405180910390fd5b5f6116d086610b15565b90506116e66116dd61127a565b8686848a611576565b80925050509392505050565b60016117046116ff611cad565b611cd6565b5f0181905550565b5f61173a61171983611cdf565b801561173557505f84806117305761172f6127fa565b5b868809115b611d0c565b611745868686611d17565b61174f91906123de565b9050949350505050565b5f73ffffffffffffffffffffffffffffffffffffffff168473ffffffffffffffffffffffffffffffffffffffff16036117c9575f6040517fe602df050000000000000000000000000000000000000000000000000000000081526004016117c091906122a1565b60405180910390fd5b5f73ffffffffffffffffffffffffffffffffffffffff168373ffffffffffffffffffffffffffffffffffffffff1603611839575f6040517f94280d6200000000000000000000000000000000000000000000000000000000815260040161183091906122a1565b60405180910390fd5b8160015f8673ffffffffffffffffffffffffffffffffffffffff1673ffffffffffffffffffffffffffffffffffffffff1681526020019081526020015f205f8573ffffffffffffffffffffffffffffffffffffffff1673ffffffffffffffffffffffffffffffffffffffff1681526020019081526020015f20819055508015611922578273ffffffffffffffffffffffffffffffffffffffff168473ffffffffffffffffffffffffffffffffffffffff167f8c5be1e5ebec7d5bd14f71427d1e84f3dd0314c0f7b2291e5b200ac8c7c3b925846040516119199190611fec565b60405180910390a35b50505050565b5f73ffffffffffffffffffffffffffffffffffffffff168373ffffffffffffffffffffffffffffffffffffffff1603611978578060025f82825461196c91906123de565b92505081905550611a46565b5f5f5f8573ffffffffffffffffffffffffffffffffffffffff1673ffffffffffffffffffffffffffffffffffffffff1681526020019081526020015f2054905081811015611a01578381836040517fe450d38c0000000000000000000000000000000000000000000000000000000081526004016119f8939291906125e6565b60405180910390fd5b8181035f5f8673ffffffffffffffffffffffffffffffffffffffff1673ffffffffffffffffffffffffffffffffffffffff1681526020019081526020015f2081905550505b5f73ffffffffffffffffffffffffffffffffffffffff168273ffffffffffffffffffffffffffffffffffffffff1603611a8d578060025f8282540392505081905550611ad7565b805f5f8473ffffffffffffffffffffffffffffffffffffffff1673ffffffffffffffffffffffffffffffffffffffff1681526020019081526020015f205f82825401925050819055505b8173ffffffffffffffffffffffffffffffffffffffff168373ffffffffffffffffffffffffffffffffffffffff167fddf252ad1be2c89b69c2b068fc378daa952ba7f163c4a11628f55a4df523b3ef83604051611b349190611fec565b60405180910390a3505050565b611b54611b4c610a0f565b833084611df6565b5050565b5f73ffffffffffffffffffffffffffffffffffffffff168273ffffffffffffffffffffffffffffffffffffffff1603611bc8575f6040517fec442f05000000000000000000000000000000000000000000000000000000008152600401611bbf91906122a1565b60405180910390fd5b611bd35f8383611928565b5050565b5f73ffffffffffffffffffffffffffffffffffffffff168273ffffffffffffffffffffffffffffffffffffffff1603611c47575f6040517f96c6fd1e000000000000000000000000000000000000000000000000000000008152600401611c3e91906122a1565b60405180910390fd5b611c52825f83611928565b5050565b611c68611c61610a0f565b8383611e4b565b5050565b611c74611e9e565b15611cab576040517f3ee5aeb500000000000000000000000000000000000000000000000000000000815260040160405180910390fd5b565b5f7f9b779b17422d0df92223018b32b4d1fa46e071723d6817e2486d003becc55f005f1b905090565b5f819050919050565b5f60016002836003811115611cf757611cf6612827565b5b611d019190612854565b60ff16149050919050565b5f8115159050919050565b5f5f5f611d248686611eba565b915091505f8203611d4957838181611d3f57611d3e6127fa565b5b0492505050611def565b818411611d6857611d67611d625f861460126011611ed7565b611ef0565b5b5f8486880990508181118303925080820391505f855f038616905080860495508083049250600181825f0304019050808402831792505f600287600302189050808702600203810290508087026002038102905080870260020381029050808702600203810290508087026002038102905080870260020381029050808402955050505050505b9392505050565b611e04848484846001611f01565b611e4557836040517f5274afe7000000000000000000000000000000000000000000000000000000008152600401611e3c91906122a1565b60405180910390fd5b50505050565b611e588383836001611f72565b611e9957826040517f5274afe7000000000000000000000000000000000000000000000000000000008152600401611e9091906122a1565b60405180910390fd5b505050565b5f6002611eb1611eac611cad565b611cd6565b5f015414905090565b5f5f5f198385098385029150818110828203039250509250929050565b5f611ee184611d0c565b82841802821890509392505050565b634e487b715f52806020526024601cfd5b5f5f6323b872dd60e01b9050604051815f525f1960601c87166004525f1960601c86166024528460445260205f60645f5f8c5af1925060015f51148316611f5f578383151615611f53573d5f823e3d81fd5b5f883b113d1516831692505b806040525f606052505095945050505050565b5f5f63a9059cbb60e01b9050604051815f525f1960601c86166004528460245260205f60445f5f8b5af1925060015f51148316611fc6578383151615611fba573d5f823e3d81fd5b5f873b113d1516831692505b806040525050949350505050565b5f819050919050565b611fe681611fd4565b82525050565b5f602082019050611fff5f830184611fdd565b92915050565b5f60ff82169050919050565b61201a81612005565b82525050565b5f6020820190506120335f830184612011565b92915050565b5f81519050919050565b5f82825260208201905092915050565b8281835e5f83830152505050565b5f601f19601f8301169050919050565b5f61207b82612039565b6120858185612043565b9350612095818560208601612053565b61209e81612061565b840191505092915050565b5f6020820190508181035f8301526120c18184612071565b905092915050565b5f5ffd5b6120d681611fd4565b81146120e0575f5ffd5b50565b5f813590506120f1816120cd565b92915050565b5f6020828403121561210c5761210b6120c9565b5b5f612119848285016120e3565b91505092915050565b5f73ffffffffffffffffffffffffffffffffffffffff82169050919050565b5f61214b82612122565b9050919050565b61215b81612141565b8114612165575f5ffd5b50565b5f8135905061217681612152565b92915050565b5f5f60408385031215612192576121916120c9565b5b5f61219f85828601612168565b92505060206121b0858286016120e3565b9150509250929050565b5f8115159050919050565b6121ce816121ba565b82525050565b5f6020820190506121e75f8301846121c5565b92915050565b5f5f5f60608486031215612204576122036120c9565b5b5f61221186828701612168565b935050602061222286828701612168565b9250506040612233868287016120e3565b9150509250925092565b61224681612005565b8114612250575f5ffd5b50565b5f813590506122618161223d565b92915050565b5f6020828403121561227c5761227b6120c9565b5b5f61228984828501612253565b91505092915050565b61229b81612141565b82525050565b5f6020820190506122b45f830184612292565b92915050565b5f602082840312156122cf576122ce6120c9565b5b5f6122dc84828501612168565b91505092915050565b5f5f604083850312156122fb576122fa6120c9565b5b5f612308858286016120e3565b925050602061231985828601612168565b9150509250929050565b5f5f5f6060848603121561233a576123396120c9565b5b5f612347868287016120e3565b935050602061235886828701612168565b925050604061236986828701612168565b9150509250925092565b5f5f60408385031215612389576123886120c9565b5b5f61239685828601612168565b92505060206123a785828601612168565b9150509250929050565b7f4e487b71000000000000000000000000000000000000000000000000000000005f52601160045260245ffd5b5f6123e882611fd4565b91506123f383611fd4565b925082820190508082111561240b5761240a6123b1565b5b92915050565b7f4e487b71000000000000000000000000000000000000000000000000000000005f52602260045260245ffd5b5f600282049050600182168061245557607f821691505b60208210810361246857612467612411565b5b50919050565b7f4f6e6c792044414f2063616e2063616c6c20746869732066756e6374696f6e005f82015250565b5f6124a2601f83612043565b91506124ad8261246e565b602082019050919050565b5f6020820190508181035f8301526124cf81612496565b9050919050565b5f81519050919050565b5f82825260208201905092915050565b5f6124fa826124d6565b61250481856124e0565b9350612514818560208601612053565b61251d81612061565b840191505092915050565b5f6060820190508181035f83015261254081866124f0565b905061254f6020830185612292565b61255c6040830184612011565b949350505050565b5f6040820190506125775f830185612011565b6125846020830184612011565b9392505050565b5f61259582612005565b91506125a083612005565b9250828201905060ff8111156125b9576125b86123b1565b5b92915050565b5f6040820190506125d25f830185612292565b6125df6020830184612292565b9392505050565b5f6060820190506125f95f830186612292565b6126066020830185611fdd565b6126136040830184611fdd565b949350505050565b5f81519050612629816120cd565b92915050565b5f60208284031215612644576126436120c9565b5b5f6126518482850161261b565b91505092915050565b5f8160011c9050919050565b5f5f8291508390505b60018511156126af5780860481111561268b5761268a6123b1565b5b600185161561269a5780820291505b80810290506126a88561265a565b945061266f565b94509492505050565b5f826126c75760019050612782565b816126d4575f9050612782565b81600181146126ea57600281146126f457612723565b6001915050612782565b60ff841115612706576127056123b1565b5b8360020a91508482111561271d5761271c6123b1565b5b50612782565b5060208310610133831016604e8410600b84101617156127585782820a905083811115612753576127526123b1565b5b612782565b6127658484846001612666565b9250905081840481111561277c5761277b6123b1565b5b81810290505b9392505050565b5f61279382611fd4565b915061279e83612005565b92506127cb7fffffffffffffffffffffffffffffffffffffffffffffffffffffffffffffffff84846126b8565b905092915050565b5f6040820190506127e65f830185611fdd565b6127f36020830184611fdd565b9392505050565b7f4e487b71000000000000000000000000000000000000000000000000000000005f52601260045260245ffd5b7f4e487b71000000000000000000000000000000000000000000000000000000005f52602160045260245ffd5b5f61285e82612005565b915061286983612005565b925082612879576128786127fa565b5b82820690509291505056fea26469706673582212208dcb1339c4afc282d8934c324352285d9d745a1684124c4e237b2c1035ffc16964736f6c634300081c0033",
			"opcodes": "PUSH1 0xC0 PUSH1 0x40 MSTORE CALLVALUE DUP1 ISZERO PUSH2 0xF JUMPI PUSH0 PUSH0 REVERT JUMPDEST POP PUSH1 0x40 MLOAD PUSH2 0x2FFD CODESIZE SUB DUP1 PUSH2 0x2FFD DUP4 CODECOPY DUP2 DUP2 ADD PUSH1 0x40 MSTORE DUP2 ADD SWAP1 PUSH2 0x31 SWAP2 SWAP1 PUSH2 0x3D8 JUMP JUMPDEST DUP2 PUSH1 0x40 MLOAD DUP1 PUSH1 0x40 ADD PUSH1 0x40 MSTORE DUP1 PUSH1 0xC DUP2 MSTORE PUSH1 0x20 ADD PUSH32 0x476C6F772050727564656E740000000000000000000000000000000000000000 DUP2 MSTORE POP PUSH1 0x40 MLOAD DUP1 PUSH1 0x40 ADD PUSH1 0x40 MSTORE DUP1 PUSH1 0x7 DUP2 MSTORE PUSH1 0x20 ADD PUSH32 0x676C5553442D5000000000000000000000000000000000000000000000000000 DUP2 MSTORE POP DUP2 PUSH1 0x3 SWAP1 DUP2 PUSH2 0xAD SWAP2 SWAP1 PUSH2 0x653 JUMP JUMPDEST POP DUP1 PUSH1 0x4 SWAP1 DUP2 PUSH2 0xBD SWAP2 SWAP1 PUSH2 0x653 JUMP JUMPDEST POP POP POP PUSH0 PUSH0 PUSH2 0xD1 DUP4 PUSH2 0x209 PUSH1 0x20 SHL PUSH1 0x20 SHR JUMP JUMPDEST SWAP2 POP SWAP2 POP DUP2 PUSH2 0xE1 JUMPI PUSH1 0x12 PUSH2 0xE3 JUMP JUMPDEST DUP1 JUMPDEST PUSH1 0xFF AND PUSH1 0xA0 DUP2 PUSH1 0xFF AND DUP2 MSTORE POP POP DUP3 PUSH20 0xFFFFFFFFFFFFFFFFFFFFFFFFFFFFFFFFFFFFFFFF AND PUSH1 0x80 DUP2 PUSH20 0xFFFFFFFFFFFFFFFFFFFFFFFFFFFFFFFFFFFFFFFF AND DUP2 MSTORE POP POP POP POP POP PUSH1 0x1 PUSH2 0x145 PUSH2 0x13A PUSH2 0x2D5 PUSH1 0x20 SHL PUSH1 0x20 SHR JUMP JUMPDEST PUSH2 0x2FE PUSH1 0x20 SHL PUSH1 0x20 SHR JUMP JUMPDEST PUSH0 ADD DUP2 SWAP1 SSTORE POP DUP2 PUSH1 0x5 PUSH0 PUSH2 0x100 EXP DUP2 SLOAD DUP2 PUSH20 0xFFFFFFFFFFFFFFFFFFFFFFFFFFFFFFFFFFFFFFFF MUL NOT AND SWAP1 DUP4 PUSH20 0xFFFFFFFFFFFFFFFFFFFFFFFFFFFFFFFFFFFFFFFF AND MUL OR SWAP1 SSTORE POP PUSH1 0x5 DUP1 PUSH1 0x14 PUSH2 0x100 EXP DUP2 SLOAD DUP2 PUSH1 0xFF MUL NOT AND SWAP1 DUP4 PUSH1 0xFF AND MUL OR SWAP1 SSTORE POP PUSH1 0xA PUSH1 0x5 PUSH1 0x15 PUSH2 0x100 EXP DUP2 SLOAD DUP2 PUSH1 0xFF MUL NOT AND SWAP1 DUP4 PUSH1 0xFF AND MUL OR SWAP1 SSTORE POP DUP1 PUSH1 0x6 PUSH0 PUSH2 0x100 EXP DUP2 SLOAD DUP2 PUSH20 0xFFFFFFFFFFFFFFFFFFFFFFFFFFFFFFFFFFFFFFFF MUL NOT AND SWAP1 DUP4 PUSH20 0xFFFFFFFFFFFFFFFFFFFFFFFFFFFFFFFFFFFFFFFF AND MUL OR SWAP1 SSTORE POP POP POP PUSH2 0x722 JUMP JUMPDEST PUSH0 PUSH0 PUSH0 PUSH2 0x21A PUSH2 0x307 PUSH1 0x20 SHL PUSH1 0x20 SHR JUMP JUMPDEST SWAP1 POP PUSH0 PUSH0 PUSH2 0x278 DUP7 PUSH1 0x40 MLOAD PUSH1 0x24 ADD PUSH1 0x40 MLOAD PUSH1 0x20 DUP2 DUP4 SUB SUB DUP2 MSTORE SWAP1 PUSH1 0x40 MSTORE PUSH4 0x313CE567 PUSH1 0xE0 SHL PUSH1 0x20 DUP3 ADD DUP1 MLOAD PUSH28 0xFFFFFFFFFFFFFFFFFFFFFFFFFFFFFFFFFFFFFFFFFFFFFFFFFFFFFFFF DUP4 DUP2 DUP4 AND OR DUP4 MSTORE POP POP POP POP PUSH2 0x310 PUSH1 0x20 SHL PUSH1 0x20 SHR JUMP JUMPDEST POP SWAP2 POP SWAP2 POP PUSH2 0x28C DUP4 PUSH2 0x331 PUSH1 0x20 SHL PUSH1 0x20 SHR JUMP JUMPDEST DUP2 DUP1 ISZERO PUSH2 0x2A7 JUMPI POP PUSH1 0x20 PUSH2 0x2A4 PUSH2 0x338 PUSH1 0x20 SHL PUSH1 0x20 SHR JUMP JUMPDEST LT ISZERO JUMPDEST DUP1 ISZERO PUSH2 0x2B8 JUMPI POP PUSH1 0xFF DUP1 AND DUP2 PUSH0 SHR GT ISZERO JUMPDEST PUSH2 0x2C3 JUMPI PUSH0 PUSH0 PUSH2 0x2C9 JUMP JUMPDEST PUSH1 0x1 DUP2 PUSH0 SHR JUMPDEST SWAP5 POP SWAP5 POP POP POP POP SWAP2 POP SWAP2 JUMP JUMPDEST PUSH0 PUSH32 0x9B779B17422D0DF92223018B32B4D1FA46E071723D6817E2486D003BECC55F00 PUSH0 SHL SWAP1 POP SWAP1 JUMP JUMPDEST PUSH0 DUP2 SWAP1 POP SWAP2 SWAP1 POP JUMP JUMPDEST PUSH0 PUSH1 0x40 MLOAD SWAP1 POP SWAP1 JUMP JUMPDEST PUSH0 PUSH0 PUSH0 PUSH1 0x40 PUSH0 DUP6 MLOAD PUSH1 0x20 DUP8 ADD DUP9 GAS STATICCALL SWAP3 POP PUSH0 MLOAD SWAP2 POP PUSH1 0x20 MLOAD SWAP1 POP SWAP3 POP SWAP3 POP SWAP3 JUMP JUMPDEST DUP1 PUSH1 0x40 MSTORE POP JUMP JUMPDEST PUSH0 RETURNDATASIZE SWAP1 POP SWAP1 JUMP JUMPDEST PUSH0 PUSH0 REVERT JUMPDEST PUSH0 PUSH20 0xFFFFFFFFFFFFFFFFFFFFFFFFFFFFFFFFFFFFFFFF DUP3 AND SWAP1 POP SWAP2 SWAP1 POP JUMP JUMPDEST PUSH0 PUSH2 0x36C DUP3 PUSH2 0x343 JUMP JUMPDEST SWAP1 POP SWAP2 SWAP1 POP JUMP JUMPDEST PUSH0 PUSH2 0x37D DUP3 PUSH2 0x362 JUMP JUMPDEST SWAP1 POP SWAP2 SWAP1 POP JUMP JUMPDEST PUSH2 0x38D DUP2 PUSH2 0x373 JUMP JUMPDEST DUP2 EQ PUSH2 0x397 JUMPI PUSH0 PUSH0 REVERT JUMPDEST POP JUMP JUMPDEST PUSH0 DUP2 MLOAD SWAP1 POP PUSH2 0x3A8 DUP2 PUSH2 0x384 JUMP JUMPDEST SWAP3 SWAP2 POP POP JUMP JUMPDEST PUSH2 0x3B7 DUP2 PUSH2 0x362 JUMP JUMPDEST DUP2 EQ PUSH2 0x3C1 JUMPI PUSH0 PUSH0 REVERT JUMPDEST POP JUMP JUMPDEST PUSH0 DUP2 MLOAD SWAP1 POP PUSH2 0x3D2 DUP2 PUSH2 0x3AE JUMP JUMPDEST SWAP3 SWAP2 POP POP JUMP JUMPDEST PUSH0 PUSH0 PUSH1 0x40 DUP4 DUP6 SUB SLT ISZERO PUSH2 0x3EE JUMPI PUSH2 0x3ED PUSH2 0x33F JUMP JUMPDEST JUMPDEST PUSH0 PUSH2 0x3FB DUP6 DUP3 DUP7 ADD PUSH2 0x39A JUMP JUMPDEST SWAP3 POP POP PUSH1 0x20 PUSH2 0x40C DUP6 DUP3 DUP7 ADD PUSH2 0x3C4 JUMP JUMPDEST SWAP2 POP POP SWAP3 POP SWAP3 SWAP1 POP JUMP JUMPDEST PUSH0 DUP2 MLOAD SWAP1 POP SWAP2 SWAP1 POP JUMP JUMPDEST PUSH32 0x4E487B7100000000000000000000000000000000000000000000000000000000 PUSH0 MSTORE PUSH1 0x41 PUSH1 0x4 MSTORE PUSH1 0x24 PUSH0 REVERT JUMPDEST PUSH32 0x4E487B7100000000000000000000000000000000000000000000000000000000 PUSH0 MSTORE PUSH1 0x22 PUSH1 0x4 MSTORE PUSH1 0x24 PUSH0 REVERT JUMPDEST PUSH0 PUSH1 0x2 DUP3 DIV SWAP1 POP PUSH1 0x1 DUP3 AND DUP1 PUSH2 0x491 JUMPI PUSH1 0x7F DUP3 AND SWAP2 POP JUMPDEST PUSH1 0x20 DUP3 LT DUP2 SUB PUSH2 0x4A4 JUMPI PUSH2 0x4A3 PUSH2 0x44D JUMP JUMPDEST JUMPDEST POP SWAP2 SWAP1 POP JUMP JUMPDEST PUSH0 DUP2 SWAP1 POP DUP2 PUSH0 MSTORE PUSH1 0x20 PUSH0 KECCAK256 SWAP1 POP SWAP2 SWAP1 POP JUMP JUMPDEST PUSH0 PUSH1 0x20 PUSH1 0x1F DUP4 ADD DIV SWAP1 POP SWAP2 SWAP1 POP JUMP JUMPDEST PUSH0 DUP3 DUP3 SHL SWAP1 POP SWAP3 SWAP2 POP POP JUMP JUMPDEST PUSH0 PUSH1 0x8 DUP4 MUL PUSH2 0x506 PUSH32 0xFFFFFFFFFFFFFFFFFFFFFFFFFFFFFFFFFFFFFFFFFFFFFFFFFFFFFFFFFFFFFFFF DUP3 PUSH2 0x4CB JUMP JUMPDEST PUSH2 0x510 DUP7 DUP4 PUSH2 0x4CB JUMP JUMPDEST SWAP6 POP DUP1 NOT DUP5 AND SWAP4 POP DUP1 DUP7 AND DUP5 OR SWAP3 POP POP POP SWAP4 SWAP3 POP POP POP JUMP JUMPDEST PUSH0 DUP2 SWAP1 POP SWAP2 SWAP1 POP JUMP JUMPDEST PUSH0 DUP2 SWAP1 POP SWAP2 SWAP1 POP JUMP JUMPDEST PUSH0 PUSH2 0x554 PUSH2 0x54F PUSH2 0x54A DUP5 PUSH2 0x528 JUMP JUMPDEST PUSH2 0x531 JUMP JUMPDEST PUSH2 0x528 JUMP JUMPDEST SWAP1 POP SWAP2 SWAP1 POP JUMP JUMPDEST PUSH0 DUP2 SWAP1 POP SWAP2 SWAP1 POP JUMP JUMPDEST PUSH2 0x56D DUP4 PUSH2 0x53A JUMP JUMPDEST PUSH2 0x581 PUSH2 0x579 DUP3 PUSH2 0x55B JUMP JUMPDEST DUP5 DUP5 SLOAD PUSH2 0x4D7 JUMP JUMPDEST DUP3 SSTORE POP POP POP POP JUMP JUMPDEST PUSH0 PUSH0 SWAP1 POP SWAP1 JUMP JUMPDEST PUSH2 0x598 PUSH2 0x589 JUMP JUMPDEST PUSH2 0x5A3 DUP2 DUP5 DUP5 PUSH2 0x564 JUMP JUMPDEST POP POP POP JUMP JUMPDEST JUMPDEST DUP2 DUP2 LT ISZERO PUSH2 0x5C6 JUMPI PUSH2 0x5BB PUSH0 DUP3 PUSH2 0x590 JUMP JUMPDEST PUSH1 0x1 DUP2 ADD SWAP1 POP PUSH2 0x5A9 JUMP JUMPDEST POP POP JUMP JUMPDEST PUSH1 0x1F DUP3 GT ISZERO PUSH2 0x60B JUMPI PUSH2 0x5DC DUP2 PUSH2 0x4AA JUMP JUMPDEST PUSH2 0x5E5 DUP5 PUSH2 0x4BC JUMP JUMPDEST DUP2 ADD PUSH1 0x20 DUP6 LT ISZERO PUSH2 0x5F4 JUMPI DUP2 SWAP1 POP JUMPDEST PUSH2 0x608 PUSH2 0x600 DUP6 PUSH2 0x4BC JUMP JUMPDEST DUP4 ADD DUP3 PUSH2 0x5A8 JUMP JUMPDEST POP POP JUMPDEST POP POP POP JUMP JUMPDEST PUSH0 DUP3 DUP3 SHR SWAP1 POP SWAP3 SWAP2 POP POP JUMP JUMPDEST PUSH0 PUSH2 0x62B PUSH0 NOT DUP5 PUSH1 0x8 MUL PUSH2 0x610 JUMP JUMPDEST NOT DUP1 DUP4 AND SWAP2 POP POP SWAP3 SWAP2 POP POP JUMP JUMPDEST PUSH0 PUSH2 0x643 DUP4 DUP4 PUSH2 0x61C JUMP JUMPDEST SWAP2 POP DUP3 PUSH1 0x2 MUL DUP3 OR SWAP1 POP SWAP3 SWAP2 POP POP JUMP JUMPDEST PUSH2 0x65C DUP3 PUSH2 0x416 JUMP JUMPDEST PUSH8 0xFFFFFFFFFFFFFFFF DUP2 GT ISZERO PUSH2 0x675 JUMPI PUSH2 0x674 PUSH2 0x420 JUMP JUMPDEST JUMPDEST PUSH2 0x67F DUP3 SLOAD PUSH2 0x47A JUMP JUMPDEST PUSH2 0x68A DUP3 DUP3 DUP6 PUSH2 0x5CA JUMP JUMPDEST PUSH0 PUSH1 0x20 SWAP1 POP PUSH1 0x1F DUP4 GT PUSH1 0x1 DUP2 EQ PUSH2 0x6BB JUMPI PUSH0 DUP5 ISZERO PUSH2 0x6A9 JUMPI DUP3 DUP8 ADD MLOAD SWAP1 POP JUMPDEST PUSH2 0x6B3 DUP6 DUP3 PUSH2 0x638 JUMP JUMPDEST DUP7 SSTORE POP PUSH2 0x71A JUMP JUMPDEST PUSH1 0x1F NOT DUP5 AND PUSH2 0x6C9 DUP7 PUSH2 0x4AA JUMP JUMPDEST PUSH0 JUMPDEST DUP3 DUP2 LT ISZERO PUSH2 0x6F0 JUMPI DUP5 DUP10 ADD MLOAD DUP3 SSTORE PUSH1 0x1 DUP3 ADD SWAP2 POP PUSH1 0x20 DUP6 ADD SWAP5 POP PUSH1 0x20 DUP2 ADD SWAP1 POP PUSH2 0x6CB JUMP JUMPDEST DUP7 DUP4 LT ISZERO PUSH2 0x70D JUMPI DUP5 DUP10 ADD MLOAD PUSH2 0x709 PUSH1 0x1F DUP10 AND DUP3 PUSH2 0x61C JUMP JUMPDEST DUP4 SSTORE POP JUMPDEST PUSH1 0x1 PUSH1 0x2 DUP9 MUL ADD DUP9 SSTORE POP POP POP JUMPDEST POP POP POP POP POP POP JUMP JUMPDEST PUSH1 0x80 MLOAD PUSH1 0xA0 MLOAD PUSH2 0x28BA PUSH2 0x743 PUSH0 CODECOPY PUSH0 PUSH2 0x9E1 ADD MSTORE PUSH0 PUSH2 0xA12 ADD MSTORE PUSH2 0x28BA PUSH0 RETURN INVALID PUSH1 0x80 PUSH1 0x40 MSTORE CALLVALUE DUP1 ISZERO PUSH2 0xF JUMPI PUSH0 PUSH0 REVERT JUMPDEST POP PUSH1 0x4 CALLDATASIZE LT PUSH2 0x1EE JUMPI PUSH0 CALLDATALOAD PUSH1 0xE0 SHR DUP1 PUSH4 0x6637B882 GT PUSH2 0x10D JUMPI DUP1 PUSH4 0xB720EB2C GT PUSH2 0xA0 JUMPI DUP1 PUSH4 0xCE96CB77 GT PUSH2 0x6F JUMPI DUP1 PUSH4 0xCE96CB77 EQ PUSH2 0x62E JUMPI DUP1 PUSH4 0xD905777E EQ PUSH2 0x65E JUMPI DUP1 PUSH4 0xDD62ED3E EQ PUSH2 0x68E JUMPI DUP1 PUSH4 0xEF8B30F7 EQ PUSH2 0x6BE JUMPI PUSH2 0x1EE JUMP JUMPDEST DUP1 PUSH4 0xB720EB2C EQ PUSH2 0x582 JUMPI DUP1 PUSH4 0xBA087652 EQ PUSH2 0x59E JUMPI DUP1 PUSH4 0xC63D75B6 EQ PUSH2 0x5CE JUMPI DUP1 PUSH4 0xC6E6F592 EQ PUSH2 0x5FE JUMPI PUSH2 0x1EE JUMP JUMPDEST DUP1 PUSH4 0x95D89B41 GT PUSH2 0xDC JUMPI DUP1 PUSH4 0x95D89B41 EQ PUSH2 0x4D4 JUMPI DUP1 PUSH4 0xA9059CBB EQ PUSH2 0x4F2 JUMPI DUP1 PUSH4 0xB3D7F6B9 EQ PUSH2 0x522 JUMPI DUP1 PUSH4 0xB460AF94 EQ PUSH2 0x552 JUMPI PUSH2 0x1EE JUMP JUMPDEST DUP1 PUSH4 0x6637B882 EQ PUSH2 0x428 JUMPI DUP1 PUSH4 0x6E553F65 EQ PUSH2 0x444 JUMPI DUP1 PUSH4 0x70A08231 EQ PUSH2 0x474 JUMPI DUP1 PUSH4 0x94BF804D EQ PUSH2 0x4A4 JUMPI PUSH2 0x1EE JUMP JUMPDEST DUP1 PUSH4 0x23B872DD GT PUSH2 0x185 JUMPI DUP1 PUSH4 0x402D267D GT PUSH2 0x154 JUMPI DUP1 PUSH4 0x402D267D EQ PUSH2 0x3A0 JUMPI DUP1 PUSH4 0x4162169F EQ PUSH2 0x3D0 JUMPI DUP1 PUSH4 0x4641257D EQ PUSH2 0x3EE JUMPI DUP1 PUSH4 0x4CDAD506 EQ PUSH2 0x3F8 JUMPI PUSH2 0x1EE JUMP JUMPDEST DUP1 PUSH4 0x23B872DD EQ PUSH2 0x318 JUMPI DUP1 PUSH4 0x23BE4CB4 EQ PUSH2 0x348 JUMPI DUP1 PUSH4 0x313CE567 EQ PUSH2 0x364 JUMPI DUP1 PUSH4 0x38D52E0F EQ PUSH2 0x382 JUMPI PUSH2 0x1EE JUMP JUMPDEST DUP1 PUSH4 0x95EA7B3 GT PUSH2 0x1C1 JUMPI DUP1 PUSH4 0x95EA7B3 EQ PUSH2 0x27C JUMPI DUP1 PUSH4 0xA28A477 EQ PUSH2 0x2AC JUMPI DUP1 PUSH4 0x18160DDD EQ PUSH2 0x2DC JUMPI DUP1 PUSH4 0x213ECBBA EQ PUSH2 0x2FA JUMPI PUSH2 0x1EE JUMP JUMPDEST DUP1 PUSH4 0x1E1D114 EQ PUSH2 0x1F2 JUMPI DUP1 PUSH4 0x3B10D92 EQ PUSH2 0x210 JUMPI DUP1 PUSH4 0x6FDDE03 EQ PUSH2 0x22E JUMPI DUP1 PUSH4 0x7A2D13A EQ PUSH2 0x24C JUMPI JUMPDEST PUSH0 PUSH0 REVERT JUMPDEST PUSH2 0x1FA PUSH2 0x6EE JUMP JUMPDEST PUSH1 0x40 MLOAD PUSH2 0x207 SWAP2 SWAP1 PUSH2 0x1FEC JUMP JUMPDEST PUSH1 0x40 MLOAD DUP1 SWAP2 SUB SWAP1 RETURN JUMPDEST PUSH2 0x218 PUSH2 0x711 JUMP JUMPDEST PUSH1 0x40 MLOAD PUSH2 0x225 SWAP2 SWAP1 PUSH2 0x2020 JUMP JUMPDEST PUSH1 0x40 MLOAD DUP1 SWAP2 SUB SWAP1 RETURN JUMPDEST PUSH2 0x236 PUSH2 0x724 JUMP JUMPDEST PUSH1 0x40 MLOAD PUSH2 0x243 SWAP2 SWAP1 PUSH2 0x20A9 JUMP JUMPDEST PUSH1 0x40 MLOAD DUP1 SWAP2 SUB SWAP1 RETURN JUMPDEST PUSH2 0x266 PUSH1 0x4 DUP1 CALLDATASIZE SUB DUP2 ADD SWAP1 PUSH2 0x261 SWAP2 SWAP1 PUSH2 0x20F7 JUMP JUMPDEST PUSH2 0x7B4 JUMP JUMPDEST PUSH1 0x40 MLOAD PUSH2 0x273 SWAP2 SWAP1 PUSH2 0x1FEC JUMP JUMPDEST PUSH1 0x40 MLOAD DUP1 SWAP2 SUB SWAP1 RETURN JUMPDEST PUSH2 0x296 PUSH1 0x4 DUP1 CALLDATASIZE SUB DUP2 ADD SWAP1 PUSH2 0x291 SWAP2 SWAP1 PUSH2 0x217C JUMP JUMPDEST PUSH2 0x7C6 JUMP JUMPDEST PUSH1 0x40 MLOAD PUSH2 0x2A3 SWAP2 SWAP1 PUSH2 0x21D4 JUMP JUMPDEST PUSH1 0x40 MLOAD DUP1 SWAP2 SUB SWAP1 RETURN JUMPDEST PUSH2 0x2C6 PUSH1 0x4 DUP1 CALLDATASIZE SUB DUP2 ADD SWAP1 PUSH2 0x2C1 SWAP2 SWAP1 PUSH2 0x20F7 JUMP JUMPDEST PUSH2 0x7E8 JUMP JUMPDEST PUSH1 0x40 MLOAD PUSH2 0x2D3 SWAP2 SWAP1 PUSH2 0x1FEC JUMP JUMPDEST PUSH1 0x40 MLOAD DUP1 SWAP2 SUB SWAP1 RETURN JUMPDEST PUSH2 0x2E4 PUSH2 0x7FB JUMP JUMPDEST PUSH1 0x40 MLOAD PUSH2 0x2F1 SWAP2 SWAP1 PUSH2 0x1FEC JUMP JUMPDEST PUSH1 0x40 MLOAD DUP1 SWAP2 SUB SWAP1 RETURN JUMPDEST PUSH2 0x302 PUSH2 0x804 JUMP JUMPDEST PUSH1 0x40 MLOAD PUSH2 0x30F SWAP2 SWAP1 PUSH2 0x2020 JUMP JUMPDEST PUSH1 0x40 MLOAD DUP1 SWAP2 SUB SWAP1 RETURN JUMPDEST PUSH2 0x332 PUSH1 0x4 DUP1 CALLDATASIZE SUB DUP2 ADD SWAP1 PUSH2 0x32D SWAP2 SWAP1 PUSH2 0x21ED JUMP JUMPDEST PUSH2 0x817 JUMP JUMPDEST PUSH1 0x40 MLOAD PUSH2 0x33F SWAP2 SWAP1 PUSH2 0x21D4 JUMP JUMPDEST PUSH1 0x40 MLOAD DUP1 SWAP2 SUB SWAP1 RETURN JUMPDEST PUSH2 0x362 PUSH1 0x4 DUP1 CALLDATASIZE SUB DUP2 ADD SWAP1 PUSH2 0x35D SWAP2 SWAP1 PUSH2 0x2267 JUMP JUMPDEST PUSH2 0x845 JUMP JUMPDEST STOP JUMPDEST PUSH2 0x36C PUSH2 0x9D6 JUMP JUMPDEST PUSH1 0x40 MLOAD PUSH2 0x379 SWAP2 SWAP1 PUSH2 0x2020 JUMP JUMPDEST PUSH1 0x40 MLOAD DUP1 SWAP2 SUB SWAP1 RETURN JUMPDEST PUSH2 0x38A PUSH2 0xA0F JUMP JUMPDEST PUSH1 0x40 MLOAD PUSH2 0x397 SWAP2 SWAP1 PUSH2 0x22A1 JUMP JUMPDEST PUSH1 0x40 MLOAD DUP1 SWAP2 SUB SWAP1 RETURN JUMPDEST PUSH2 0x3BA PUSH1 0x4 DUP1 CALLDATASIZE SUB DUP2 ADD SWAP1 PUSH2 0x3B5 SWAP2 SWAP1 PUSH2 0x22BA JUMP JUMPDEST PUSH2 0xA36 JUMP JUMPDEST PUSH1 0x40 MLOAD PUSH2 0x3C7 SWAP2 SWAP1 PUSH2 0x1FEC JUMP JUMPDEST PUSH1 0x40 MLOAD DUP1 SWAP2 SUB SWAP1 RETURN JUMPDEST PUSH2 0x3D8 PUSH2 0xA5F JUMP JUMPDEST PUSH1 0x40 MLOAD PUSH2 0x3E5 SWAP2 SWAP1 PUSH2 0x22A1 JUMP JUMPDEST PUSH1 0x40 MLOAD DUP1 SWAP2 SUB SWAP1 RETURN JUMPDEST PUSH2 0x3F6 PUSH2 0xA84 JUMP JUMPDEST STOP JUMPDEST PUSH2 0x412 PUSH1 0x4 DUP1 CALLDATASIZE SUB DUP2 ADD SWAP1 PUSH2 0x40D SWAP2 SWAP1 PUSH2 0x20F7 JUMP JUMPDEST PUSH2 0xB15 JUMP JUMPDEST PUSH1 0x40 MLOAD PUSH2 0x41F SWAP2 SWAP1 PUSH2 0x1FEC JUMP JUMPDEST PUSH1 0x40 MLOAD DUP1 SWAP2 SUB SWAP1 RETURN JUMPDEST PUSH2 0x442 PUSH1 0x4 DUP1 CALLDATASIZE SUB DUP2 ADD SWAP1 PUSH2 0x43D SWAP2 SWAP1 PUSH2 0x22BA JUMP JUMPDEST PUSH2 0xB27 JUMP JUMPDEST STOP JUMPDEST PUSH2 0x45E PUSH1 0x4 DUP1 CALLDATASIZE SUB DUP2 ADD SWAP1 PUSH2 0x459 SWAP2 SWAP1 PUSH2 0x22E5 JUMP JUMPDEST PUSH2 0xCCF JUMP JUMPDEST PUSH1 0x40 MLOAD PUSH2 0x46B SWAP2 SWAP1 PUSH2 0x1FEC JUMP JUMPDEST PUSH1 0x40 MLOAD DUP1 SWAP2 SUB SWAP1 RETURN JUMPDEST PUSH2 0x48E PUSH1 0x4 DUP1 CALLDATASIZE SUB DUP2 ADD SWAP1 PUSH2 0x489 SWAP2 SWAP1 PUSH2 0x22BA JUMP JUMPDEST PUSH2 0xCE2 JUMP JUMPDEST PUSH1 0x40 MLOAD PUSH2 0x49B SWAP2 SWAP1 PUSH2 0x1FEC JUMP JUMPDEST PUSH1 0x40 MLOAD DUP1 SWAP2 SUB SWAP1 RETURN JUMPDEST PUSH2 0x4BE PUSH1 0x4 DUP1 CALLDATASIZE SUB DUP2 ADD SWAP1 PUSH2 0x4B9 SWAP2 SWAP1 PUSH2 0x22E5 JUMP JUMPDEST PUSH2 0xD27 JUMP JUMPDEST PUSH1 0x40 MLOAD PUSH2 0x4CB SWAP2 SWAP1 PUSH2 0x1FEC JUMP JUMPDEST PUSH1 0x40 MLOAD DUP1 SWAP2 SUB SWAP1 RETURN JUMPDEST PUSH2 0x4DC PUSH2 0xDA7 JUMP JUMPDEST PUSH1 0x40 MLOAD PUSH2 0x4E9 SWAP2 SWAP1 PUSH2 0x20A9 JUMP JUMPDEST PUSH1 0x40 MLOAD DUP1 SWAP2 SUB SWAP1 RETURN JUMPDEST PUSH2 0x50C PUSH1 0x4 DUP1 CALLDATASIZE SUB DUP2 ADD SWAP1 PUSH2 0x507 SWAP2 SWAP1 PUSH2 0x217C JUMP JUMPDEST PUSH2 0xE37 JUMP JUMPDEST PUSH1 0x40 MLOAD PUSH2 0x519 SWAP2 SWAP1 PUSH2 0x21D4 JUMP JUMPDEST PUSH1 0x40 MLOAD DUP1 SWAP2 SUB SWAP1 RETURN JUMPDEST PUSH2 0x53C PUSH1 0x4 DUP1 CALLDATASIZE SUB DUP2 ADD SWAP1 PUSH2 0x537 SWAP2 SWAP1 PUSH2 0x20F7 JUMP JUMPDEST PUSH2 0xE59 JUMP JUMPDEST PUSH1 0x40 MLOAD PUSH2 0x549 SWAP2 SWAP1 PUSH2 0x1FEC JUMP JUMPDEST PUSH1 0x40 MLOAD DUP1 SWAP2 SUB SWAP1 RETURN JUMPDEST PUSH2 0x56C PUSH1 0x4 DUP1 CALLDATASIZE SUB DUP2 ADD SWAP1 PUSH2 0x567 SWAP2 SWAP1 PUSH2 0x2323 JUMP JUMPDEST PUSH2 0xE6C JUMP JUMPDEST PUSH1 0x40 MLOAD PUSH2 0x579 SWAP2 SWAP1 PUSH2 0x1FEC JUMP JUMPDEST PUSH1 0x40 MLOAD DUP1 SWAP2 SUB SWAP1 RETURN JUMPDEST PUSH2 0x59C PUSH1 0x4 DUP1 CALLDATASIZE SUB DUP2 ADD SWAP1 PUSH2 0x597 SWAP2 SWAP1 PUSH2 0x2267 JUMP JUMPDEST PUSH2 0xEEE JUMP JUMPDEST STOP JUMPDEST PUSH2 0x5B8 PUSH1 0x4 DUP1 CALLDATASIZE SUB DUP2 ADD SWAP1 PUSH2 0x5B3 SWAP2 SWAP1 PUSH2 0x2323 JUMP JUMPDEST PUSH2 0x107F JUMP JUMPDEST PUSH1 0x40 MLOAD PUSH2 0x5C5 SWAP2 SWAP1 PUSH2 0x1FEC JUMP JUMPDEST PUSH1 0x40 MLOAD DUP1 SWAP2 SUB SWAP1 RETURN JUMPDEST PUSH2 0x5E8 PUSH1 0x4 DUP1 CALLDATASIZE SUB DUP2 ADD SWAP1 PUSH2 0x5E3 SWAP2 SWAP1 PUSH2 0x22BA JUMP JUMPDEST PUSH2 0x10A4 JUMP JUMPDEST PUSH1 0x40 MLOAD PUSH2 0x5F5 SWAP2 SWAP1 PUSH2 0x1FEC JUMP JUMPDEST PUSH1 0x40 MLOAD DUP1 SWAP2 SUB SWAP1 RETURN JUMPDEST PUSH2 0x618 PUSH1 0x4 DUP1 CALLDATASIZE SUB DUP2 ADD SWAP1 PUSH2 0x613 SWAP2 SWAP1 PUSH2 0x20F7 JUMP JUMPDEST PUSH2 0x10CD JUMP JUMPDEST PUSH1 0x40 MLOAD PUSH2 0x625 SWAP2 SWAP1 PUSH2 0x1FEC JUMP JUMPDEST PUSH1 0x40 MLOAD DUP1 SWAP2 SUB SWAP1 RETURN JUMPDEST PUSH2 0x648 PUSH1 0x4 DUP1 CALLDATASIZE SUB DUP2 ADD SWAP1 PUSH2 0x643 SWAP2 SWAP1 PUSH2 0x22BA JUMP JUMPDEST PUSH2 0x10DF JUMP JUMPDEST PUSH1 0x40 MLOAD PUSH2 0x655 SWAP2 SWAP1 PUSH2 0x1FEC JUMP JUMPDEST PUSH1 0x40 MLOAD DUP1 SWAP2 SUB SWAP1 RETURN JUMPDEST PUSH2 0x678 PUSH1 0x4 DUP1 CALLDATASIZE SUB DUP2 ADD SWAP1 PUSH2 0x673 SWAP2 SWAP1 PUSH2 0x22BA JUMP JUMPDEST PUSH2 0x10F8 JUMP JUMPDEST PUSH1 0x40 MLOAD PUSH2 0x685 SWAP2 SWAP1 PUSH2 0x1FEC JUMP JUMPDEST PUSH1 0x40 MLOAD DUP1 SWAP2 SUB SWAP1 RETURN JUMPDEST PUSH2 0x6A8 PUSH1 0x4 DUP1 CALLDATASIZE SUB DUP2 ADD SWAP1 PUSH2 0x6A3 SWAP2 SWAP1 PUSH2 0x2373 JUMP JUMPDEST PUSH2 0x1109 JUMP JUMPDEST PUSH1 0x40 MLOAD PUSH2 0x6B5 SWAP2 SWAP1 PUSH2 0x1FEC JUMP JUMPDEST PUSH1 0x40 MLOAD DUP1 SWAP2 SUB SWAP1 RETURN JUMPDEST PUSH2 0x6D8 PUSH1 0x4 DUP1 CALLDATASIZE SUB DUP2 ADD SWAP1 PUSH2 0x6D3 SWAP2 SWAP1 PUSH2 0x20F7 JUMP JUMPDEST PUSH2 0x118B JUMP JUMPDEST PUSH1 0x40 MLOAD PUSH2 0x6E5 SWAP2 SWAP1 PUSH2 0x1FEC JUMP JUMPDEST PUSH1 0x40 MLOAD DUP1 SWAP2 SUB SWAP1 RETURN JUMPDEST PUSH0 PUSH0 PUSH2 0x6F8 PUSH2 0x119D JUMP JUMPDEST SWAP1 POP PUSH0 PUSH0 SWAP1 POP DUP1 DUP3 PUSH2 0x70A SWAP2 SWAP1 PUSH2 0x23DE JUMP JUMPDEST SWAP3 POP POP POP SWAP1 JUMP JUMPDEST PUSH1 0x5 PUSH1 0x15 SWAP1 SLOAD SWAP1 PUSH2 0x100 EXP SWAP1 DIV PUSH1 0xFF AND DUP2 JUMP JUMPDEST PUSH1 0x60 PUSH1 0x3 DUP1 SLOAD PUSH2 0x733 SWAP1 PUSH2 0x243E JUMP JUMPDEST DUP1 PUSH1 0x1F ADD PUSH1 0x20 DUP1 SWAP2 DIV MUL PUSH1 0x20 ADD PUSH1 0x40 MLOAD SWAP1 DUP2 ADD PUSH1 0x40 MSTORE DUP1 SWAP3 SWAP2 SWAP1 DUP2 DUP2 MSTORE PUSH1 0x20 ADD DUP3 DUP1 SLOAD PUSH2 0x75F SWAP1 PUSH2 0x243E JUMP JUMPDEST DUP1 ISZERO PUSH2 0x7AA JUMPI DUP1 PUSH1 0x1F LT PUSH2 0x781 JUMPI PUSH2 0x100 DUP1 DUP4 SLOAD DIV MUL DUP4 MSTORE SWAP2 PUSH1 0x20 ADD SWAP2 PUSH2 0x7AA JUMP JUMPDEST DUP3 ADD SWAP2 SWAP1 PUSH0 MSTORE PUSH1 0x20 PUSH0 KECCAK256 SWAP1 JUMPDEST DUP2 SLOAD DUP2 MSTORE SWAP1 PUSH1 0x1 ADD SWAP1 PUSH1 0x20 ADD DUP1 DUP4 GT PUSH2 0x78D JUMPI DUP3 SWAP1 SUB PUSH1 0x1F AND DUP3 ADD SWAP2 JUMPDEST POP POP POP POP POP SWAP1 POP SWAP1 JUMP JUMPDEST PUSH0 PUSH2 0x7BF DUP3 PUSH0 PUSH2 0x1222 JUMP JUMPDEST SWAP1 POP SWAP2 SWAP1 POP JUMP JUMPDEST PUSH0 PUSH0 PUSH2 0x7D0 PUSH2 0x127A JUMP JUMPDEST SWAP1 POP PUSH2 0x7DD DUP2 DUP6 DUP6 PUSH2 0x1281 JUMP JUMPDEST PUSH1 0x1 SWAP2 POP POP SWAP3 SWAP2 POP POP JUMP JUMPDEST PUSH0 PUSH2 0x7F4 DUP3 PUSH1 0x1 PUSH2 0x1293 JUMP JUMPDEST SWAP1 POP SWAP2 SWAP1 POP JUMP JUMPDEST PUSH0 PUSH1 0x2 SLOAD SWAP1 POP SWAP1 JUMP JUMPDEST PUSH1 0x5 PUSH1 0x14 SWAP1 SLOAD SWAP1 PUSH2 0x100 EXP SWAP1 DIV PUSH1 0xFF AND DUP2 JUMP JUMPDEST PUSH0 PUSH0 PUSH2 0x821 PUSH2 0x127A JUMP JUMPDEST SWAP1 POP PUSH2 0x82E DUP6 DUP3 DUP6 PUSH2 0x12EB JUMP JUMPDEST PUSH2 0x839 DUP6 DUP6 DUP6 PUSH2 0x137E JUMP JUMPDEST PUSH1 0x1 SWAP2 POP POP SWAP4 SWAP3 POP POP POP JUMP JUMPDEST PUSH1 0x6 PUSH0 SWAP1 SLOAD SWAP1 PUSH2 0x100 EXP SWAP1 DIV PUSH20 0xFFFFFFFFFFFFFFFFFFFFFFFFFFFFFFFFFFFFFFFF AND PUSH20 0xFFFFFFFFFFFFFFFFFFFFFFFFFFFFFFFFFFFFFFFF AND CALLER PUSH20 0xFFFFFFFFFFFFFFFFFFFFFFFFFFFFFFFFFFFFFFFF AND EQ PUSH2 0x8D4 JUMPI PUSH1 0x40 MLOAD PUSH32 0x8C379A000000000000000000000000000000000000000000000000000000000 DUP2 MSTORE PUSH1 0x4 ADD PUSH2 0x8CB SWAP1 PUSH2 0x24B8 JUMP JUMPDEST PUSH1 0x40 MLOAD DUP1 SWAP2 SUB SWAP1 REVERT JUMPDEST PUSH1 0x64 DUP2 PUSH1 0xFF AND GT ISZERO DUP1 ISZERO PUSH2 0x8EB JUMPI POP PUSH0 DUP2 PUSH1 0xFF AND LT ISZERO JUMPDEST PUSH1 0x40 MLOAD DUP1 PUSH1 0x40 ADD PUSH1 0x40 MSTORE DUP1 PUSH1 0x4 DUP2 MSTORE PUSH1 0x20 ADD PUSH32 0x4665657300000000000000000000000000000000000000000000000000000000 DUP2 MSTORE POP CALLER DUP4 SWAP1 SWAP2 SWAP3 PUSH2 0x968 JUMPI PUSH1 0x40 MLOAD PUSH32 0xFFDFA1D700000000000000000000000000000000000000000000000000000000 DUP2 MSTORE PUSH1 0x4 ADD PUSH2 0x95F SWAP4 SWAP3 SWAP2 SWAP1 PUSH2 0x2528 JUMP JUMPDEST PUSH1 0x40 MLOAD DUP1 SWAP2 SUB SWAP1 REVERT JUMPDEST POP POP POP PUSH0 PUSH1 0x5 PUSH1 0x14 SWAP1 SLOAD SWAP1 PUSH2 0x100 EXP SWAP1 DIV PUSH1 0xFF AND SWAP1 POP DUP2 PUSH1 0x5 PUSH1 0x14 PUSH2 0x100 EXP DUP2 SLOAD DUP2 PUSH1 0xFF MUL NOT AND SWAP1 DUP4 PUSH1 0xFF AND MUL OR SWAP1 SSTORE POP PUSH32 0x8D051EBDADBACB724112408212229C216B3F65EF4E8276C1DBFBDD7F9D9F0DF DUP2 DUP4 PUSH1 0x40 MLOAD PUSH2 0x9CA SWAP3 SWAP2 SWAP1 PUSH2 0x2564 JUMP JUMPDEST PUSH1 0x40 MLOAD DUP1 SWAP2 SUB SWAP1 LOG1 POP POP JUMP JUMPDEST PUSH0 PUSH2 0x9DF PUSH2 0x146E JUMP JUMPDEST PUSH32 0x0 PUSH2 0xA0A SWAP2 SWAP1 PUSH2 0x258B JUMP JUMPDEST SWAP1 POP SWAP1 JUMP JUMPDEST PUSH0 PUSH32 0x0 SWAP1 POP SWAP1 JUMP JUMPDEST PUSH0 PUSH32 0xFFFFFFFFFFFFFFFFFFFFFFFFFFFFFFFFFFFFFFFFFFFFFFFFFFFFFFFFFFFFFFFF SWAP1 POP SWAP2 SWAP1 POP JUMP JUMPDEST PUSH1 0x6 PUSH0 SWAP1 SLOAD SWAP1 PUSH2 0x100 EXP SWAP1 DIV PUSH20 0xFFFFFFFFFFFFFFFFFFFFFFFFFFFFFFFFFFFFFFFF AND DUP2 JUMP JUMPDEST PUSH1 0x6 PUSH0 SWAP1 SLOAD SWAP1 PUSH2 0x100 EXP SWAP1 DIV PUSH20 0xFFFFFFFFFFFFFFFFFFFFFFFFFFFFFFFFFFFFFFFF AND PUSH20 0xFFFFFFFFFFFFFFFFFFFFFFFFFFFFFFFFFFFFFFFF AND CALLER PUSH20 0xFFFFFFFFFFFFFFFFFFFFFFFFFFFFFFFFFFFFFFFF AND EQ PUSH2 0xB13 JUMPI PUSH1 0x40 MLOAD PUSH32 0x8C379A000000000000000000000000000000000000000000000000000000000 DUP2 MSTORE PUSH1 0x4 ADD PUSH2 0xB0A SWAP1 PUSH2 0x24B8 JUMP JUMPDEST PUSH1 0x40 MLOAD DUP1 SWAP2 SUB SWAP1 REVERT JUMPDEST JUMP JUMPDEST PUSH0 PUSH2 0xB20 DUP3 PUSH0 PUSH2 0x1222 JUMP JUMPDEST SWAP1 POP SWAP2 SWAP1 POP JUMP JUMPDEST PUSH1 0x6 PUSH0 SWAP1 SLOAD SWAP1 PUSH2 0x100 EXP SWAP1 DIV PUSH20 0xFFFFFFFFFFFFFFFFFFFFFFFFFFFFFFFFFFFFFFFF AND PUSH20 0xFFFFFFFFFFFFFFFFFFFFFFFFFFFFFFFFFFFFFFFF AND CALLER PUSH20 0xFFFFFFFFFFFFFFFFFFFFFFFFFFFFFFFFFFFFFFFF AND EQ PUSH2 0xBB6 JUMPI PUSH1 0x40 MLOAD PUSH32 0x8C379A000000000000000000000000000000000000000000000000000000000 DUP2 MSTORE PUSH1 0x4 ADD PUSH2 0xBAD SWAP1 PUSH2 0x24B8 JUMP JUMPDEST PUSH1 0x40 MLOAD DUP1 SWAP2 SUB SWAP1 REVERT JUMPDEST PUSH0 PUSH20 0xFFFFFFFFFFFFFFFFFFFFFFFFFFFFFFFFFFFFFFFF AND DUP2 PUSH20 0xFFFFFFFFFFFFFFFFFFFFFFFFFFFFFFFFFFFFFFFF AND EQ ISZERO CALLER DUP3 SWAP1 SWAP2 PUSH2 0xC2B JUMPI PUSH1 0x40 MLOAD PUSH32 0x91E3E46800000000000000000000000000000000000000000000000000000000 DUP2 MSTORE PUSH1 0x4 ADD PUSH2 0xC22 SWAP3 SWAP2 SWAP1 PUSH2 0x25BF JUMP JUMPDEST PUSH1 0x40 MLOAD DUP1 SWAP2 SUB SWAP1 REVERT JUMPDEST POP POP PUSH0 PUSH1 0x6 PUSH0 SWAP1 SLOAD SWAP1 PUSH2 0x100 EXP SWAP1 DIV PUSH20 0xFFFFFFFFFFFFFFFFFFFFFFFFFFFFFFFFFFFFFFFF AND SWAP1 POP DUP2 PUSH1 0x6 PUSH0 PUSH2 0x100 EXP DUP2 SLOAD DUP2 PUSH20 0xFFFFFFFFFFFFFFFFFFFFFFFFFFFFFFFFFFFFFFFF MUL NOT AND SWAP1 DUP4 PUSH20 0xFFFFFFFFFFFFFFFFFFFFFFFFFFFFFFFFFFFFFFFF AND MUL OR SWAP1 SSTORE POP PUSH32 0xFCDE6C827A52B0870BC44ED9B10212272E18C9EA1725B772E9B493750AFD8DA4 DUP2 DUP4 PUSH1 0x40 MLOAD PUSH2 0xCC3 SWAP3 SWAP2 SWAP1 PUSH2 0x25BF JUMP JUMPDEST PUSH1 0x40 MLOAD DUP1 SWAP2 SUB SWAP1 LOG1 POP POP JUMP JUMPDEST PUSH0 PUSH2 0xCDA DUP4 DUP4 PUSH2 0x1475 JUMP JUMPDEST SWAP1 POP SWAP3 SWAP2 POP POP JUMP JUMPDEST PUSH0 PUSH0 PUSH0 DUP4 PUSH20 0xFFFFFFFFFFFFFFFFFFFFFFFFFFFFFFFFFFFFFFFF AND PUSH20 0xFFFFFFFFFFFFFFFFFFFFFFFFFFFFFFFFFFFFFFFF AND DUP2 MSTORE PUSH1 0x20 ADD SWAP1 DUP2 MSTORE PUSH1 0x20 ADD PUSH0 KECCAK256 SLOAD SWAP1 POP SWAP2 SWAP1 POP JUMP JUMPDEST PUSH0 PUSH0 PUSH2 0xD32 DUP4 PUSH2 0x10A4 JUMP JUMPDEST SWAP1 POP DUP1 DUP5 GT ISZERO PUSH2 0xD7D JUMPI DUP3 DUP5 DUP3 PUSH1 0x40 MLOAD PUSH32 0x284FF66700000000000000000000000000000000000000000000000000000000 DUP2 MSTORE PUSH1 0x4 ADD PUSH2 0xD74 SWAP4 SWAP3 SWAP2 SWAP1 PUSH2 0x25E6 JUMP JUMPDEST PUSH1 0x40 MLOAD DUP1 SWAP2 SUB SWAP1 REVERT JUMPDEST PUSH0 PUSH2 0xD87 DUP6 PUSH2 0xE59 JUMP JUMPDEST SWAP1 POP PUSH2 0xD9C PUSH2 0xD94 PUSH2 0x127A JUMP JUMPDEST DUP6 DUP4 DUP9 PUSH2 0x14F5 JUMP JUMPDEST DUP1 SWAP3 POP POP POP SWAP3 SWAP2 POP POP JUMP JUMPDEST PUSH1 0x60 PUSH1 0x4 DUP1 SLOAD PUSH2 0xDB6 SWAP1 PUSH2 0x243E JUMP JUMPDEST DUP1 PUSH1 0x1F ADD PUSH1 0x20 DUP1 SWAP2 DIV MUL PUSH1 0x20 ADD PUSH1 0x40 MLOAD SWAP1 DUP2 ADD PUSH1 0x40 MSTORE DUP1 SWAP3 SWAP2 SWAP1 DUP2 DUP2 MSTORE PUSH1 0x20 ADD DUP3 DUP1 SLOAD PUSH2 0xDE2 SWAP1 PUSH2 0x243E JUMP JUMPDEST DUP1 ISZERO PUSH2 0xE2D JUMPI DUP1 PUSH1 0x1F LT PUSH2 0xE04 JUMPI PUSH2 0x100 DUP1 DUP4 SLOAD DIV MUL DUP4 MSTORE SWAP2 PUSH1 0x20 ADD SWAP2 PUSH2 0xE2D JUMP JUMPDEST DUP3 ADD SWAP2 SWAP1 PUSH0 MSTORE PUSH1 0x20 PUSH0 KECCAK256 SWAP1 JUMPDEST DUP2 SLOAD DUP2 MSTORE SWAP1 PUSH1 0x1 ADD SWAP1 PUSH1 0x20 ADD DUP1 DUP4 GT PUSH2 0xE10 JUMPI DUP3 SWAP1 SUB PUSH1 0x1F AND DUP3 ADD SWAP2 JUMPDEST POP POP POP POP POP SWAP1 POP SWAP1 JUMP JUMPDEST PUSH0 PUSH0 PUSH2 0xE41 PUSH2 0x127A JUMP JUMPDEST SWAP1 POP PUSH2 0xE4E DUP2 DUP6 DUP6 PUSH2 0x137E JUMP JUMPDEST PUSH1 0x1 SWAP2 POP POP SWAP3 SWAP2 POP POP JUMP JUMPDEST PUSH0 PUSH2 0xE65 DUP3 PUSH1 0x1 PUSH2 0x1222 JUMP JUMPDEST SWAP1 POP SWAP2 SWAP1 POP JUMP JUMPDEST PUSH0 PUSH0 PUSH2 0xE77 DUP4 PUSH2 0x10DF JUMP JUMPDEST SWAP1 POP DUP1 DUP6 GT ISZERO PUSH2 0xEC2 JUMPI DUP3 DUP6 DUP3 PUSH1 0x40 MLOAD PUSH32 0xFE9CCEEC00000000000000000000000000000000000000000000000000000000 DUP2 MSTORE PUSH1 0x4 ADD PUSH2 0xEB9 SWAP4 SWAP3 SWAP2 SWAP1 PUSH2 0x25E6 JUMP JUMPDEST PUSH1 0x40 MLOAD DUP1 SWAP2 SUB SWAP1 REVERT JUMPDEST PUSH0 PUSH2 0xECC DUP7 PUSH2 0x7E8 JUMP JUMPDEST SWAP1 POP PUSH2 0xEE2 PUSH2 0xED9 PUSH2 0x127A JUMP JUMPDEST DUP7 DUP7 DUP10 DUP6 PUSH2 0x1576 JUMP JUMPDEST DUP1 SWAP3 POP POP POP SWAP4 SWAP3 POP POP POP JUMP JUMPDEST PUSH1 0x6 PUSH0 SWAP1 SLOAD SWAP1 PUSH2 0x100 EXP SWAP1 DIV PUSH20 0xFFFFFFFFFFFFFFFFFFFFFFFFFFFFFFFFFFFFFFFF AND PUSH20 0xFFFFFFFFFFFFFFFFFFFFFFFFFFFFFFFFFFFFFFFF AND CALLER PUSH20 0xFFFFFFFFFFFFFFFFFFFFFFFFFFFFFFFFFFFFFFFF AND EQ PUSH2 0xF7D JUMPI PUSH1 0x40 MLOAD PUSH32 0x8C379A000000000000000000000000000000000000000000000000000000000 DUP2 MSTORE PUSH1 0x4 ADD PUSH2 0xF74 SWAP1 PUSH2 0x24B8 JUMP JUMPDEST PUSH1 0x40 MLOAD DUP1 SWAP2 SUB SWAP1 REVERT JUMPDEST PUSH1 0x64 DUP2 PUSH1 0xFF AND GT ISZERO DUP1 ISZERO PUSH2 0xF94 JUMPI POP PUSH0 DUP2 PUSH1 0xFF AND LT ISZERO JUMPDEST PUSH1 0x40 MLOAD DUP1 PUSH1 0x40 ADD PUSH1 0x40 MSTORE DUP1 PUSH1 0x10 DUP2 MSTORE PUSH1 0x20 ADD PUSH32 0x4C69717569646974792062756666657200000000000000000000000000000000 DUP2 MSTORE POP CALLER DUP4 SWAP1 SWAP2 SWAP3 PUSH2 0x1011 JUMPI PUSH1 0x40 MLOAD PUSH32 0xFFDFA1D700000000000000000000000000000000000000000000000000000000 DUP2 MSTORE PUSH1 0x4 ADD PUSH2 0x1008 SWAP4 SWAP3 SWAP2 SWAP1 PUSH2 0x2528 JUMP JUMPDEST PUSH1 0x40 MLOAD DUP1 SWAP2 SUB SWAP1 REVERT JUMPDEST POP POP POP PUSH0 PUSH1 0x5 PUSH1 0x15 SWAP1 SLOAD SWAP1 PUSH2 0x100 EXP SWAP1 DIV PUSH1 0xFF AND SWAP1 POP DUP2 PUSH1 0x5 PUSH1 0x15 PUSH2 0x100 EXP DUP2 SLOAD DUP2 PUSH1 0xFF MUL NOT AND SWAP1 DUP4 PUSH1 0xFF AND MUL OR SWAP1 SSTORE POP PUSH32 0x55D57C9E4669FC49502950CD59931E19C3A442BB1D264978DD364EDE0B0D077F DUP2 DUP4 PUSH1 0x40 MLOAD PUSH2 0x1073 SWAP3 SWAP2 SWAP1 PUSH2 0x2564 JUMP JUMPDEST PUSH1 0x40 MLOAD DUP1 SWAP2 SUB SWAP1 LOG1 POP POP JUMP JUMPDEST PUSH0 PUSH2 0x1088 PUSH2 0x164E JUMP JUMPDEST PUSH2 0x1093 DUP5 DUP5 DUP5 PUSH2 0x1670 JUMP JUMPDEST SWAP1 POP PUSH2 0x109D PUSH2 0x16F2 JUMP JUMPDEST SWAP4 SWAP3 POP POP POP JUMP JUMPDEST PUSH0 PUSH32 0xFFFFFFFFFFFFFFFFFFFFFFFFFFFFFFFFFFFFFFFFFFFFFFFFFFFFFFFFFFFFFFFF SWAP1 POP SWAP2 SWAP1 POP JUMP JUMPDEST PUSH0 PUSH2 0x10D8 DUP3 PUSH0 PUSH2 0x1293 JUMP JUMPDEST SWAP1 POP SWAP2 SWAP1 POP JUMP JUMPDEST PUSH0 PUSH2 0x10F1 PUSH2 0x10EC DUP4 PUSH2 0x10F8 JUMP JUMPDEST PUSH2 0xB15 JUMP JUMPDEST SWAP1 POP SWAP2 SWAP1 POP JUMP JUMPDEST PUSH0 PUSH2 0x1102 DUP3 PUSH2 0xCE2 JUMP JUMPDEST SWAP1 POP SWAP2 SWAP1 POP JUMP JUMPDEST PUSH0 PUSH1 0x1 PUSH0 DUP5 PUSH20 0xFFFFFFFFFFFFFFFFFFFFFFFFFFFFFFFFFFFFFFFF AND PUSH20 0xFFFFFFFFFFFFFFFFFFFFFFFFFFFFFFFFFFFFFFFF AND DUP2 MSTORE PUSH1 0x20 ADD SWAP1 DUP2 MSTORE PUSH1 0x20 ADD PUSH0 KECCAK256 PUSH0 DUP4 PUSH20 0xFFFFFFFFFFFFFFFFFFFFFFFFFFFFFFFFFFFFFFFF AND PUSH20 0xFFFFFFFFFFFFFFFFFFFFFFFFFFFFFFFFFFFFFFFF AND DUP2 MSTORE PUSH1 0x20 ADD SWAP1 DUP2 MSTORE PUSH1 0x20 ADD PUSH0 KECCAK256 SLOAD SWAP1 POP SWAP3 SWAP2 POP POP JUMP JUMPDEST PUSH0 PUSH2 0x1196 DUP3 PUSH0 PUSH2 0x1293 JUMP JUMPDEST SWAP1 POP SWAP2 SWAP1 POP JUMP JUMPDEST PUSH0 PUSH2 0x11A6 PUSH2 0xA0F JUMP JUMPDEST PUSH20 0xFFFFFFFFFFFFFFFFFFFFFFFFFFFFFFFFFFFFFFFF AND PUSH4 0x70A08231 ADDRESS PUSH1 0x40 MLOAD DUP3 PUSH4 0xFFFFFFFF AND PUSH1 0xE0 SHL DUP2 MSTORE PUSH1 0x4 ADD PUSH2 0x11DE SWAP2 SWAP1 PUSH2 0x22A1 JUMP JUMPDEST PUSH1 0x20 PUSH1 0x40 MLOAD DUP1 DUP4 SUB DUP2 DUP7 GAS STATICCALL ISZERO DUP1 ISZERO PUSH2 0x11F9 JUMPI RETURNDATASIZE PUSH0 PUSH0 RETURNDATACOPY RETURNDATASIZE PUSH0 REVERT JUMPDEST POP POP POP POP PUSH1 0x40 MLOAD RETURNDATASIZE PUSH1 0x1F NOT PUSH1 0x1F DUP3 ADD AND DUP3 ADD DUP1 PUSH1 0x40 MSTORE POP DUP2 ADD SWAP1 PUSH2 0x121D SWAP2 SWAP1 PUSH2 0x262F JUMP JUMPDEST SWAP1 POP SWAP1 JUMP JUMPDEST PUSH0 PUSH2 0x1272 PUSH1 0x1 PUSH2 0x1230 PUSH2 0x6EE JUMP JUMPDEST PUSH2 0x123A SWAP2 SWAP1 PUSH2 0x23DE JUMP JUMPDEST PUSH2 0x1242 PUSH2 0x146E JUMP JUMPDEST PUSH1 0xA PUSH2 0x124E SWAP2 SWAP1 PUSH2 0x2789 JUMP JUMPDEST PUSH2 0x1256 PUSH2 0x7FB JUMP JUMPDEST PUSH2 0x1260 SWAP2 SWAP1 PUSH2 0x23DE JUMP JUMPDEST DUP5 DUP7 PUSH2 0x170C SWAP1 SWAP4 SWAP3 SWAP2 SWAP1 PUSH4 0xFFFFFFFF AND JUMP JUMPDEST SWAP1 POP SWAP3 SWAP2 POP POP JUMP JUMPDEST PUSH0 CALLER SWAP1 POP SWAP1 JUMP JUMPDEST PUSH2 0x128E DUP4 DUP4 DUP4 PUSH1 0x1 PUSH2 0x1759 JUMP JUMPDEST POP POP POP JUMP JUMPDEST PUSH0 PUSH2 0x12E3 PUSH2 0x129F PUSH2 0x146E JUMP JUMPDEST PUSH1 0xA PUSH2 0x12AB SWAP2 SWAP1 PUSH2 0x2789 JUMP JUMPDEST PUSH2 0x12B3 PUSH2 0x7FB JUMP JUMPDEST PUSH2 0x12BD SWAP2 SWAP1 PUSH2 0x23DE JUMP JUMPDEST PUSH1 0x1 PUSH2 0x12C7 PUSH2 0x6EE JUMP JUMPDEST PUSH2 0x12D1 SWAP2 SWAP1 PUSH2 0x23DE JUMP JUMPDEST DUP5 DUP7 PUSH2 0x170C SWAP1 SWAP4 SWAP3 SWAP2 SWAP1 PUSH4 0xFFFFFFFF AND JUMP JUMPDEST SWAP1 POP SWAP3 SWAP2 POP POP JUMP JUMPDEST PUSH0 PUSH2 0x12F6 DUP5 DUP5 PUSH2 0x1109 JUMP JUMPDEST SWAP1 POP PUSH32 0xFFFFFFFFFFFFFFFFFFFFFFFFFFFFFFFFFFFFFFFFFFFFFFFFFFFFFFFFFFFFFFFF DUP2 LT ISZERO PUSH2 0x1378 JUMPI DUP2 DUP2 LT ISZERO PUSH2 0x1369 JUMPI DUP3 DUP2 DUP4 PUSH1 0x40 MLOAD PUSH32 0xFB8F41B200000000000000000000000000000000000000000000000000000000 DUP2 MSTORE PUSH1 0x4 ADD PUSH2 0x1360 SWAP4 SWAP3 SWAP2 SWAP1 PUSH2 0x25E6 JUMP JUMPDEST PUSH1 0x40 MLOAD DUP1 SWAP2 SUB SWAP1 REVERT JUMPDEST PUSH2 0x1377 DUP5 DUP5 DUP5 DUP5 SUB PUSH0 PUSH2 0x1759 JUMP JUMPDEST JUMPDEST POP POP POP POP JUMP JUMPDEST PUSH0 PUSH20 0xFFFFFFFFFFFFFFFFFFFFFFFFFFFFFFFFFFFFFFFF AND DUP4 PUSH20 0xFFFFFFFFFFFFFFFFFFFFFFFFFFFFFFFFFFFFFFFF AND SUB PUSH2 0x13EE JUMPI PUSH0 PUSH1 0x40 MLOAD PUSH32 0x96C6FD1E00000000000000000000000000000000000000000000000000000000 DUP2 MSTORE PUSH1 0x4 ADD PUSH2 0x13E5 SWAP2 SWAP1 PUSH2 0x22A1 JUMP JUMPDEST PUSH1 0x40 MLOAD DUP1 SWAP2 SUB SWAP1 REVERT JUMPDEST PUSH0 PUSH20 0xFFFFFFFFFFFFFFFFFFFFFFFFFFFFFFFFFFFFFFFF AND DUP3 PUSH20 0xFFFFFFFFFFFFFFFFFFFFFFFFFFFFFFFFFFFFFFFF AND SUB PUSH2 0x145E JUMPI PUSH0 PUSH1 0x40 MLOAD PUSH32 0xEC442F0500000000000000000000000000000000000000000000000000000000 DUP2 MSTORE PUSH1 0x4 ADD PUSH2 0x1455 SWAP2 SWAP1 PUSH2 0x22A1 JUMP JUMPDEST PUSH1 0x40 MLOAD DUP1 SWAP2 SUB SWAP1 REVERT JUMPDEST PUSH2 0x1469 DUP4 DUP4 DUP4 PUSH2 0x1928 JUMP JUMPDEST POP POP POP JUMP JUMPDEST PUSH0 PUSH0 SWAP1 POP SWAP1 JUMP JUMPDEST PUSH0 PUSH0 PUSH2 0x1480 DUP4 PUSH2 0xA36 JUMP JUMPDEST SWAP1 POP DUP1 DUP5 GT ISZERO PUSH2 0x14CB JUMPI DUP3 DUP5 DUP3 PUSH1 0x40 MLOAD PUSH32 0x79012FB200000000000000000000000000000000000000000000000000000000 DUP2 MSTORE PUSH1 0x4 ADD PUSH2 0x14C2 SWAP4 SWAP3 SWAP2 SWAP1 PUSH2 0x25E6 JUMP JUMPDEST PUSH1 0x40 MLOAD DUP1 SWAP2 SUB SWAP1 REVERT JUMPDEST PUSH0 PUSH2 0x14D5 DUP6 PUSH2 0x118B JUMP JUMPDEST SWAP1 POP PUSH2 0x14EA PUSH2 0x14E2 PUSH2 0x127A JUMP JUMPDEST DUP6 DUP8 DUP5 PUSH2 0x14F5 JUMP JUMPDEST DUP1 SWAP3 POP POP POP SWAP3 SWAP2 POP POP JUMP JUMPDEST PUSH2 0x14FF DUP5 DUP4 PUSH2 0x1B41 JUMP JUMPDEST PUSH2 0x1509 DUP4 DUP3 PUSH2 0x1B58 JUMP JUMPDEST DUP3 PUSH20 0xFFFFFFFFFFFFFFFFFFFFFFFFFFFFFFFFFFFFFFFF AND DUP5 PUSH20 0xFFFFFFFFFFFFFFFFFFFFFFFFFFFFFFFFFFFFFFFF AND PUSH32 0xDCBC1C05240F31FF3AD067EF1EE35CE4997762752E3A095284754544F4C709D7 DUP5 DUP5 PUSH1 0x40 MLOAD PUSH2 0x1568 SWAP3 SWAP2 SWAP1 PUSH2 0x27D3 JUMP JUMPDEST PUSH1 0x40 MLOAD DUP1 SWAP2 SUB SWAP1 LOG3 POP POP POP POP JUMP JUMPDEST DUP3 PUSH20 0xFFFFFFFFFFFFFFFFFFFFFFFFFFFFFFFFFFFFFFFF AND DUP6 PUSH20 0xFFFFFFFFFFFFFFFFFFFFFFFFFFFFFFFFFFFFFFFF AND EQ PUSH2 0x15B5 JUMPI PUSH2 0x15B4 DUP4 DUP7 DUP4 PUSH2 0x12EB JUMP JUMPDEST JUMPDEST PUSH2 0x15BF DUP4 DUP3 PUSH2 0x1BD7 JUMP JUMPDEST PUSH2 0x15C9 DUP5 DUP4 PUSH2 0x1C56 JUMP JUMPDEST DUP3 PUSH20 0xFFFFFFFFFFFFFFFFFFFFFFFFFFFFFFFFFFFFFFFF AND DUP5 PUSH20 0xFFFFFFFFFFFFFFFFFFFFFFFFFFFFFFFFFFFFFFFF AND DUP7 PUSH20 0xFFFFFFFFFFFFFFFFFFFFFFFFFFFFFFFFFFFFFFFF AND PUSH32 0xFBDE797D201C681B91056529119E0B02407C7BB96A4A2C75C01FC9667232C8DB DUP6 DUP6 PUSH1 0x40 MLOAD PUSH2 0x163F SWAP3 SWAP2 SWAP1 PUSH2 0x27D3 JUMP JUMPDEST PUSH1 0x40 MLOAD DUP1 SWAP2 SUB SWAP1 LOG4 POP POP POP POP POP JUMP JUMPDEST PUSH2 0x1656 PUSH2 0x1C6C JUMP JUMPDEST PUSH1 0x2 PUSH2 0x1668 PUSH2 0x1663 PUSH2 0x1CAD JUMP JUMPDEST PUSH2 0x1CD6 JUMP JUMPDEST PUSH0 ADD DUP2 SWAP1 SSTORE POP JUMP JUMPDEST PUSH0 PUSH0 PUSH2 0x167B DUP4 PUSH2 0x10F8 JUMP JUMPDEST SWAP1 POP DUP1 DUP6 GT ISZERO PUSH2 0x16C6 JUMPI DUP3 DUP6 DUP3 PUSH1 0x40 MLOAD PUSH32 0xB94ABEEC00000000000000000000000000000000000000000000000000000000 DUP2 MSTORE PUSH1 0x4 ADD PUSH2 0x16BD SWAP4 SWAP3 SWAP2 SWAP1 PUSH2 0x25E6 JUMP JUMPDEST PUSH1 0x40 MLOAD DUP1 SWAP2 SUB SWAP1 REVERT JUMPDEST PUSH0 PUSH2 0x16D0 DUP7 PUSH2 0xB15 JUMP JUMPDEST SWAP1 POP PUSH2 0x16E6 PUSH2 0x16DD PUSH2 0x127A JUMP JUMPDEST DUP7 DUP7 DUP5 DUP11 PUSH2 0x1576 JUMP JUMPDEST DUP1 SWAP3 POP POP POP SWAP4 SWAP3 POP POP POP JUMP JUMPDEST PUSH1 0x1 PUSH2 0x1704 PUSH2 0x16FF PUSH2 0x1CAD JUMP JUMPDEST PUSH2 0x1CD6 JUMP JUMPDEST PUSH0 ADD DUP2 SWAP1 SSTORE POP JUMP JUMPDEST PUSH0 PUSH2 0x173A PUSH2 0x1719 DUP4 PUSH2 0x1CDF JUMP JUMPDEST DUP1 ISZERO PUSH2 0x1735 JUMPI POP PUSH0 DUP5 DUP1 PUSH2 0x1730 JUMPI PUSH2 0x172F PUSH2 0x27FA JUMP JUMPDEST JUMPDEST DUP7 DUP9 MULMOD GT JUMPDEST PUSH2 0x1D0C JUMP JUMPDEST PUSH2 0x1745 DUP7 DUP7 DUP7 PUSH2 0x1D17 JUMP JUMPDEST PUSH2 0x174F SWAP2 SWAP1 PUSH2 0x23DE JUMP JUMPDEST SWAP1 POP SWAP5 SWAP4 POP POP POP POP JUMP JUMPDEST PUSH0 PUSH20 0xFFFFFFFFFFFFFFFFFFFFFFFFFFFFFFFFFFFFFFFF AND DUP5 PUSH20 0xFFFFFFFFFFFFFFFFFFFFFFFFFFFFFFFFFFFFFFFF AND SUB PUSH2 0x17C9 JUMPI PUSH0 PUSH1 0x40 MLOAD PUSH32 0xE602DF0500000000000000000000000000000000000000000000000000000000 DUP2 MSTORE PUSH1 0x4 ADD PUSH2 0x17C0 SWAP2 SWAP1 PUSH2 0x22A1 JUMP JUMPDEST PUSH1 0x40 MLOAD DUP1 SWAP2 SUB SWAP1 REVERT JUMPDEST PUSH0 PUSH20 0xFFFFFFFFFFFFFFFFFFFFFFFFFFFFFFFFFFFFFFFF AND DUP4 PUSH20 0xFFFFFFFFFFFFFFFFFFFFFFFFFFFFFFFFFFFFFFFF AND SUB PUSH2 0x1839 JUMPI PUSH0 PUSH1 0x40 MLOAD PUSH32 0x94280D6200000000000000000000000000000000000000000000000000000000 DUP2 MSTORE PUSH1 0x4 ADD PUSH2 0x1830 SWAP2 SWAP1 PUSH2 0x22A1 JUMP JUMPDEST PUSH1 0x40 MLOAD DUP1 SWAP2 SUB SWAP1 REVERT JUMPDEST DUP2 PUSH1 0x1 PUSH0 DUP7 PUSH20 0xFFFFFFFFFFFFFFFFFFFFFFFFFFFFFFFFFFFFFFFF AND PUSH20 0xFFFFFFFFFFFFFFFFFFFFFFFFFFFFFFFFFFFFFFFF AND DUP2 MSTORE PUSH1 0x20 ADD SWAP1 DUP2 MSTORE PUSH1 0x20 ADD PUSH0 KECCAK256 PUSH0 DUP6 PUSH20 0xFFFFFFFFFFFFFFFFFFFFFFFFFFFFFFFFFFFFFFFF AND PUSH20 0xFFFFFFFFFFFFFFFFFFFFFFFFFFFFFFFFFFFFFFFF AND DUP2 MSTORE PUSH1 0x20 ADD SWAP1 DUP2 MSTORE PUSH1 0x20 ADD PUSH0 KECCAK256 DUP2 SWAP1 SSTORE POP DUP1 ISZERO PUSH2 0x1922 JUMPI DUP3 PUSH20 0xFFFFFFFFFFFFFFFFFFFFFFFFFFFFFFFFFFFFFFFF AND DUP5 PUSH20 0xFFFFFFFFFFFFFFFFFFFFFFFFFFFFFFFFFFFFFFFF AND PUSH32 0x8C5BE1E5EBEC7D5BD14F71427D1E84F3DD0314C0F7B2291E5B200AC8C7C3B925 DUP5 PUSH1 0x40 MLOAD PUSH2 0x1919 SWAP2 SWAP1 PUSH2 0x1FEC JUMP JUMPDEST PUSH1 0x40 MLOAD DUP1 SWAP2 SUB SWAP1 LOG3 JUMPDEST POP POP POP POP JUMP JUMPDEST PUSH0 PUSH20 0xFFFFFFFFFFFFFFFFFFFFFFFFFFFFFFFFFFFFFFFF AND DUP4 PUSH20 0xFFFFFFFFFFFFFFFFFFFFFFFFFFFFFFFFFFFFFFFF AND SUB PUSH2 0x1978 JUMPI DUP1 PUSH1 0x2 PUSH0 DUP3 DUP3 SLOAD PUSH2 0x196C SWAP2 SWAP1 PUSH2 0x23DE JUMP JUMPDEST SWAP3 POP POP DUP2 SWAP1 SSTORE POP PUSH2 0x1A46 JUMP JUMPDEST PUSH0 PUSH0 PUSH0 DUP6 PUSH20 0xFFFFFFFFFFFFFFFFFFFFFFFFFFFFFFFFFFFFFFFF AND PUSH20 0xFFFFFFFFFFFFFFFFFFFFFFFFFFFFFFFFFFFFFFFF AND DUP2 MSTORE PUSH1 0x20 ADD SWAP1 DUP2 MSTORE PUSH1 0x20 ADD PUSH0 KECCAK256 SLOAD SWAP1 POP DUP2 DUP2 LT ISZERO PUSH2 0x1A01 JUMPI DUP4 DUP2 DUP4 PUSH1 0x40 MLOAD PUSH32 0xE450D38C00000000000000000000000000000000000000000000000000000000 DUP2 MSTORE PUSH1 0x4 ADD PUSH2 0x19F8 SWAP4 SWAP3 SWAP2 SWAP1 PUSH2 0x25E6 JUMP JUMPDEST PUSH1 0x40 MLOAD DUP1 SWAP2 SUB SWAP1 REVERT JUMPDEST DUP2 DUP2 SUB PUSH0 PUSH0 DUP7 PUSH20 0xFFFFFFFFFFFFFFFFFFFFFFFFFFFFFFFFFFFFFFFF AND PUSH20 0xFFFFFFFFFFFFFFFFFFFFFFFFFFFFFFFFFFFFFFFF AND DUP2 MSTORE PUSH1 0x20 ADD SWAP1 DUP2 MSTORE PUSH1 0x20 ADD PUSH0 KECCAK256 DUP2 SWAP1 SSTORE POP POP JUMPDEST PUSH0 PUSH20 0xFFFFFFFFFFFFFFFFFFFFFFFFFFFFFFFFFFFFFFFF AND DUP3 PUSH20 0xFFFFFFFFFFFFFFFFFFFFFFFFFFFFFFFFFFFFFFFF AND SUB PUSH2 0x1A8D JUMPI DUP1 PUSH1 0x2 PUSH0 DUP3 DUP3 SLOAD SUB SWAP3 POP POP DUP2 SWAP1 SSTORE POP PUSH2 0x1AD7 JUMP JUMPDEST DUP1 PUSH0 PUSH0 DUP5 PUSH20 0xFFFFFFFFFFFFFFFFFFFFFFFFFFFFFFFFFFFFFFFF AND PUSH20 0xFFFFFFFFFFFFFFFFFFFFFFFFFFFFFFFFFFFFFFFF AND DUP2 MSTORE PUSH1 0x20 ADD SWAP1 DUP2 MSTORE PUSH1 0x20 ADD PUSH0 KECCAK256 PUSH0 DUP3 DUP3 SLOAD ADD SWAP3 POP POP DUP2 SWAP1 SSTORE POP JUMPDEST DUP2 PUSH20 0xFFFFFFFFFFFFFFFFFFFFFFFFFFFFFFFFFFFFFFFF AND DUP4 PUSH20 0xFFFFFFFFFFFFFFFFFFFFFFFFFFFFFFFFFFFFFFFF AND PUSH32 0xDDF252AD1BE2C89B69C2B068FC378DAA952BA7F163C4A11628F55A4DF523B3EF DUP4 PUSH1 0x40 MLOAD PUSH2 0x1B34 SWAP2 SWAP1 PUSH2 0x1FEC JUMP JUMPDEST PUSH1 0x40 MLOAD DUP1 SWAP2 SUB SWAP1 LOG3 POP POP POP JUMP JUMPDEST PUSH2 0x1B54 PUSH2 0x1B4C PUSH2 0xA0F JUMP JUMPDEST DUP4 ADDRESS DUP5 PUSH2 0x1DF6 JUMP JUMPDEST POP POP JUMP JUMPDEST PUSH0 PUSH20 0xFFFFFFFFFFFFFFFFFFFFFFFFFFFFFFFFFFFFFFFF AND DUP3 PUSH20 0xFFFFFFFFFFFFFFFFFFFFFFFFFFFFFFFFFFFFFFFF AND SUB PUSH2 0x1BC8 JUMPI PUSH0 PUSH1 0x40 MLOAD PUSH32 0xEC442F0500000000000000000000000000000000000000000000000000000000 DUP2 MSTORE PUSH1 0x4 ADD PUSH2 0x1BBF SWAP2 SWAP1 PUSH2 0x22A1 JUMP JUMPDEST PUSH1 0x40 MLOAD DUP1 SWAP2 SUB SWAP1 REVERT JUMPDEST PUSH2 0x1BD3 PUSH0 DUP4 DUP4 PUSH2 0x1928 JUMP JUMPDEST POP POP JUMP JUMPDEST PUSH0 PUSH20 0xFFFFFFFFFFFFFFFFFFFFFFFFFFFFFFFFFFFFFFFF AND DUP3 PUSH20 0xFFFFFFFFFFFFFFFFFFFFFFFFFFFFFFFFFFFFFFFF AND SUB PUSH2 0x1C47 JUMPI PUSH0 PUSH1 0x40 MLOAD PUSH32 0x96C6FD1E00000000000000000000000000000000000000000000000000000000 DUP2 MSTORE PUSH1 0x4 ADD PUSH2 0x1C3E SWAP2 SWAP1 PUSH2 0x22A1 JUMP JUMPDEST PUSH1 0x40 MLOAD DUP1 SWAP2 SUB SWAP1 REVERT JUMPDEST PUSH2 0x1C52 DUP3 PUSH0 DUP4 PUSH2 0x1928 JUMP JUMPDEST POP POP JUMP JUMPDEST PUSH2 0x1C68 PUSH2 0x1C61 PUSH2 0xA0F JUMP JUMPDEST DUP4 DUP4 PUSH2 0x1E4B JUMP JUMPDEST POP POP JUMP JUMPDEST PUSH2 0x1C74 PUSH2 0x1E9E JUMP JUMPDEST ISZERO PUSH2 0x1CAB JUMPI PUSH1 0x40 MLOAD PUSH32 0x3EE5AEB500000000000000000000000000000000000000000000000000000000 DUP2 MSTORE PUSH1 0x4 ADD PUSH1 0x40 MLOAD DUP1 SWAP2 SUB SWAP1 REVERT JUMPDEST JUMP JUMPDEST PUSH0 PUSH32 0x9B779B17422D0DF92223018B32B4D1FA46E071723D6817E2486D003BECC55F00 PUSH0 SHL SWAP1 POP SWAP1 JUMP JUMPDEST PUSH0 DUP2 SWAP1 POP SWAP2 SWAP1 POP JUMP JUMPDEST PUSH0 PUSH1 0x1 PUSH1 0x2 DUP4 PUSH1 0x3 DUP2 GT ISZERO PUSH2 0x1CF7 JUMPI PUSH2 0x1CF6 PUSH2 0x2827 JUMP JUMPDEST JUMPDEST PUSH2 0x1D01 SWAP2 SWAP1 PUSH2 0x2854 JUMP JUMPDEST PUSH1 0xFF AND EQ SWAP1 POP SWAP2 SWAP1 POP JUMP JUMPDEST PUSH0 DUP2 ISZERO ISZERO SWAP1 POP SWAP2 SWAP1 POP JUMP JUMPDEST PUSH0 PUSH0 PUSH0 PUSH2 0x1D24 DUP7 DUP7 PUSH2 0x1EBA JUMP JUMPDEST SWAP2 POP SWAP2 POP PUSH0 DUP3 SUB PUSH2 0x1D49 JUMPI DUP4 DUP2 DUP2 PUSH2 0x1D3F JUMPI PUSH2 0x1D3E PUSH2 0x27FA JUMP JUMPDEST JUMPDEST DIV SWAP3 POP POP POP PUSH2 0x1DEF JUMP JUMPDEST DUP2 DUP5 GT PUSH2 0x1D68 JUMPI PUSH2 0x1D67 PUSH2 0x1D62 PUSH0 DUP7 EQ PUSH1 0x12 PUSH1 0x11 PUSH2 0x1ED7 JUMP JUMPDEST PUSH2 0x1EF0 JUMP JUMPDEST JUMPDEST PUSH0 DUP5 DUP7 DUP9 MULMOD SWAP1 POP DUP2 DUP2 GT DUP4 SUB SWAP3 POP DUP1 DUP3 SUB SWAP2 POP PUSH0 DUP6 PUSH0 SUB DUP7 AND SWAP1 POP DUP1 DUP7 DIV SWAP6 POP DUP1 DUP4 DIV SWAP3 POP PUSH1 0x1 DUP2 DUP3 PUSH0 SUB DIV ADD SWAP1 POP DUP1 DUP5 MUL DUP4 OR SWAP3 POP PUSH0 PUSH1 0x2 DUP8 PUSH1 0x3 MUL XOR SWAP1 POP DUP1 DUP8 MUL PUSH1 0x2 SUB DUP2 MUL SWAP1 POP DUP1 DUP8 MUL PUSH1 0x2 SUB DUP2 MUL SWAP1 POP DUP1 DUP8 MUL PUSH1 0x2 SUB DUP2 MUL SWAP1 POP DUP1 DUP8 MUL PUSH1 0x2 SUB DUP2 MUL SWAP1 POP DUP1 DUP8 MUL PUSH1 0x2 SUB DUP2 MUL SWAP1 POP DUP1 DUP8 MUL PUSH1 0x2 SUB DUP2 MUL SWAP1 POP DUP1 DUP5 MUL SWAP6 POP POP POP POP POP POP JUMPDEST SWAP4 SWAP3 POP POP POP JUMP JUMPDEST PUSH2 0x1E04 DUP5 DUP5 DUP5 DUP5 PUSH1 0x1 PUSH2 0x1F01 JUMP JUMPDEST PUSH2 0x1E45 JUMPI DUP4 PUSH1 0x40 MLOAD PUSH32 0x5274AFE700000000000000000000000000000000000000000000000000000000 DUP2 MSTORE PUSH1 0x4 ADD PUSH2 0x1E3C SWAP2 SWAP1 PUSH2 0x22A1 JUMP JUMPDEST PUSH1 0x40 MLOAD DUP1 SWAP2 SUB SWAP1 REVERT JUMPDEST POP POP POP POP JUMP JUMPDEST PUSH2 0x1E58 DUP4 DUP4 DUP4 PUSH1 0x1 PUSH2 0x1F72 JUMP JUMPDEST PUSH2 0x1E99 JUMPI DUP3 PUSH1 0x40 MLOAD PUSH32 0x5274AFE700000000000000000000000000000000000000000000000000000000 DUP2 MSTORE PUSH1 0x4 ADD PUSH2 0x1E90 SWAP2 SWAP1 PUSH2 0x22A1 JUMP JUMPDEST PUSH1 0x40 MLOAD DUP1 SWAP2 SUB SWAP1 REVERT JUMPDEST POP POP POP JUMP JUMPDEST PUSH0 PUSH1 0x2 PUSH2 0x1EB1 PUSH2 0x1EAC PUSH2 0x1CAD JUMP JUMPDEST PUSH2 0x1CD6 JUMP JUMPDEST PUSH0 ADD SLOAD EQ SWAP1 POP SWAP1 JUMP JUMPDEST PUSH0 PUSH0 PUSH0 NOT DUP4 DUP6 MULMOD DUP4 DUP6 MUL SWAP2 POP DUP2 DUP2 LT DUP3 DUP3 SUB SUB SWAP3 POP POP SWAP3 POP SWAP3 SWAP1 POP JUMP JUMPDEST PUSH0 PUSH2 0x1EE1 DUP5 PUSH2 0x1D0C JUMP JUMPDEST DUP3 DUP5 XOR MUL DUP3 XOR SWAP1 POP SWAP4 SWAP3 POP POP POP JUMP JUMPDEST PUSH4 0x4E487B71 PUSH0 MSTORE DUP1 PUSH1 0x20 MSTORE PUSH1 0x24 PUSH1 0x1C REVERT JUMPDEST PUSH0 PUSH0 PUSH4 0x23B872DD PUSH1 0xE0 SHL SWAP1 POP PUSH1 0x40 MLOAD DUP2 PUSH0 MSTORE PUSH0 NOT PUSH1 0x60 SHR DUP8 AND PUSH1 0x4 MSTORE PUSH0 NOT PUSH1 0x60 SHR DUP7 AND PUSH1 0x24 MSTORE DUP5 PUSH1 0x44 MSTORE PUSH1 0x20 PUSH0 PUSH1 0x64 PUSH0 PUSH0 DUP13 GAS CALL SWAP3 POP PUSH1 0x1 PUSH0 MLOAD EQ DUP4 AND PUSH2 0x1F5F JUMPI DUP4 DUP4 ISZERO AND ISZERO PUSH2 0x1F53 JUMPI RETURNDATASIZE PUSH0 DUP3 RETURNDATACOPY RETURNDATASIZE DUP2 REVERT JUMPDEST PUSH0 DUP9 EXTCODESIZE GT RETURNDATASIZE ISZERO AND DUP4 AND SWAP3 POP JUMPDEST DUP1 PUSH1 0x40 MSTORE PUSH0 PUSH1 0x60 MSTORE POP POP SWAP6 SWAP5 POP POP POP POP POP JUMP JUMPDEST PUSH0 PUSH0 PUSH4 0xA9059CBB PUSH1 0xE0 SHL SWAP1 POP PUSH1 0x40 MLOAD DUP2 PUSH0 MSTORE PUSH0 NOT PUSH1 0x60 SHR DUP7 AND PUSH1 0x4 MSTORE DUP5 PUSH1 0x24 MSTORE PUSH1 0x20 PUSH0 PUSH1 0x44 PUSH0 PUSH0 DUP12 GAS CALL SWAP3 POP PUSH1 0x1 PUSH0 MLOAD EQ DUP4 AND PUSH2 0x1FC6 JUMPI DUP4 DUP4 ISZERO AND ISZERO PUSH2 0x1FBA JUMPI RETURNDATASIZE PUSH0 DUP3 RETURNDATACOPY RETURNDATASIZE DUP2 REVERT JUMPDEST PUSH0 DUP8 EXTCODESIZE GT RETURNDATASIZE ISZERO AND DUP4 AND SWAP3 POP JUMPDEST DUP1 PUSH1 0x40 MSTORE POP POP SWAP5 SWAP4 POP POP POP POP JUMP JUMPDEST PUSH0 DUP2 SWAP1 POP SWAP2 SWAP1 POP JUMP JUMPDEST PUSH2 0x1FE6 DUP2 PUSH2 0x1FD4 JUMP JUMPDEST DUP3 MSTORE POP POP JUMP JUMPDEST PUSH0 PUSH1 0x20 DUP3 ADD SWAP1 POP PUSH2 0x1FFF PUSH0 DUP4 ADD DUP5 PUSH2 0x1FDD JUMP JUMPDEST SWAP3 SWAP2 POP POP JUMP JUMPDEST PUSH0 PUSH1 0xFF DUP3 AND SWAP1 POP SWAP2 SWAP1 POP JUMP JUMPDEST PUSH2 0x201A DUP2 PUSH2 0x2005 JUMP JUMPDEST DUP3 MSTORE POP POP JUMP JUMPDEST PUSH0 PUSH1 0x20 DUP3 ADD SWAP1 POP PUSH2 0x2033 PUSH0 DUP4 ADD DUP5 PUSH2 0x2011 JUMP JUMPDEST SWAP3 SWAP2 POP POP JUMP JUMPDEST PUSH0 DUP2 MLOAD SWAP1 POP SWAP2 SWAP1 POP JUMP JUMPDEST PUSH0 DUP3 DUP3 MSTORE PUSH1 0x20 DUP3 ADD SWAP1 POP SWAP3 SWAP2 POP POP JUMP JUMPDEST DUP3 DUP2 DUP4 MCOPY PUSH0 DUP4 DUP4 ADD MSTORE POP POP POP JUMP JUMPDEST PUSH0 PUSH1 0x1F NOT PUSH1 0x1F DUP4 ADD AND SWAP1 POP SWAP2 SWAP1 POP JUMP JUMPDEST PUSH0 PUSH2 0x207B DUP3 PUSH2 0x2039 JUMP JUMPDEST PUSH2 0x2085 DUP2 DUP6 PUSH2 0x2043 JUMP JUMPDEST SWAP4 POP PUSH2 0x2095 DUP2 DUP6 PUSH1 0x20 DUP7 ADD PUSH2 0x2053 JUMP JUMPDEST PUSH2 0x209E DUP2 PUSH2 0x2061 JUMP JUMPDEST DUP5 ADD SWAP2 POP POP SWAP3 SWAP2 POP POP JUMP JUMPDEST PUSH0 PUSH1 0x20 DUP3 ADD SWAP1 POP DUP2 DUP2 SUB PUSH0 DUP4 ADD MSTORE PUSH2 0x20C1 DUP2 DUP5 PUSH2 0x2071 JUMP JUMPDEST SWAP1 POP SWAP3 SWAP2 POP POP JUMP JUMPDEST PUSH0 PUSH0 REVERT JUMPDEST PUSH2 0x20D6 DUP2 PUSH2 0x1FD4 JUMP JUMPDEST DUP2 EQ PUSH2 0x20E0 JUMPI PUSH0 PUSH0 REVERT JUMPDEST POP JUMP JUMPDEST PUSH0 DUP2 CALLDATALOAD SWAP1 POP PUSH2 0x20F1 DUP2 PUSH2 0x20CD JUMP JUMPDEST SWAP3 SWAP2 POP POP JUMP JUMPDEST PUSH0 PUSH1 0x20 DUP3 DUP5 SUB SLT ISZERO PUSH2 0x210C JUMPI PUSH2 0x210B PUSH2 0x20C9 JUMP JUMPDEST JUMPDEST PUSH0 PUSH2 0x2119 DUP5 DUP3 DUP6 ADD PUSH2 0x20E3 JUMP JUMPDEST SWAP2 POP POP SWAP3 SWAP2 POP POP JUMP JUMPDEST PUSH0 PUSH20 0xFFFFFFFFFFFFFFFFFFFFFFFFFFFFFFFFFFFFFFFF DUP3 AND SWAP1 POP SWAP2 SWAP1 POP JUMP JUMPDEST PUSH0 PUSH2 0x214B DUP3 PUSH2 0x2122 JUMP JUMPDEST SWAP1 POP SWAP2 SWAP1 POP JUMP JUMPDEST PUSH2 0x215B DUP2 PUSH2 0x2141 JUMP JUMPDEST DUP2 EQ PUSH2 0x2165 JUMPI PUSH0 PUSH0 REVERT JUMPDEST POP JUMP JUMPDEST PUSH0 DUP2 CALLDATALOAD SWAP1 POP PUSH2 0x2176 DUP2 PUSH2 0x2152 JUMP JUMPDEST SWAP3 SWAP2 POP POP JUMP JUMPDEST PUSH0 PUSH0 PUSH1 0x40 DUP4 DUP6 SUB SLT ISZERO PUSH2 0x2192 JUMPI PUSH2 0x2191 PUSH2 0x20C9 JUMP JUMPDEST JUMPDEST PUSH0 PUSH2 0x219F DUP6 DUP3 DUP7 ADD PUSH2 0x2168 JUMP JUMPDEST SWAP3 POP POP PUSH1 0x20 PUSH2 0x21B0 DUP6 DUP3 DUP7 ADD PUSH2 0x20E3 JUMP JUMPDEST SWAP2 POP POP SWAP3 POP SWAP3 SWAP1 POP JUMP JUMPDEST PUSH0 DUP2 ISZERO ISZERO SWAP1 POP SWAP2 SWAP1 POP JUMP JUMPDEST PUSH2 0x21CE DUP2 PUSH2 0x21BA JUMP JUMPDEST DUP3 MSTORE POP POP JUMP JUMPDEST PUSH0 PUSH1 0x20 DUP3 ADD SWAP1 POP PUSH2 0x21E7 PUSH0 DUP4 ADD DUP5 PUSH2 0x21C5 JUMP JUMPDEST SWAP3 SWAP2 POP POP JUMP JUMPDEST PUSH0 PUSH0 PUSH0 PUSH1 0x60 DUP5 DUP7 SUB SLT ISZERO PUSH2 0x2204 JUMPI PUSH2 0x2203 PUSH2 0x20C9 JUMP JUMPDEST JUMPDEST PUSH0 PUSH2 0x2211 DUP7 DUP3 DUP8 ADD PUSH2 0x2168 JUMP JUMPDEST SWAP4 POP POP PUSH1 0x20 PUSH2 0x2222 DUP7 DUP3 DUP8 ADD PUSH2 0x2168 JUMP JUMPDEST SWAP3 POP POP PUSH1 0x40 PUSH2 0x2233 DUP7 DUP3 DUP8 ADD PUSH2 0x20E3 JUMP JUMPDEST SWAP2 POP POP SWAP3 POP SWAP3 POP SWAP3 JUMP JUMPDEST PUSH2 0x2246 DUP2 PUSH2 0x2005 JUMP JUMPDEST DUP2 EQ PUSH2 0x2250 JUMPI PUSH0 PUSH0 REVERT JUMPDEST POP JUMP JUMPDEST PUSH0 DUP2 CALLDATALOAD SWAP1 POP PUSH2 0x2261 DUP2 PUSH2 0x223D JUMP JUMPDEST SWAP3 SWAP2 POP POP JUMP JUMPDEST PUSH0 PUSH1 0x20 DUP3 DUP5 SUB SLT ISZERO PUSH2 0x227C JUMPI PUSH2 0x227B PUSH2 0x20C9 JUMP JUMPDEST JUMPDEST PUSH0 PUSH2 0x2289 DUP5 DUP3 DUP6 ADD PUSH2 0x2253 JUMP JUMPDEST SWAP2 POP POP SWAP3 SWAP2 POP POP JUMP JUMPDEST PUSH2 0x229B DUP2 PUSH2 0x2141 JUMP JUMPDEST DUP3 MSTORE POP POP JUMP JUMPDEST PUSH0 PUSH1 0x20 DUP3 ADD SWAP1 POP PUSH2 0x22B4 PUSH0 DUP4 ADD DUP5 PUSH2 0x2292 JUMP JUMPDEST SWAP3 SWAP2 POP POP JUMP JUMPDEST PUSH0 PUSH1 0x20 DUP3 DUP5 SUB SLT ISZERO PUSH2 0x22CF JUMPI PUSH2 0x22CE PUSH2 0x20C9 JUMP JUMPDEST JUMPDEST PUSH0 PUSH2 0x22DC DUP5 DUP3 DUP6 ADD PUSH2 0x2168 JUMP JUMPDEST SWAP2 POP POP SWAP3 SWAP2 POP POP JUMP JUMPDEST PUSH0 PUSH0 PUSH1 0x40 DUP4 DUP6 SUB SLT ISZERO PUSH2 0x22FB JUMPI PUSH2 0x22FA PUSH2 0x20C9 JUMP JUMPDEST JUMPDEST PUSH0 PUSH2 0x2308 DUP6 DUP3 DUP7 ADD PUSH2 0x20E3 JUMP JUMPDEST SWAP3 POP POP PUSH1 0x20 PUSH2 0x2319 DUP6 DUP3 DUP7 ADD PUSH2 0x2168 JUMP JUMPDEST SWAP2 POP POP SWAP3 POP SWAP3 SWAP1 POP JUMP JUMPDEST PUSH0 PUSH0 PUSH0 PUSH1 0x60 DUP5 DUP7 SUB SLT ISZERO PUSH2 0x233A JUMPI PUSH2 0x2339 PUSH2 0x20C9 JUMP JUMPDEST JUMPDEST PUSH0 PUSH2 0x2347 DUP7 DUP3 DUP8 ADD PUSH2 0x20E3 JUMP JUMPDEST SWAP4 POP POP PUSH1 0x20 PUSH2 0x2358 DUP7 DUP3 DUP8 ADD PUSH2 0x2168 JUMP JUMPDEST SWAP3 POP POP PUSH1 0x40 PUSH2 0x2369 DUP7 DUP3 DUP8 ADD PUSH2 0x2168 JUMP JUMPDEST SWAP2 POP POP SWAP3 POP SWAP3 POP SWAP3 JUMP JUMPDEST PUSH0 PUSH0 PUSH1 0x40 DUP4 DUP6 SUB SLT ISZERO PUSH2 0x2389 JUMPI PUSH2 0x2388 PUSH2 0x20C9 JUMP JUMPDEST JUMPDEST PUSH0 PUSH2 0x2396 DUP6 DUP3 DUP7 ADD PUSH2 0x2168 JUMP JUMPDEST SWAP3 POP POP PUSH1 0x20 PUSH2 0x23A7 DUP6 DUP3 DUP7 ADD PUSH2 0x2168 JUMP JUMPDEST SWAP2 POP POP SWAP3 POP SWAP3 SWAP1 POP JUMP JUMPDEST PUSH32 0x4E487B7100000000000000000000000000000000000000000000000000000000 PUSH0 MSTORE PUSH1 0x11 PUSH1 0x4 MSTORE PUSH1 0x24 PUSH0 REVERT JUMPDEST PUSH0 PUSH2 0x23E8 DUP3 PUSH2 0x1FD4 JUMP JUMPDEST SWAP2 POP PUSH2 0x23F3 DUP4 PUSH2 0x1FD4 JUMP JUMPDEST SWAP3 POP DUP3 DUP3 ADD SWAP1 POP DUP1 DUP3 GT ISZERO PUSH2 0x240B JUMPI PUSH2 0x240A PUSH2 0x23B1 JUMP JUMPDEST JUMPDEST SWAP3 SWAP2 POP POP JUMP JUMPDEST PUSH32 0x4E487B7100000000000000000000000000000000000000000000000000000000 PUSH0 MSTORE PUSH1 0x22 PUSH1 0x4 MSTORE PUSH1 0x24 PUSH0 REVERT JUMPDEST PUSH0 PUSH1 0x2 DUP3 DIV SWAP1 POP PUSH1 0x1 DUP3 AND DUP1 PUSH2 0x2455 JUMPI PUSH1 0x7F DUP3 AND SWAP2 POP JUMPDEST PUSH1 0x20 DUP3 LT DUP2 SUB PUSH2 0x2468 JUMPI PUSH2 0x2467 PUSH2 0x2411 JUMP JUMPDEST JUMPDEST POP SWAP2 SWAP1 POP JUMP JUMPDEST PUSH32 0x4F6E6C792044414F2063616E2063616C6C20746869732066756E6374696F6E00 PUSH0 DUP3 ADD MSTORE POP JUMP JUMPDEST PUSH0 PUSH2 0x24A2 PUSH1 0x1F DUP4 PUSH2 0x2043 JUMP JUMPDEST SWAP2 POP PUSH2 0x24AD DUP3 PUSH2 0x246E JUMP JUMPDEST PUSH1 0x20 DUP3 ADD SWAP1 POP SWAP2 SWAP1 POP JUMP JUMPDEST PUSH0 PUSH1 0x20 DUP3 ADD SWAP1 POP DUP2 DUP2 SUB PUSH0 DUP4 ADD MSTORE PUSH2 0x24CF DUP2 PUSH2 0x2496 JUMP JUMPDEST SWAP1 POP SWAP2 SWAP1 POP JUMP JUMPDEST PUSH0 DUP2 MLOAD SWAP1 POP SWAP2 SWAP1 POP JUMP JUMPDEST PUSH0 DUP3 DUP3 MSTORE PUSH1 0x20 DUP3 ADD SWAP1 POP SWAP3 SWAP2 POP POP JUMP JUMPDEST PUSH0 PUSH2 0x24FA DUP3 PUSH2 0x24D6 JUMP JUMPDEST PUSH2 0x2504 DUP2 DUP6 PUSH2 0x24E0 JUMP JUMPDEST SWAP4 POP PUSH2 0x2514 DUP2 DUP6 PUSH1 0x20 DUP7 ADD PUSH2 0x2053 JUMP JUMPDEST PUSH2 0x251D DUP2 PUSH2 0x2061 JUMP JUMPDEST DUP5 ADD SWAP2 POP POP SWAP3 SWAP2 POP POP JUMP JUMPDEST PUSH0 PUSH1 0x60 DUP3 ADD SWAP1 POP DUP2 DUP2 SUB PUSH0 DUP4 ADD MSTORE PUSH2 0x2540 DUP2 DUP7 PUSH2 0x24F0 JUMP JUMPDEST SWAP1 POP PUSH2 0x254F PUSH1 0x20 DUP4 ADD DUP6 PUSH2 0x2292 JUMP JUMPDEST PUSH2 0x255C PUSH1 0x40 DUP4 ADD DUP5 PUSH2 0x2011 JUMP JUMPDEST SWAP5 SWAP4 POP POP POP POP JUMP JUMPDEST PUSH0 PUSH1 0x40 DUP3 ADD SWAP1 POP PUSH2 0x2577 PUSH0 DUP4 ADD DUP6 PUSH2 0x2011 JUMP JUMPDEST PUSH2 0x2584 PUSH1 0x20 DUP4 ADD DUP5 PUSH2 0x2011 JUMP JUMPDEST SWAP4 SWAP3 POP POP POP JUMP JUMPDEST PUSH0 PUSH2 0x2595 DUP3 PUSH2 0x2005 JUMP JUMPDEST SWAP2 POP PUSH2 0x25A0 DUP4 PUSH2 0x2005 JUMP JUMPDEST SWAP3 POP DUP3 DUP3 ADD SWAP1 POP PUSH1 0xFF DUP2 GT ISZERO PUSH2 0x25B9 JUMPI PUSH2 0x25B8 PUSH2 0x23B1 JUMP JUMPDEST JUMPDEST SWAP3 SWAP2 POP POP JUMP JUMPDEST PUSH0 PUSH1 0x40 DUP3 ADD SWAP1 POP PUSH2 0x25D2 PUSH0 DUP4 ADD DUP6 PUSH2 0x2292 JUMP JUMPDEST PUSH2 0x25DF PUSH1 0x20 DUP4 ADD DUP5 PUSH2 0x2292 JUMP JUMPDEST SWAP4 SWAP3 POP POP POP JUMP JUMPDEST PUSH0 PUSH1 0x60 DUP3 ADD SWAP1 POP PUSH2 0x25F9 PUSH0 DUP4 ADD DUP7 PUSH2 0x2292 JUMP JUMPDEST PUSH2 0x2606 PUSH1 0x20 DUP4 ADD DUP6 PUSH2 0x1FDD JUMP JUMPDEST PUSH2 0x2613 PUSH1 0x40 DUP4 ADD DUP5 PUSH2 0x1FDD JUMP JUMPDEST SWAP5 SWAP4 POP POP POP POP JUMP JUMPDEST PUSH0 DUP2 MLOAD SWAP1 POP PUSH2 0x2629 DUP2 PUSH2 0x20CD JUMP JUMPDEST SWAP3 SWAP2 POP POP JUMP JUMPDEST PUSH0 PUSH1 0x20 DUP3 DUP5 SUB SLT ISZERO PUSH2 0x2644 JUMPI PUSH2 0x2643 PUSH2 0x20C9 JUMP JUMPDEST JUMPDEST PUSH0 PUSH2 0x2651 DUP5 DUP3 DUP6 ADD PUSH2 0x261B JUMP JUMPDEST SWAP2 POP POP SWAP3 SWAP2 POP POP JUMP JUMPDEST PUSH0 DUP2 PUSH1 0x1 SHR SWAP1 POP SWAP2 SWAP1 POP JUMP JUMPDEST PUSH0 PUSH0 DUP3 SWAP2 POP DUP4 SWAP1 POP JUMPDEST PUSH1 0x1 DUP6 GT ISZERO PUSH2 0x26AF JUMPI DUP1 DUP7 DIV DUP2 GT ISZERO PUSH2 0x268B JUMPI PUSH2 0x268A PUSH2 0x23B1 JUMP JUMPDEST JUMPDEST PUSH1 0x1 DUP6 AND ISZERO PUSH2 0x269A JUMPI DUP1 DUP3 MUL SWAP2 POP JUMPDEST DUP1 DUP2 MUL SWAP1 POP PUSH2 0x26A8 DUP6 PUSH2 0x265A JUMP JUMPDEST SWAP5 POP PUSH2 0x266F JUMP JUMPDEST SWAP5 POP SWAP5 SWAP3 POP POP POP JUMP JUMPDEST PUSH0 DUP3 PUSH2 0x26C7 JUMPI PUSH1 0x1 SWAP1 POP PUSH2 0x2782 JUMP JUMPDEST DUP2 PUSH2 0x26D4 JUMPI PUSH0 SWAP1 POP PUSH2 0x2782 JUMP JUMPDEST DUP2 PUSH1 0x1 DUP2 EQ PUSH2 0x26EA JUMPI PUSH1 0x2 DUP2 EQ PUSH2 0x26F4 JUMPI PUSH2 0x2723 JUMP JUMPDEST PUSH1 0x1 SWAP2 POP POP PUSH2 0x2782 JUMP JUMPDEST PUSH1 0xFF DUP5 GT ISZERO PUSH2 0x2706 JUMPI PUSH2 0x2705 PUSH2 0x23B1 JUMP JUMPDEST JUMPDEST DUP4 PUSH1 0x2 EXP SWAP2 POP DUP5 DUP3 GT ISZERO PUSH2 0x271D JUMPI PUSH2 0x271C PUSH2 0x23B1 JUMP JUMPDEST JUMPDEST POP PUSH2 0x2782 JUMP JUMPDEST POP PUSH1 0x20 DUP4 LT PUSH2 0x133 DUP4 LT AND PUSH1 0x4E DUP5 LT PUSH1 0xB DUP5 LT AND OR ISZERO PUSH2 0x2758 JUMPI DUP3 DUP3 EXP SWAP1 POP DUP4 DUP2 GT ISZERO PUSH2 0x2753 JUMPI PUSH2 0x2752 PUSH2 0x23B1 JUMP JUMPDEST JUMPDEST PUSH2 0x2782 JUMP JUMPDEST PUSH2 0x2765 DUP5 DUP5 DUP5 PUSH1 0x1 PUSH2 0x2666 JUMP JUMPDEST SWAP3 POP SWAP1 POP DUP2 DUP5 DIV DUP2 GT ISZERO PUSH2 0x277C JUMPI PUSH2 0x277B PUSH2 0x23B1 JUMP JUMPDEST JUMPDEST DUP2 DUP2 MUL SWAP1 POP JUMPDEST SWAP4 SWAP3 POP POP POP JUMP JUMPDEST PUSH0 PUSH2 0x2793 DUP3 PUSH2 0x1FD4 JUMP JUMPDEST SWAP2 POP PUSH2 0x279E DUP4 PUSH2 0x2005 JUMP JUMPDEST SWAP3 POP PUSH2 0x27CB PUSH32 0xFFFFFFFFFFFFFFFFFFFFFFFFFFFFFFFFFFFFFFFFFFFFFFFFFFFFFFFFFFFFFFFF DUP5 DUP5 PUSH2 0x26B8 JUMP JUMPDEST SWAP1 POP SWAP3 SWAP2 POP POP JUMP JUMPDEST PUSH0 PUSH1 0x40 DUP3 ADD SWAP1 POP PUSH2 0x27E6 PUSH0 DUP4 ADD DUP6 PUSH2 0x1FDD JUMP JUMPDEST PUSH2 0x27F3 PUSH1 0x20 DUP4 ADD DUP5 PUSH2 0x1FDD JUMP JUMPDEST SWAP4 SWAP3 POP POP POP JUMP JUMPDEST PUSH32 0x4E487B7100000000000000000000000000000000000000000000000000000000 PUSH0 MSTORE PUSH1 0x12 PUSH1 0x4 MSTORE PUSH1 0x24 PUSH0 REVERT JUMPDEST PUSH32 0x4E487B7100000000000000000000000000000000000000000000000000000000 PUSH0 MSTORE PUSH1 0x21 PUSH1 0x4 MSTORE PUSH1 0x24 PUSH0 REVERT JUMPDEST PUSH0 PUSH2 0x285E DUP3 PUSH2 0x2005 JUMP JUMPDEST SWAP2 POP PUSH2 0x2869 DUP4 PUSH2 0x2005 JUMP JUMPDEST SWAP3 POP DUP3 PUSH2 0x2879 JUMPI PUSH2 0x2878 PUSH2 0x27FA JUMP JUMPDEST JUMPDEST DUP3 DUP3 MOD SWAP1 POP SWAP3 SWAP2 POP POP JUMP INVALID LOG2 PUSH5 0x6970667358 0x22 SLT KECCAK256 DUP14 0xCB SGT CODECOPY 0xC4 0xAF 0xC2 DUP3 0xD8 SWAP4 0x4C ORIGIN NUMBER MSTORE 0x28 TSTORE SWAP14 PUSH21 0x5A1684124C4E237B2C1035FFC16964736F6C634300 ADDMOD SHR STOP CALLER "
		},
		"gasEstimates": {
			"creation": {
				"codeDepositCost": "2085200",
				"executionCost": "infinite",
				"totalCost": "infinite"
			},
			"external": {
				"allowance(address,address)": "infinite",
				"approve(address,uint256)": "infinite",
				"asset()": "infinite",
				"balanceOf(address)": "2918",
				"convertToAssets(uint256)": "infinite",
				"convertToShares(uint256)": "infinite",
				"dao()": "2575",
				"decimals()": "infinite",
				"deposit(uint256,address)": "infinite",
				"feesPercentage()": "2629",
				"harvest()": "2685",
				"liquidityBufferPercentage()": "2586",
				"maxDeposit(address)": "686",
				"maxMint(address)": "730",
				"maxRedeem(address)": "2936",
				"maxWithdraw(address)": "infinite",
				"mint(uint256,address)": "infinite",
				"name()": "infinite",
				"previewDeposit(uint256)": "infinite",
				"previewMint(uint256)": "infinite",
				"previewRedeem(uint256)": "infinite",
				"previewWithdraw(uint256)": "infinite",
				"redeem(uint256,address,address)": "infinite",
				"setDao(address)": "infinite",
				"setFeesPercentage(uint8)": "infinite",
				"setLiquidityBufferPercentage(uint8)": "infinite",
				"symbol()": "infinite",
				"totalAssets()": "infinite",
				"totalSupply()": "2522",
				"transfer(address,uint256)": "infinite",
				"transferFrom(address,address,uint256)": "infinite",
				"withdraw(uint256,address,address)": "infinite"
			}
		},
		"methodIdentifiers": {
			"allowance(address,address)": "dd62ed3e",
			"approve(address,uint256)": "095ea7b3",
			"asset()": "38d52e0f",
			"balanceOf(address)": "70a08231",
			"convertToAssets(uint256)": "07a2d13a",
			"convertToShares(uint256)": "c6e6f592",
			"dao()": "4162169f",
			"decimals()": "313ce567",
			"deposit(uint256,address)": "6e553f65",
			"feesPercentage()": "213ecbba",
			"harvest()": "4641257d",
			"liquidityBufferPercentage()": "03b10d92",
			"maxDeposit(address)": "402d267d",
			"maxMint(address)": "c63d75b6",
			"maxRedeem(address)": "d905777e",
			"maxWithdraw(address)": "ce96cb77",
			"mint(uint256,address)": "94bf804d",
			"name()": "06fdde03",
			"previewDeposit(uint256)": "ef8b30f7",
			"previewMint(uint256)": "b3d7f6b9",
			"previewRedeem(uint256)": "4cdad506",
			"previewWithdraw(uint256)": "0a28a477",
			"redeem(uint256,address,address)": "ba087652",
			"setDao(address)": "6637b882",
			"setFeesPercentage(uint8)": "23be4cb4",
			"setLiquidityBufferPercentage(uint8)": "b720eb2c",
			"symbol()": "95d89b41",
			"totalAssets()": "01e1d114",
			"totalSupply()": "18160ddd",
			"transfer(address,uint256)": "a9059cbb",
			"transferFrom(address,address,uint256)": "23b872dd",
			"withdraw(uint256,address,address)": "b460af94"
		}
	},
	"abi": [
		{
			"inputs": [
				{
					"internalType": "contract IERC20",
					"name": "_usdc",
					"type": "address"
				},
				{
					"internalType": "address",
					"name": "_dao",
					"type": "address"
				}
			],
			"stateMutability": "nonpayable",
			"type": "constructor"
		},
		{
			"inputs": [
				{
					"internalType": "bytes",
					"name": "name",
					"type": "bytes"
				},
				{
					"internalType": "address",
					"name": "sender",
					"type": "address"
				},
				{
					"internalType": "uint8",
					"name": "badPercentage",
					"type": "uint8"
				}
			],
			"name": "BadPercentage",
			"type": "error"
		},
		{
			"inputs": [
				{
					"internalType": "address",
					"name": "spender",
					"type": "address"
				},
				{
					"internalType": "uint256",
					"name": "allowance",
					"type": "uint256"
				},
				{
					"internalType": "uint256",
					"name": "needed",
					"type": "uint256"
				}
			],
			"name": "ERC20InsufficientAllowance",
			"type": "error"
		},
		{
			"inputs": [
				{
					"internalType": "address",
					"name": "sender",
					"type": "address"
				},
				{
					"internalType": "uint256",
					"name": "balance",
					"type": "uint256"
				},
				{
					"internalType": "uint256",
					"name": "needed",
					"type": "uint256"
				}
			],
			"name": "ERC20InsufficientBalance",
			"type": "error"
		},
		{
			"inputs": [
				{
					"internalType": "address",
					"name": "approver",
					"type": "address"
				}
			],
			"name": "ERC20InvalidApprover",
			"type": "error"
		},
		{
			"inputs": [
				{
					"internalType": "address",
					"name": "receiver",
					"type": "address"
				}
			],
			"name": "ERC20InvalidReceiver",
			"type": "error"
		},
		{
			"inputs": [
				{
					"internalType": "address",
					"name": "sender",
					"type": "address"
				}
			],
			"name": "ERC20InvalidSender",
			"type": "error"
		},
		{
			"inputs": [
				{
					"internalType": "address",
					"name": "spender",
					"type": "address"
				}
			],
			"name": "ERC20InvalidSpender",
			"type": "error"
		},
		{
			"inputs": [
				{
					"internalType": "address",
					"name": "receiver",
					"type": "address"
				},
				{
					"internalType": "uint256",
					"name": "assets",
					"type": "uint256"
				},
				{
					"internalType": "uint256",
					"name": "max",
					"type": "uint256"
				}
			],
			"name": "ERC4626ExceededMaxDeposit",
			"type": "error"
		},
		{
			"inputs": [
				{
					"internalType": "address",
					"name": "receiver",
					"type": "address"
				},
				{
					"internalType": "uint256",
					"name": "shares",
					"type": "uint256"
				},
				{
					"internalType": "uint256",
					"name": "max",
					"type": "uint256"
				}
			],
			"name": "ERC4626ExceededMaxMint",
			"type": "error"
		},
		{
			"inputs": [
				{
					"internalType": "address",
					"name": "owner",
					"type": "address"
				},
				{
					"internalType": "uint256",
					"name": "shares",
					"type": "uint256"
				},
				{
					"internalType": "uint256",
					"name": "max",
					"type": "uint256"
				}
			],
			"name": "ERC4626ExceededMaxRedeem",
			"type": "error"
		},
		{
			"inputs": [
				{
					"internalType": "address",
					"name": "owner",
					"type": "address"
				},
				{
					"internalType": "uint256",
					"name": "assets",
					"type": "uint256"
				},
				{
					"internalType": "uint256",
					"name": "max",
					"type": "uint256"
				}
			],
			"name": "ERC4626ExceededMaxWithdraw",
			"type": "error"
		},
		{
			"inputs": [
				{
					"internalType": "address",
					"name": "sender",
					"type": "address"
				},
				{
					"internalType": "address",
					"name": "badDao",
					"type": "address"
				}
			],
			"name": "NotDao",
			"type": "error"
		},
		{
			"inputs": [],
			"name": "ReentrancyGuardReentrantCall",
			"type": "error"
		},
		{
			"inputs": [
				{
					"internalType": "address",
					"name": "token",
					"type": "address"
				}
			],
			"name": "SafeERC20FailedOperation",
			"type": "error"
		},
		{
			"anonymous": false,
			"inputs": [
				{
					"indexed": true,
					"internalType": "address",
					"name": "owner",
					"type": "address"
				},
				{
					"indexed": true,
					"internalType": "address",
					"name": "spender",
					"type": "address"
				},
				{
					"indexed": false,
					"internalType": "uint256",
					"name": "value",
					"type": "uint256"
				}
			],
			"name": "Approval",
			"type": "event"
		},
		{
			"anonymous": false,
			"inputs": [
				{
					"indexed": false,
					"internalType": "address",
					"name": "oldDao",
					"type": "address"
				},
				{
					"indexed": false,
					"internalType": "address",
					"name": "newDao",
					"type": "address"
				}
			],
			"name": "DaoChanged",
			"type": "event"
		},
		{
			"anonymous": false,
			"inputs": [
				{
					"indexed": true,
					"internalType": "address",
					"name": "sender",
					"type": "address"
				},
				{
					"indexed": true,
					"internalType": "address",
					"name": "owner",
					"type": "address"
				},
				{
					"indexed": false,
					"internalType": "uint256",
					"name": "assets",
					"type": "uint256"
				},
				{
					"indexed": false,
					"internalType": "uint256",
					"name": "shares",
					"type": "uint256"
				}
			],
			"name": "Deposit",
			"type": "event"
		},
		{
			"anonymous": false,
			"inputs": [
				{
					"indexed": false,
					"internalType": "uint8",
					"name": "oldFeesPercentage",
					"type": "uint8"
				},
				{
					"indexed": false,
					"internalType": "uint8",
					"name": "newFeesPercentage",
					"type": "uint8"
				}
			],
			"name": "FeesPercentageChanged",
			"type": "event"
		},
		{
			"anonymous": false,
			"inputs": [
				{
					"indexed": false,
					"internalType": "uint8",
					"name": "oldLiquidityBufferPercentage",
					"type": "uint8"
				},
				{
					"indexed": false,
					"internalType": "uint8",
					"name": "newLiquidityBufferPercentage",
					"type": "uint8"
				}
			],
			"name": "LiquidityBufferPercentageChanged",
			"type": "event"
		},
		{
			"anonymous": false,
			"inputs": [
				{
					"indexed": true,
					"internalType": "address",
					"name": "from",
					"type": "address"
				},
				{
					"indexed": true,
					"internalType": "address",
					"name": "to",
					"type": "address"
				},
				{
					"indexed": false,
					"internalType": "uint256",
					"name": "value",
					"type": "uint256"
				}
			],
			"name": "Transfer",
			"type": "event"
		},
		{
			"anonymous": false,
			"inputs": [
				{
					"indexed": true,
					"internalType": "address",
					"name": "sender",
					"type": "address"
				},
				{
					"indexed": true,
					"internalType": "address",
					"name": "receiver",
					"type": "address"
				},
				{
					"indexed": true,
					"internalType": "address",
					"name": "owner",
					"type": "address"
				},
				{
					"indexed": false,
					"internalType": "uint256",
					"name": "assets",
					"type": "uint256"
				},
				{
					"indexed": false,
					"internalType": "uint256",
					"name": "shares",
					"type": "uint256"
				}
			],
			"name": "Withdraw",
			"type": "event"
		},
		{
			"inputs": [
				{
					"internalType": "address",
					"name": "owner",
					"type": "address"
				},
				{
					"internalType": "address",
					"name": "spender",
					"type": "address"
				}
			],
			"name": "allowance",
			"outputs": [
				{
					"internalType": "uint256",
					"name": "",
					"type": "uint256"
				}
			],
			"stateMutability": "view",
			"type": "function"
		},
		{
			"inputs": [
				{
					"internalType": "address",
					"name": "spender",
					"type": "address"
				},
				{
					"internalType": "uint256",
					"name": "value",
					"type": "uint256"
				}
			],
			"name": "approve",
			"outputs": [
				{
					"internalType": "bool",
					"name": "",
					"type": "bool"
				}
			],
			"stateMutability": "nonpayable",
			"type": "function"
		},
		{
			"inputs": [],
			"name": "asset",
			"outputs": [
				{
					"internalType": "address",
					"name": "",
					"type": "address"
				}
			],
			"stateMutability": "view",
			"type": "function"
		},
		{
			"inputs": [
				{
					"internalType": "address",
					"name": "account",
					"type": "address"
				}
			],
			"name": "balanceOf",
			"outputs": [
				{
					"internalType": "uint256",
					"name": "",
					"type": "uint256"
				}
			],
			"stateMutability": "view",
			"type": "function"
		},
		{
			"inputs": [
				{
					"internalType": "uint256",
					"name": "shares",
					"type": "uint256"
				}
			],
			"name": "convertToAssets",
			"outputs": [
				{
					"internalType": "uint256",
					"name": "",
					"type": "uint256"
				}
			],
			"stateMutability": "view",
			"type": "function"
		},
		{
			"inputs": [
				{
					"internalType": "uint256",
					"name": "assets",
					"type": "uint256"
				}
			],
			"name": "convertToShares",
			"outputs": [
				{
					"internalType": "uint256",
					"name": "",
					"type": "uint256"
				}
			],
			"stateMutability": "view",
			"type": "function"
		},
		{
			"inputs": [],
			"name": "dao",
			"outputs": [
				{
					"internalType": "address",
					"name": "",
					"type": "address"
				}
			],
			"stateMutability": "view",
			"type": "function"
		},
		{
			"inputs": [],
			"name": "decimals",
			"outputs": [
				{
					"internalType": "uint8",
					"name": "",
					"type": "uint8"
				}
			],
			"stateMutability": "view",
			"type": "function"
		},
		{
			"inputs": [
				{
					"internalType": "uint256",
					"name": "usdcAmount",
					"type": "uint256"
				},
				{
					"internalType": "address",
					"name": "receiver",
					"type": "address"
				}
			],
			"name": "deposit",
			"outputs": [
				{
					"internalType": "uint256",
					"name": "glUsdP",
					"type": "uint256"
				}
			],
			"stateMutability": "nonpayable",
			"type": "function"
		},
		{
			"inputs": [],
			"name": "feesPercentage",
			"outputs": [
				{
					"internalType": "uint8",
					"name": "",
					"type": "uint8"
				}
			],
			"stateMutability": "view",
			"type": "function"
		},
		{
			"inputs": [],
			"name": "harvest",
			"outputs": [],
			"stateMutability": "nonpayable",
			"type": "function"
		},
		{
			"inputs": [],
			"name": "liquidityBufferPercentage",
			"outputs": [
				{
					"internalType": "uint8",
					"name": "",
					"type": "uint8"
				}
			],
			"stateMutability": "view",
			"type": "function"
		},
		{
			"inputs": [
				{
					"internalType": "address",
					"name": "",
					"type": "address"
				}
			],
			"name": "maxDeposit",
			"outputs": [
				{
					"internalType": "uint256",
					"name": "",
					"type": "uint256"
				}
			],
			"stateMutability": "view",
			"type": "function"
		},
		{
			"inputs": [
				{
					"internalType": "address",
					"name": "",
					"type": "address"
				}
			],
			"name": "maxMint",
			"outputs": [
				{
					"internalType": "uint256",
					"name": "",
					"type": "uint256"
				}
			],
			"stateMutability": "view",
			"type": "function"
		},
		{
			"inputs": [
				{
					"internalType": "address",
					"name": "owner",
					"type": "address"
				}
			],
			"name": "maxRedeem",
			"outputs": [
				{
					"internalType": "uint256",
					"name": "",
					"type": "uint256"
				}
			],
			"stateMutability": "view",
			"type": "function"
		},
		{
			"inputs": [
				{
					"internalType": "address",
					"name": "owner",
					"type": "address"
				}
			],
			"name": "maxWithdraw",
			"outputs": [
				{
					"internalType": "uint256",
					"name": "",
					"type": "uint256"
				}
			],
			"stateMutability": "view",
			"type": "function"
		},
		{
			"inputs": [
				{
					"internalType": "uint256",
					"name": "shares",
					"type": "uint256"
				},
				{
					"internalType": "address",
					"name": "receiver",
					"type": "address"
				}
			],
			"name": "mint",
			"outputs": [
				{
					"internalType": "uint256",
					"name": "",
					"type": "uint256"
				}
			],
			"stateMutability": "nonpayable",
			"type": "function"
		},
		{
			"inputs": [],
			"name": "name",
			"outputs": [
				{
					"internalType": "string",
					"name": "",
					"type": "string"
				}
			],
			"stateMutability": "view",
			"type": "function"
		},
		{
			"inputs": [
				{
					"internalType": "uint256",
					"name": "assets",
					"type": "uint256"
				}
			],
			"name": "previewDeposit",
			"outputs": [
				{
					"internalType": "uint256",
					"name": "",
					"type": "uint256"
				}
			],
			"stateMutability": "view",
			"type": "function"
		},
		{
			"inputs": [
				{
					"internalType": "uint256",
					"name": "shares",
					"type": "uint256"
				}
			],
			"name": "previewMint",
			"outputs": [
				{
					"internalType": "uint256",
					"name": "",
					"type": "uint256"
				}
			],
			"stateMutability": "view",
			"type": "function"
		},
		{
			"inputs": [
				{
					"internalType": "uint256",
					"name": "shares",
					"type": "uint256"
				}
			],
			"name": "previewRedeem",
			"outputs": [
				{
					"internalType": "uint256",
					"name": "",
					"type": "uint256"
				}
			],
			"stateMutability": "view",
			"type": "function"
		},
		{
			"inputs": [
				{
					"internalType": "uint256",
					"name": "assets",
					"type": "uint256"
				}
			],
			"name": "previewWithdraw",
			"outputs": [
				{
					"internalType": "uint256",
					"name": "",
					"type": "uint256"
				}
			],
			"stateMutability": "view",
			"type": "function"
		},
		{
			"inputs": [
				{
					"internalType": "uint256",
					"name": "glUsdPAmount",
					"type": "uint256"
				},
				{
					"internalType": "address",
					"name": "receiver",
					"type": "address"
				},
				{
					"internalType": "address",
					"name": "owner",
					"type": "address"
				}
			],
			"name": "redeem",
			"outputs": [
				{
					"internalType": "uint256",
					"name": "assets",
					"type": "uint256"
				}
			],
			"stateMutability": "nonpayable",
			"type": "function"
		},
		{
			"inputs": [
				{
					"internalType": "address",
					"name": "_dao",
					"type": "address"
				}
			],
			"name": "setDao",
			"outputs": [],
			"stateMutability": "nonpayable",
			"type": "function"
		},
		{
			"inputs": [
				{
					"internalType": "uint8",
					"name": "_feesPercentage",
					"type": "uint8"
				}
			],
			"name": "setFeesPercentage",
			"outputs": [],
			"stateMutability": "nonpayable",
			"type": "function"
		},
		{
			"inputs": [
				{
					"internalType": "uint8",
					"name": "_liquidityBufferPercentage",
					"type": "uint8"
				}
			],
			"name": "setLiquidityBufferPercentage",
			"outputs": [],
			"stateMutability": "nonpayable",
			"type": "function"
		},
		{
			"inputs": [],
			"name": "symbol",
			"outputs": [
				{
					"internalType": "string",
					"name": "",
					"type": "string"
				}
			],
			"stateMutability": "view",
			"type": "function"
		},
		{
			"inputs": [],
			"name": "totalAssets",
			"outputs": [
				{
					"internalType": "uint256",
					"name": "totalAsset",
					"type": "uint256"
				}
			],
			"stateMutability": "view",
			"type": "function"
		},
		{
			"inputs": [],
			"name": "totalSupply",
			"outputs": [
				{
					"internalType": "uint256",
					"name": "",
					"type": "uint256"
				}
			],
			"stateMutability": "view",
			"type": "function"
		},
		{
			"inputs": [
				{
					"internalType": "address",
					"name": "to",
					"type": "address"
				},
				{
					"internalType": "uint256",
					"name": "value",
					"type": "uint256"
				}
			],
			"name": "transfer",
			"outputs": [
				{
					"internalType": "bool",
					"name": "",
					"type": "bool"
				}
			],
			"stateMutability": "nonpayable",
			"type": "function"
		},
		{
			"inputs": [
				{
					"internalType": "address",
					"name": "from",
					"type": "address"
				},
				{
					"internalType": "address",
					"name": "to",
					"type": "address"
				},
				{
					"internalType": "uint256",
					"name": "value",
					"type": "uint256"
				}
			],
			"name": "transferFrom",
			"outputs": [
				{
					"internalType": "bool",
					"name": "",
					"type": "bool"
				}
			],
			"stateMutability": "nonpayable",
			"type": "function"
		},
		{
			"inputs": [
				{
					"internalType": "uint256",
					"name": "assets",
					"type": "uint256"
				},
				{
					"internalType": "address",
					"name": "receiver",
					"type": "address"
				},
				{
					"internalType": "address",
					"name": "owner",
					"type": "address"
				}
			],
			"name": "withdraw",
			"outputs": [
				{
					"internalType": "uint256",
					"name": "",
					"type": "uint256"
				}
			],
			"stateMutability": "nonpayable",
			"type": "function"
		}
	]
}